:020000040800F2
:10000000E05B0020450100087F430008633D0008D5
:100010007D430008591F0008B54A00080000000091
:100020000000000000000000000000003946000849
:100030009F1F000800000000374600083B460008EC
:100040005F0100085F0100085F0100085F01000810
:100050005F0100085F0100085F0100085F01000800
:100060005F0100085F0100085F0100085D1F0008D4
:100070005F0100085F0100085F0100085F010008E0
:100080005F0100085F0100085F0100085F010008D0
:100090005F0100085F0100085F0100085F010008C0
:1000A0005F010008BD4600085F0100085F0100080D
:1000B0005F010008C94600085F0100085F010008F1
:1000C0005F0100085F0100085F0100085F01000890
:1000D0005F0100085F0100085F0100085F01000880
:1000E0005F0100085F0100085F0100085F01000870
:1000F0005F0100085F0100085F0100085F01000860
:100100005F0100085F0100085F0100085F0100084F
:100110005F0100085F0100085F0100085F0100083F
:100120005F0100085F0100085F0100085F0100082F
:10013000DFF80CD000F028FC004800471D540008F0
:10014000E05B00200648804706480047FEE7FEE7E0
:10015000FEE7FEE7FEE7FEE7FEE7FEE7FEE7FEE777
:10016000B946000831010008202A04DB203A21FAB0
:1001700002F00021704721FA02F3D040C2F12002C0
:100180009140084319467047D2B201E000F8012BB4
:10019000491EFBD270470022F6E710B513460A4607
:1001A00004461946FFF7F0FF204610BDF0B480EA80
:1001B0000102D40F4200B2EB410F02D202460846C0
:1001C00011464A0042D0C30DDDB2C1F3C752AD1A89
:1001D000202D35DAC1F3160141F4000204B1524278
:1001E000C5F1200602FA06F12A411044B3EBD05FB4
:1001F00023D0C4B1012DA0EBC35009DCF0BC4FF0FB
:10020000004202EAC352DBB200F5000000F02BBA54
:10021000400000F1807000EBC350A0F1807040EA14
:10022000D170490009E0490841EAC071A0EBC35010
:1002300000F50000400800EBC350F0BC00F00ABA23
:100240006142012202EB4101001BF6E7F0BC70475E
:1002500081F00041AAE780F00040A7E780EA0102B0
:1002600010B502F00043400022D04A001FD0010E1A
:1002700001EB1261C0F35600C2F3560240F40000D5
:1002800042F40002A0FB022000047F39140400D0D5
:10029000401C50EA124001D44000491EC2B20C0674
:1002A00004EBD010401C4008802A02D003E000205C
:1002B00010BD20F00100002900DA0020184310BD15
:1002C00030B480EA010202F0004530F0004221F033
:1002D000004013D090B1C30DD40DC2F31601C0F38A
:1002E0001600E41A41F4000140F400027D3491420A
:1002F00001D3641C00E04900002C02DA30BC00206D
:1003000070474FF400000023914201D3891A034340
:1003100040084FEA4101F7D151B1914202D14FF06B
:10032000004105E002D24FF0010101E06FF0010150
:1003300003EBC450284430BC00F08CB9420005D017
:10034000C0F3C7525242914201DC0020704700EBDB
:10035000C15070472DE9FE4F81EA030404F00044C8
:1003600021F0004100944FF0000B23F0004350EACD
:1003700001045ED052EA03045BD0C3F30A54C1F314
:100380000A552C44A4F2F3340194A0FB0254C1F3A7
:10039000130141F48011C3F3130343F4801301FBF1
:1003A000024400FB034E840A970A44EA815447EA58
:1003B0008357A4FB076802958D0A05FB07854FEA62
:1003C000932C04FB0C542705029D4FEA065847EA7C
:1003D0001637B5EB08056EEB070C870E920E47EA51
:1003E000811742EA8312A7FB0201B6EB0B0164EB13
:1003F00000042B0D43EA0C335E1844EB1C50DA4624
:100400005146E7FB0201C5F313044FEA0B3343EAFD
:1004100014534FEA0432019C43EA0603A4F10C048E
:100420000294009CCDE900B400F089F903B0BDE866
:10043000F08F00200146F9E72DE9F04D81EA030431
:1004400004F0004B21F0004514464FF0000A23F061
:10045000004150EA050220D054EA01021DD0C5F344
:100460000A570246C5F31303C1F31300C1F30A563A
:1004700040F4801543F48013A7EB0608101BD64602
:1004800008F2FD3873EB050002D308F1010801E022
:1004900092185B41B8F1000F03DA00200146BDE875
:1004A000F08D00204FF48011064684460EE0171BA5
:1004B00073EB050705D3121B63EB050306434CEAF8
:1004C000010C49084FEA300092185B4150EA0107DD
:1004D000EDD152EA030012D082EA040083EA05015A
:1004E000084305D0101BAB4106D20122002306E0D1
:1004F00000224FF0004302E06FF0010253101AEBAC
:1005000006004CEB085110EB0A0041EB0B01BDE873
:10051000F04D00F005B970B521F0004303430CD055
:10052000C1F30A550024D5EB040564EB0403D61788
:10053000AD1AB34102DB0020014670BD201841EB2B
:10054000025170BD96230022114600F08CB80EB502
:1005500040F2334102910021CDE900110A460B46D9
:1005600000F0EDF803B000BD00F0004230F00040B4
:100570000AD0C10D01F56071C0F3160042EA0151C5
:10058000C20840071143704700200146704701F040
:10059000004330B421F0004150EA010206D00A0DB8
:1005A000A2F56072C1F31301002A02DC30BC002006
:1005B0007047440F44EAC104C100E01830BC00EBAE
:1005C000C25000F047B830B50B460146002020224B
:1005D000012409E021FA02F59D4205D303FA02F550
:1005E000491B04FA02F52844151EA2F10102F1DCB0
:1005F00030BD2DE9F05F0546002092469B468846B7
:100600000646814640241BE028464146474622468E
:10061000FFF7AAFD53465A46C01A914110D311461E
:100620001846224600F0C2F92D1A67EB01084F4622
:1006300022460120002100F0B9F917EB00094E41D4
:10064000201EA4F10104DFDC484631462A46434619
:10065000BDE8F09F0029A8BF7047401C490008BFB3
:1006600020F00100704710B4B0FA80FC00FA0CF0E2
:1006700050EA010404BF10BC704749B1CCF120041A
:1006800021FA04F411FA0CF118BF012121430843A7
:10069000A3EB0C01CB1D4FEA00614FEA102042BFD3
:1006A000002010BC704700EBC35010440029A4BFC9
:1006B00010BC7047401C490008BF20F0010010BC6E
:1006C0007047F0B4002802DCF0BC00207047C0F393
:1006D000C751C0F3160040F40000CA0701D1400022
:1006E000491E3F2202EB6105002211464FF400062D
:1006F00026FA01F31344D418844201D8001B1A4689
:100700004000491C1729F3DD5100814202D24FF00D
:10071000FF3100E0002102EBC550F0BCFFF79ABFAB
:1007200010B5141E73F1000408DA401C41F10001F9
:1007300092185B411A4301D120F0010010BD2DE950
:10074000F04D92469B4611B1B1FA81F202E0B0FA47
:1007500080F22032904600F029F904460F4640EA24
:100760000A0041EA0B0153465A46084313D011468A
:1007700053EA010019D0C8F140025046FFF7F4FCDB
:1007800005460E4650465946424600F00FF90843CA
:1007900005D0012004E020463946BDE8F08D002058
:1007A000054346EAE0762C4337430A986305E40A9A
:1007B000A0EB08000022FD0A44EA47540A3002D5A3
:1007C00000200146E9E7010510196941DDE9084506
:1007D00000196941BDE8F04DA2E72DE9FE4F8046C2
:1007E00081EA0300C00F0C46009021F0004123F085
:1007F0000045B8EB0200A94105D24046214690468B
:100800001C460B46024623F00040104347D0270DFC
:10081000C7F30A00C3F30A510290401A019040281E
:100820006BDAC3F3130040F4801B0098924620B1AA
:100830000023D2EB030A63EB0B0B01985946C0F17E
:100840004002504600F0B2F806460D465046594662
:10085000019A00F0BAF810EB08006141002487EA21
:10086000115284EAE7731A4340D0009A62B3019AA6
:10087000012A4FEA075215DC001B61EB02014FF021
:10088000004202EA0752CDE90042001C41F5801106
:1008900032462B46FFF753FF03B0BDE8F08F4046CA
:1008A0002146F9E7001B61EB0201001C41F58013B2
:1008B00000185B412018A2F5001747EB030140EA3E
:1008C000D570B6196D4111E06D084FEA360645EA5C
:1008D000C0754FEA0752001B61EB0201001C41F595
:1008E000801149084FEA30000019514132462B4629
:1008F00003B0BDE8F04FFFF713BF0098012240009E
:100900000023D0EB020263EBE073009821464FEA2C
:10091000E074B8EB000061EB0401E9E783F0004309
:100920005BE781F0004158E7C1F30A52C1F31301BC
:1009300040F2FF3341F480119A4202DA002001466E
:10094000704740F233439A42A2F2334202DC5242F1
:10095000FFF70ABC00F02AB830B5041E71F100049C
:1009600004DB4FF00044404264EB0101141E73F1BC
:10097000000405DB1C464FF00043524263EB0403C6
:10098000994208BF904230BD064C074D06E0E06832
:1009900040F0010394E8070098471034AC42F6D3C6
:1009A000FFF7CAFB5089000870890008202A04DB81
:1009B000203A00FA02F1002070479140C2F1200372
:1009C00020FA03F3194390407047202A06DBCB1727
:1009D000203A41FA02F043EAE07306E041FA02F3FA
:1009E000D040C2F12002914008431946704770B5CB
:1009F0008C1810F8015B15F0070301D110F8013BCA
:100A00002A1106D110F8012B03E010F8016B01F850
:100A1000016B5B1EF9D12B0705D40023521E0DD4A8
:100A200001F8013BFAE710F8013BCB1A921C03E0F6
:100A300013F8015B01F8015B521EF9D5A142D8D32E
:100A4000002070BDB0B5E1B14FF0000C02EB4C04DA
:100A500032F81C300CF1020C64888C4523F003033F
:100A600024F0030450F803E00559C55040F804E0B1
:100A700003440444D3F804E065685D60C4F804E00E
:100A8000E4D3B0BD2DE9F047B0F800A098469146F8
:100A90000C460746012A0ED1BAF1000F42D0261D9E
:100AA000554600BF31684FF00040FFF7D1FB46F8D4
:100AB000080B013DF6D1BAF1FF0F0CDDBAF5806FDE
:100AC00013DBBAF5805F27D0BAF5006F14D0BAF502
:100AD000806F1CD026E0BAF13F0F12DCBAF1100F84
:100AE00015D0BAF1200F07D01CE0BAF5807F03D0F3
:100AF000BAF5007F10D015E03846214600F084F9A1
:100B000010E0BAF1400F07D0BAF1800F0AD1384691
:100B1000214600F037F805E07A6820465146012367
:100B200000F034FDB8F1000F04D0BA68B98920464E
:100B3000FFF788FFB9F1010F22D15046FFF702FD00
:100B400001464FF07E50FFF7BBFBBAF1000F08BF24
:100B5000BDE8F087064600BFD4E900173046FFF72E
:100B60007DFB206030463946FFF778FB01464FF0A9
:100B70000040FFF76DFB60600834BAF1010AEBD169
:100B8000BDE8F0872DE9F04F9BB00288059101EB9D
:100B900082011491019040680021B1EBD20F0490C2
:100BA0004FEA5200029000F01D81D008029A059988
:100BB0004FF0000A404201EB82010391149901EBCE
:100BC000820113911290059D55F80A000A90149A1B
:100BD00052F80A1014460991FFF7E8FA139B05EB47
:100BE0000A0703EB0A0153F80AB04A681191089208
:100BF0008A68C9681A921791DDF80C9009EB0A0609
:100C000059F80A8071681591B1681691F1681891C8
:100C100004EB0A01CDF82CB0CDF8308019914A6868
:100C20008C68C96845F80A007868BD6807920E9418
:100C300010910690F8680D950F90FFF7B7FAF860DD
:100C400028462146FFF7B2FA079C069DB860284661
:100C50002146FFF7ABFA786040465946FFF7A6FAFF
:100C600049F80A00DDE91710FFF7A0FAF0601698BE
:100C70001A99FFF79BFADDF82080B060159841467D
:100C8000FFF794FA7060DDE90910FFF7E1FA074613
:100C900028462146FFF7DCFA049E0446384656F8FB
:100CA0000A904946FFF7DAFA06EB0A0B054620469A
:100CB000DBF804603146FFF7D1FA01462846FFF71A
:100CC00075FA149941F80A0020464946FFF7C6FA1A
:100CD000044638463146FFF7C1FA01462046FFF781
:100CE000B7FA19994860DDE90B01FFF7B1FA1599D8
:100CF00004464046FFF7ACFA054620463146FFF76A
:100D0000ADFA074628464946FFF7A8FA0146384695
:100D1000FFF79EFA139941F80A0028463146FFF77B
:100D20009DFA054620464946FFF798FA2946FFF7FF
:100D30003DFADDF84490C9F80400DDE90D01FFF744
:100D400087FA0646DDE90F01FFF782FADBE9028B3D
:100D500007464146FFF782FA044630465946FFF7F8
:100D60007DFA01462046FFF773FA199D4146E86077
:100D70003046FFF773FA044638465946FFF76EFAD5
:100D800001462046FFF712FAA8601A981699FFF755
:100D90005FFA0446DDE91701FFF75AFA594606469D
:100DA000FFF75CFA074620464146FFF757FA3946F7
:100DB000FFF7FCF9C9F80C00204659464F46FFF7EB
:100DC0004DFA044630464146FFF748FA01462046B0
:100DD000FFF73EFAC9F8080012980AF1100A01302C
:100DE0007FF4F0AE029C0598049A0223214600F09D
:100DF000CDFB019821460223426814981BB0BDE840
:100E0000F04F00F0C3BB00002DE9F04FB3B08346B4
:100E100000880C4662684FEA500A2D90206801EB6A
:100E20008A0858F82A102E912C902B92FFF7BEF9C1
:100E300054F82A1032903091FFF7B8F908EB8A0580
:100E400055F82A102F91FFF7B1F905EB8A01D5F873
:100E50000490D8F8047005914E68DBF80410CDF8C2
:100E600010B0206006914946DDF8ACB05846FFF757
:100E70009DF939463190FFF799F93146FFF796F918
:100E800060602C982E99FFF7E3F939462E90FFF712
:100E90008DF93146FFF7DCF944F82A0058464946F7
:100EA0002394FFF7D5F9DDF8C09004464946FFF7D3
:100EB000CFF9DDF8BCB05946FFF778F9C8F804005F
:100EC00032984946FFF7C4F95946FFF7C1F9CDF802
:100ED0000C8048F82A0039463198FFF7B9F93146B5
:100EE000FFF7B6F968602E983946FFF7B1F9314639
:100EF000FFF75CF945F82A00204649460295FFF7BE
:100F000055F95946FFF7A4F90599002700234FEA40
:100F10008A0548606FF0030000EB8A012B916FF0A7
:100F2000070101EB8A0230926FF001022D9E31938E
:100F30004FEACA0302EB9602A7EB52022E9200EB95
:100F4000CA022A9201EBCA02329201EB0A122F92D4
:100F500000EB0A1229920AEB4A0201EB820100EB34
:100F60008200970028912790B008002101902D91D0
:100F700000212C9187E100BFCDE91565DDF88C904B
:100F80002A9809EB00060C962B9809EB000A279883
:100F900009EB000112910968299809EB000507F196
:100FA00018001E95139002F110000F9004F1080034
:100FB00014970790DAF800000A9010910D92FFF74D
:100FC000F5F8316811902691FFF7F0F8296825911E
:100FD000FFF7ECF82F9F59F807200B922F97329EBE
:100FE00059F8062024923296289959F8011009914F
:100FF000309D59F80530CAF800001846089330951E
:10100000FFF7D4F859F806100E90FFF7CFF859F80B
:101010000710FFF7CBF849F805000798209DD0F896
:1010200000A028465146FFF719F9E468229F0646BA
:1010300038462146FFF712F901463046FFF7B6F869
:10104000C8F8000038465146FFF708F9064628461A
:101050002146FFF703F901463046FFF7F9F8CBF8D0
:101060000000DDE90801FFF7F3F8209005460A9833
:101070001099FFF7EDF822900646DDE92510FFF7FD
:10108000E7F8014610902846FFF790F8DDF89080C9
:10109000054630464146FFF7DBF8DDF82CB05946EF
:1010A000FFF784F821460646FFF7D8F8074628469A
:1010B0005146FFF7D3F801463846FFF7C9F80C99B7
:1010C000086028462146FFF7C9F8044630465146D5
:1010D000FFF7C4F82146FFF769F832991F9F49F8D6
:1010E00001000F98D0F800A038465146FFF7B6F837
:1010F00005460D98219C466920463146FFF7AEF81B
:1011000001462846FFF752F81899086020465146D4
:10111000FFF7A4F8054638463146FFF79FF8014629
:101120002846FFF795F8179908600E984146FFF793
:101130008FF85946FFF78CF8054611982699FFF766
:1011400087F82599FFF784F851460746FFF786F898
:1011500001464FF00040FFF77BF804462846314631
:10116000FFF77CF801462046FFF772F812990860F5
:1011700028465146FFF772F8044638463146FFF7D5
:101180006DF82146FFF764F8DDF8A0A0159C49F83A
:101190000A001398D0F8008020464146FFF75EF819
:1011A00006461498169FC56938462946FFF756F833
:1011B00001463046FEF7FAFF199908603846414665
:1011C000FFF74CF8064620462946FFF747F8014648
:1011D0003046FFF73DF81A99086010982099FFF7FC
:1011E00037F8249906465846FFF732F82299FFF758
:1011F0002FF829460746FFF731F8044630464146A6
:10120000FFF72CF801462046FFF722F81E990860E8
:1012100030462946FFF722F8044638464146FFF794
:101220001DF82146FEF7C2FF2F9949F801002B98BF
:1012300008382B903098083830902E9801302E9036
:101240002A9808382A903298083832905046AAF1E5
:10125000080028902798083827900846A1F1080030
:101260002F902998083829903198083031902D987E
:1012700010302D902C9818302C901B9F1D9B1C9D7E
:10128000083708330835239C319904EB010AE61826
:10129000DAF80800DAF80C9022901D93159656F8AB
:1012A000081F2091FEF782FF04EB050826901C958D
:1012B000CDF8508058F8081F2591FEF777FF1B974F
:1012C0002744169757F8081F2491FEF76FFF1997C8
:1012D00057F8041FC3465BF8045F1E91189656F832
:1012E000044FCAF80800484621461796FEF75EFFED
:1012F000DBF800102190FEF759FF39681A97FEF7C6
:1013000055FFCAF80C0022982099FEF7A1FF294644
:101310000646AA46FEF74AFF1E9D2946FEF798FF9D
:10132000209048462146FEF793FF259F0446394604
:10133000FEF78EFFDDF890904946FEF737FF2290CA
:1013400039462698FEF784FF4946FEF781FF1F9035
:1013500051462198FEF77CFF2946FEF779FF219040
:1013600030465146FEF774FF2946FEF71FFF06463A
:1013700020463946FEF71AFF4946FEF769FF054643
:1013800006982C9947182D994218319944182E988F
:1013900000287FF4F1ADD4E9029492463294494694
:1013A0002298FEF75BFFDDF880B080462146584664
:1013B000FEF754FF01464046FEF74AFFDDF8508035
:1013C0004946C8F80C005846FEF748FF04462298E4
:1013D0003299FEF743FF01462046FEF7E7FEC8F8C4
:1013E0000800DAE9048ADDF884B058464146FEF781
:1013F00035FF1F9C814651462046FEF72FFF0146D0
:101400004846FEF725FFDDF854904146C9F80C0028
:101410002046FEF723FF804658465146FEF71EFF42
:1014200001464046FEF7C2FEC9F808002846D7E943
:1014300006482146FEF712FF074630464146FEF7B2
:101440000DFF01463846FEF703FF169F2146F86060
:101450003046FEF703FF044628464146FEF7FEFEEF
:1014600001462046FEF7A2FE019DB8602398069A29
:101470000423294600F08AF8049C03982946042393
:10148000626800F083F8626802982946042300F03D
:101490007DF8626805982946042333B0BDE8F04F13
:1014A00000F074B82DE9F04381B005460020904665
:1014B0000C46B0EB920F4CD04FEA9800C0F10009F7
:1014C000D5E900070146FEF7C9FE0646384639460B
:1014D000FEF7C4FE01463046FEF768FE04F0BAF897
:1014E0002060D5E902060146FEF7B8FE0746304601
:1014F0003146FEF7B3FE01463846FEF757FE04F0CC
:10150000A9F86060D5E904060146FEF7A7FE074684
:1015100030463146FEF7A2FE01463846FEF746FE4B
:1015200004F098F8A060D5E906060146FEF796FE9D
:10153000074630463146FEF791FE01463846FEF733
:1015400035FE04F087F8E0601034203519F1010908
:10155000B6D118F0030016D0474200BFD5E9000607
:101560000146FEF77BFE804630463146FEF776FEAA
:1015700001464046FEF71AFE04F06CF844F8040BEE
:1015800008350137EAD101B0BDE8F0832DE9F04F0D
:10159000C3B00C460392CDE901031891E208DDF8CF
:1015A00004B0E600D5000592A5EBD4002095C0005C
:1015B000429010011D905001199002EB420002EB85
:1015C0008202C300070100201C93D300CDE91A64F6
:1015D000CDE91E734190DDF86490DDE91C785BF87D
:1015E00005005BF8031035903691FEF7DFFDDDF85E
:1015F00008A104462F905BF807005BF80A103490AE
:101600003391FEF7D3FD01462D902046FEF7CEFD27
:1016100006465BF80910DBF8000038913790FEF7BA
:10162000C5FD1E9904462B905BF808005BF801107D
:101630003D903C91FEF7BAFD01462A902046FEF708
:10164000B5FD31460446FEF7B1FDCBF8000020465B
:101650003146FEF7FDFD4BF80900209858444268DA
:101660003E901F9858443192416840901046309106
:10167000FEF79CFD0BEB0A01044626900BEB0700DE
:101680003F9040683B9149682E902C91FEF78EFD6B
:10169000824620465146FEF789FD0BEB09040746BA
:1016A000DBF804000BEB08066168279639903A9145
:1016B000FEF77CFD80461E98726858442992416866
:1016C000289010463291FEF771FD0646404631469D
:1016D000FEF76CFD39468146FEF768FDCBF8040045
:1016E00048463946FEF7B4FD606026985146FEF73D
:1016F000AFFD0746DDE92A10FEF7AAFD394604468C
:10170000FEF754FD1D994BF8010020463946FEF7BF
:101710009FFD1E994BF801002F982D99FEF798FD1B
:10172000044640463146FEF793FD21460546FEF746
:101730008FFD2799486020462946FEF737FD2899F6
:101740004860DDE93501FEF783FD36900446DDE9AA
:101750003310FEF77DFD014635902046FEF778FDFB
:1017600040F2F341C3F63571FEF778FD0446DDE93A
:101770003010FEF76DFD054634902E982C99FEF73B
:1017800067FD814628464946FEF710FD40F2F341C9
:10179000C3F63571FEF762FD0546DDE93701FEF758
:1017A00057FD21460646FEF701FD07462998329966
:1017B000FEF74EFD29468046FEF7F8FC8246384685
:1017C0005146FEF7F3FC20994BF80100384640F2F1
:1017D000F3475146C3F63577FEF73AFD42994BF889
:1017E000010030462146FEF733FD044640462946B7
:1017F000FEF72EFD054620462946FEF7D7FC1F9929
:101800004BF8010020462946FEF722FD1C994BF8B3
:101810000100DDE93510FEF7C9FC3946FEF71EFD73
:10182000804634984946FEF713FD3946FEF716FD0B
:101830008146DDE93C10FEF70BFD41460646FEF70A
:10184000B5FC0746DDE93901FEF702FD49460446CD
:10185000FEF7ACFC39460546FEF7FAFC3E994860B7
:1018600038462946FEF7A2FC3B994860304641467F
:10187000FEF7EEFC054620464946FEF7E9FC294600
:101880000446FEF7E5FC4099486028462146FEF7ED
:101890008DFCDDE91F35DDE91A643F9A1899506027
:1018A0004198B34420448842FFF494AE402CC0F0E9
:1018B000AD820298DDF804C000244FF0010B80B225
:1018C00004900598C0EBC0004FEAC008CDF8248012
:1018D0000498039EE146CDF81CB0CDF8189004445E
:1018E00056F83400C4EBC40E04EB840C620104EB24
:1018F00044010894179056F83E00169056F83C00A4
:101900001590B0580432B258149056F83100119224
:1019100013902001021D3758B058E200043212978C
:101920004F461090B0580A010F90B0580E904FEAF1
:10193000CE00043030580D90101D30580C904FEAF6
:10194000CC00043030580B90C800043030580A9056
:10195000FA187819CDF800B14297419080689168E3
:1019600091463E9235903691FEF720FC04462A902F
:1019700042981C9900EB010B4298DBF80820CDF847
:10198000FCB000EB080ADAF8081010463392CDF8E4
:10199000F4A03491FEF70AFC01462B902046FEF796
:1019A00005FC0746239042981999084481682190C4
:1019B0004298826842983891D0F80C80104637924D
:1019C000CDF8E880FEF7F2FB054629901D98429974
:1019D0000C1842981E99A26827944618B1681046C0
:1019E0003C922C963B91FEF7E1FB0146289028465D
:1019F000FEF7DCFB39462290FEF7D8FB429988605F
:101A00004198D9F80C10C0682F913090FEF7CEFBAA
:101A10000546DBF80C00DAF80C102E902D91FEF73D
:101A2000C5FB014626902846AA46FEF7BFFBDDF817
:101A3000849005464046D9F80C103991FEF7B6FB64
:101A4000F16807462590E06832903191FEF7AEFBD1
:101A5000014624903846FEF7A9FB29460746FEF7C3
:101A6000A5FB4299C860DDE92201FEF7F1FB0446BF
:101A700038462946FEF7ECFB149E8346594630460D
:101A8000FEF7ECFB119D074621462846FEF7E6FBD4
:101A900001463846FEF7DCFBC9F80C00304621460B
:101AA0004F46FEF7DBFB044628465946FEF7D6FBB9
:101AB00001462046FEF77AFBC9F80800DDE92A0155
:101AC000FEF7C6FB269905462B905046FEF7C0FB55
:101AD0008146DDE92810FEF7BBFB49468046FEF74C
:101AE00065FB0446DDE92410FEF7B2FB2946824679
:101AF000FEF7AEFB129F064631463846FEF7AEFBB8
:101B0000DDF840B0054621465846FEF7A7FB0146E2
:101B10002846FEF79DFB279D2146E8603846FEF7E4
:101B20009DFB044658463146FEF798FB2146FEF7DA
:101B30003DFBA86040464946FEF78AFB04462B98C9
:101B40005146FEF733FB0E9F804641463846FEF76E
:101B500085FB0C9D064621462846FEF77FFB014685
:101B60003046FEF775FB2C9E2146F0603846FEF7A6
:101B700075FB044628464146FEF770FB2146FEF7FA
:101B800015FBB060DDE93501FEF762FB8046DDE95B
:101B90003301FEF75DFB834640465946FEF758FB8E
:101BA00040F2F34AC3F6357A5146FEF757FB3690BA
:101BB0000446DDE92F10FEF74BFB0646DDE92D104C
:101BC000FEF746FB074630463946FEF7EFFA514628
:101BD000FEF744FB35900546DDE93701FEF738FB9B
:101BE00021463890FEF7E2FA30900446DDE93110E4
:101BF000FEF72EFB29463790FEF7D8FA01463290C1
:101C00002046FEF7D3FA814640465946FEF7CEFA03
:101C10005146FEF723FB0446349030463946FEF722
:101C200017FB5146FEF71AFB33900546DDE93B10E2
:101C3000FEF70EFB21463C90FEF7B8FA0646DDE9BA
:101C40003910FEF705FB29463B90FEF7AFFA314607
:101C50000746FEF7FDFA179D824651462846FEF7D5
:101C6000FDFADDF83CB0044649465846FEF7F6FA60
:101C700001462046FEF7ECFADDF804814946C8F833
:101C80000C002846FEF7EAFA044658465146FEF78D
:101C9000E5FA01462046FEF789FAC8F808003098B0
:101CA0003299FEF7D5FA044630463946FEF77EFAF9
:101CB000169D804641462846FEF7D0FA0D9E0746FF
:101CC00021463046FEF7CAFA01463846FEF7C0FA0A
:101CD0003D9F2146F8602846FEF7C0FA044630468C
:101CE0004146FEF7BBFA01462046FEF75FFAB860B0
:101CF00038983699FEF7ACFA0446419037983599F2
:101D0000FEF7A6FA01463D902046FEF74FFA074639
:101D10003C983499FEF79CFA82463B983399FEF73B
:101D200097FA51468346FEF793FA159D06463146CB
:101D30002846FEF793FADDF82C80044639464046E3
:101D4000FEF78CFA01462046FEF782FADDF8F8909D
:101D50003946C9F80C002846FEF780FA044640468A
:101D60003146FEF77BFA01462046FEF71FFAC9F816
:101D7000080041983D99DDF82480FEF769FA044691
:101D800050465946FEF712FA139F83465946384685
:101D9000FEF764FA0A9D064621462846FEF75EFADB
:101DA00001463046FEF754FA3F9E2146F060384621
:101DB000FEF754FA044628465946FEF74FFA014604
:101DC0002046FEF7F3F9DDF800B1429FDDE91F354B
:101DD0001B9AB0601A981899934407448B45FFF4F6
:101DE000B7ADDDF81CB0DDF818C00598089C0BF104
:101DF000010B0CF1080C8345FFF46AAD0298059CB9
:101E00003F2A4FEAC00002903FF6C8AB43B0BDE89E
:101E1000F08F000070B5044600688168C943C907A7
:101E200017D1816821F00101816000F0B3FD054602
:101E30000AE000BF00F0AEFD401B022804D9206874
:101E40008068C043C00706D020688068C043C007D0
:101E5000F0D0002070BDA06A40F01000A062E06ADF
:101E600040F00100E062012070BD10B50146406AFB
:101E7000826A12F0500F05D0006A026BBDE8104074
:101E800008461047816A41F40071816201688968DF
:101E9000C1F3424107290CD1017B51B9816A21F478
:101EA00080718162816AC90403D4816A41F00101B1
:101EB000816200F061F910BD10B5406A816A41F09D
:101EC00040018162C16A41F00401C16200F056F92B
:101ED00010BD10B5406A00F050F910BDF8B50026ED
:101EE0000446009600688168C943C9072DD08168FF
:101EF00041F001018160164816490068B0FBF1F01D
:101F000000E0401E00900028FBD100F043FD054694
:101F100016E000BF00F03EFD401B022810D92068EB
:101F20008068C043C0070BD0A06A40F01000A062D8
:101F3000E06A40F00100E06284F824600120F8BD0E
:101F400020688068C043C007E4D10020F8BD0000CD
:101F5000AC01002040420F00FEE7000010B503482E
:101F600000F06AFA02490120087010BDF05100200B
:101F70000000002030B590F840500124AC40C56B03
:101F80006C60046863604368102B036803D0996039
:101F90000068C26030BD9A600068C16030BD7047A3
:101FA00072B6FEE7F8B500250446009590F82400C7
:101FB00001280BD0012084F824002046FFF72AFFD7
:101FC0002046FFF78BFF060002D050E00220F8BD4C
:101FD000A06A20F4885040F00200A062022000F0C5
:101FE00001FF25490968B1FBF0F0400000E0401E08
:101FF00000900028FBD12068816841F008018160D1
:1020000000F0C8FC074608E000F0C4FCC01B0A282A
:1020100003D920688068000715D42068806800070D
:10202000F2D42068816841F00401816000F0B2FCC4
:10203000074612E000F0AEFCC01B0A280DD920684C
:102040008068400709D5A06A20F0020040F0100027
:10205000A06284F824500120F8BD20688068400701
:10206000E8D4A06A20F0020040F00100A06284F8E9
:1020700024503046F8BD0000AC010020F8B5002423
:10208000009490F824202546012A12D0012280F8DD
:1020900024204A681F23072A0DD20668776B521E38
:1020A00002EB820293409F430B6893401F43776388
:1020B00019E00220F8BD06680D2A0AD2376BD21F3C
:1020C00002EB820293409F430B6893401F433763A8
:1020D00009E0F76A0D3A02EB820293409F430B68D6
:1020E00093401F43F7620A68072306680A2A0AD347
:1020F000F7680A3A02EB420293409F438B68934091
:102100001F43F76008E0376902EB420293409F43A8
:102110008B6893401F4337610A68102A01D0112A47
:1021200020D1124B02689A4217D193681B0219D42E
:10213000936843F4000393600968102912D10C4995
:102140000C4A0968B1FBF2F101EB8101490000E0A2
:10215000491E00910029FBD104E0816A41F0200171
:102160008162012480F824502046F8BD00240140FB
:10217000AC01002040420F007047704770470000DC
:102180002DE9F04104004FF000057FD0A06A002641
:1021900028B9E66284F82460204600F081F82046E1
:1021A000FFF738FEA16AC90600D420B1A06A40F04A
:1021B0001000A0626AE0A16A21F4885141F0020196
:1021C000A162334923688B42E16904D1B1F5402F04
:1021D00001D14FF40021277B4FF4807C41EA470274
:1021E00061680A43A168614508D0012906D0002131
:1021F00094F814E0BEF1010F02D00AE06146F7E75F
:10220000C7B1A76A47F02007A762E76A47F001074E
:10221000E7625F6827F469470F435F602368996846
:102220001C4F394011439960A16861450BD00129C9
:1022300009D00CE0DFF860E0A7690EEB47370F43E9
:1022400047F40061E5E7218A0D05A5F580152168B1
:10225000CB6A23F470032B43CB62216889680F4B50
:102260001940914208D1E662A16A21F0020141F0D1
:102270000101A162BDE8F081A06A20F0020040F0F7
:102280001000A062E06A40F00100E0620120F1E786
:10229000003C0140FDF7E1FF00E0FFFFFE0E1FFFE5
:1022A00070B586B000250646009501950295039508
:1022B0000068194988422DD11849886940F4007096
:1022C0008861886900F400700490886940F0040017
:1022D00088618869694600F00400049060200090DD
:1022E000032001900E4800F053FA0F4C0D48C4E94A
:1022F00000058020C4E90250800020618000C4E90C
:1023000005052046E56100F0BBF908B1FFF748FE7E
:102310003462666206B070BD0024014000100240C5
:102320000008014008000240F05100202DE9F0476C
:10233000894604463B4900683B4F0E1D9046884243
:1023400001D0B84207D1306810F4702F03D00125B6
:102350002846BDE8F08794F8240001280CD001201D
:1023600084F824002046FFF7B9FD05004FF0000077
:1023700004D084F82400EBE70220EAE7A16A40F6E3
:102380000162914341F48071A1622168B94218D180
:10239000326812F4702F14D0A16A41F48011A16246
:1023A0003168490505D5A16A21F4005141F48051F5
:1023B000A162A16AC9040AD5E16A21F00601E162BD
:1023C00006E0A26A22F48012A2624968E9E7E062AC
:1023D00084F82400216A15488862216A1448C8627A
:1023E000216A1448086321686FF0020008602068C1
:1023F000816841F480718160216843464A464C31CE
:10240000206A00F07BF920688168C1F34241072906
:10241000816803D041F48011816099E741F4A00103
:10242000FAE7000000240140002801406B1E00086C
:10243000D31E0008B91E00082DE9F05FC16B0A68C1
:1024400001680B68046C4FF0040808FA04F8844D26
:10245000844E854FDFF814C2DFF81492DFF814A21F
:10246000DFF814B2DFF814E218EA020F65D05FEA71
:10247000437862D50A68920603D40A6822F00402FF
:102480000A60DFF8F0814FF48062016808F11408F7
:1024900013011402414524D9A9420DD0B1420FD0F5
:1024A000B9421AD0614515D0494515D0514501D1E1
:1024B000120312E0594501D104220EE0714501D109
:1024C00040220AE06D4D1435A94206D06B4A2832ED
:1024D000914201D11A4600E022466749091F0A606D
:1024E00029E0A94213D0B14215D0B94220D06145AC
:1024F0001BD049451BD0514502D14FF4800217E053
:10250000414502D14FF0806212E0594501D10422C9
:102510000EE0714501D140220AE0584D1435A94220
:1025200006D0564A2832914201D11A4600E022468E
:102530004B4908394A60C16A71E04FF0020808FA55
:1025400004F818EA020F70D05FEA83786DD50A6844
:10255000920606D40A6822F00A020A60012180F875
:102560002110DFF810814FF40072016808F114089F
:1025700013011402414524D9A9420DD0B1420FD014
:10258000B9421AD0614515D0494515D0514501D100
:10259000120312E0594501D102220EE0714501D12A
:1025A00020220AE0354D1435A94206D0334A28329C
:1025B000914201D11A4600E022462F49091F0A60C4
:1025C00029E0A94213D0B14215D0B94220D06145CB
:1025D0001BD049451BD0514502D14FF4001217E0E2
:1025E000414502D14FF0007212E0594501D102225B
:1025F0000EE0714501D120220AE0204D1435A94298
:1026000006D01E4A2832914201D11A4600E02246E5
:10261000134908394A60002180F82010816A002996
:102620001CD0BDE8F05F0847FFE70825A54015422C
:1026300014D01A0712D50A6822F00E020A6090F828
:102640004020C36B012101FA02F25A60816380F8D5
:102650002110002180F82010016BE0E7BDE8F09F19
:10266000080002401C0002403000024044000240CA
:10267000580002406C000240080402401C04024062
:1026800030B560B11A4B026814219A4209D2194B35
:102690001344B3FBF1F18900016417490AE00120FA
:1026A00030BD134B5B421344B3FBF1F1890001646D
:1026B0000F490839C163022180F82110136843F6DD
:1026C000F0718B43F0E901142143D0E902452C431A
:1026D0002143046921434469214384692143194307
:1026E000116000214163012242770177084630BD25
:1026F00008040240F8FFFDBF0000024070B5044628
:1027000090F82000002501280CD0012084F820003A
:1027100094F821600020012E06D084F820000225C4
:10272000284670BD022070BD022684F82160A06397
:102730002068066826F0010606602046FFF71AFCAE
:10274000E06A00282068016802D041F00E0106E02E
:1027500021F0040101602068016841F00A01016074
:102760002068016841F001010160D9E770B50446B5
:1027700000F010F90546601C02D0044800780444BB
:1027800000F008F9401BA042FAD370BDA001002060
:102790002DE9F84FDFF8C8910024A9F1040B234676
:1027A0000F2709F1040AABF1040ED1E00125A54081
:1027B00006EA0502AA4276D1DFF8A8C14E68A6EB68
:1027C0000C0866452BD00DDC032E34D005DC36B367
:1027D000012E19D0022E2FD11BE0112E16D0122E51
:1027E0002AD119E0B8F5881F19D006DCB8F5803F6A
:1027F00015D0B8F5801F1FD111E0B8F5001F0ED01D
:10280000B8F5041F18D10AE0CB6815E0CB681B1D92
:1028100012E0CB6808330FE0CB680C330CE08B6818
:102820002BB1012B4FF0080303D0456104E00423D2
:1028300002E0056100E00023FF2A01D8064601E01E
:1028400000F104064FEA840501D9A5F12005D6F868
:10285000008007FA05FC28EA0C0803FA05F548EAA7
:102860000508C6F800804D68ED0070D53E4DAE6994
:1028700046F00106AE61AD6924F0030605F00105DE
:1028800000953A4D06EB050CDCF80850A607360F0C
:1028900007FA06F825EA0805DFF8D480404503D199
:1028A0004FF0000825E052E0DFF8C880404502D133
:1028B0004FF001081DE0DFF8C080404502D14FF025
:1028C000020816E0DFF8B480404502D14FF003085B
:1028D0000FE0DFF8AC80404502D14FF0040808E07B
:1028E000DFF8A080404502D14FF0050801E04FF02D
:1028F000060808FA06F848EA0508CCF808804D688A
:10290000D9F80060ED024D4601D5164300E096432C
:102910002E604D68DAF80060AD02554601D51643C9
:1029200000E096432E604D68DBF80060AD035D4625
:1029300001D5164300E096432E604D68DEF8006036
:10294000ED03754601D5164300E096432E60641CE6
:102950000A681646E2407FF429AFBDE8F88F000010
:102960000804014000001110001002400000014066
:1029700000080140000C014000100140001401401B
:1029800000180140001C01400AB1016170470904B0
:10299000FBE700000148806870470000A0010020AC
:1029A00070B5040025D094F83D00002520B984F8C6
:1029B0003C50204600F04EF9242084F83D00206869
:1029C000016821F0010101602068016841F40041C3
:1029D00001602068016821F40041016000F06AFB99
:1029E0004D4A6168914201D84C4900E04C49884207
:1029F00001D2012070BD4B492368B0FBF1F15E6844
:102A000026F03F060E435E606368934206D94FF49A
:102A1000967359434FF47A73B1FBF3F12368491C61
:102A20001E6A26F03F06314319626168914210D850
:102A30004900401EB0FBF1F2521CC2F30B02042A03
:102A400001D2042022E0B0FBF1F0401CC0F30B00E7
:102A50001CE0A268F2B301EBC10303EB0116431EB5
:102A6000B3FBF6F35B1C43F480431B0549D092B3E0
:102A700001EBC10202EB0111401EB0FBF1F0401C62
:102A8000C0F30B0040F4804040F400402168CA6964
:102A90004CF6FF739A431043C861D4E90710014311
:102AA0002068026822F0C00211430160D4E90301EA
:102AB00001432068826848F2FF339A4311438160E2
:102AC000D4E9050108432168CA6822F0FF021043D7
:102AD000C86001E00EE016E02068016841F00101E5
:102AE00001602564202084F83D00256384F83E5071
:102AF000002070BD01EB4106431EB3FBF6F35B1CE7
:102B0000B3E70120C2E701EB4101401EB0FBF1F049
:102B1000401CC0F30B00B7E7A086010080841E00B4
:102B200000093D0040420F002DE9F84F1F46904636
:102B30008A460446DDF82890FFF72CFF054694F8F6
:102B40003D0020287FD119230122404920460095CD
:102B500001F09AF9002876D194F83C00012872D04F
:102B6000012084F83C0020680168C90703D101688E
:102B700041F0010101602068016821F400610160F9
:102B8000212084F83D00102084F83E0000262664B1
:102B9000C4F824806785608D20852D48E0622B462F
:102BA0004A465146204601F0F5F890B9206841693F
:102BB0008069009036E02A464946204601F00AFA2C
:102BC00050B1206C042804D12068016841F40071E0
:102BD00001600120BDE8F88F606A21680078086113
:102BE000606A401C6062618D491E6185218D491EAD
:102BF00089B2218522685369DB435B070BD451B14D
:102C000000781061606A401C6062608D401E6085C3
:102C1000208D401E20852A464946204601F008F9AD
:102C20000028CED1208D0028C5D154F83D0B016875
:102C300041F400710160202004F81E09E6776677F0
:102C40000020C7E7FFE70220C4E7000002001000F1
:102C50000000FFFF10B586B00021009101910291A4
:102C600003910068104988421BD1104CA06940F0C4
:102C70000800A061A069694600F0080004904FF4C4
:102C80004060009012200190032003900848FFF755
:102C90007FFDE06940F48000E061E06900F48000BD
:102CA000049006B010BD0000005800400010024023
:102CB000000C01400248816802781144816070472D
:102CC000A0010020074810B5016841F01001016023
:102CD000032000F075F80F2000F006F800F024F84B
:102CE000002010BD0020024070B50D4D04464FF489
:102CF0007A712878B1FBF0F00A490968B1FBF0F06D
:102D000000F0AEFB48B9102C07D200222146501E1D
:102D100000F036F800206C6070BD012070BD00002E
:102D2000A0010020AC0100200C4808B5816941F0E9
:102D300001018161816901F001010091C16941F0E6
:102D40008051C161C06900F0805000900448416822
:102D500021F0E06141F00071416008BD00100240C7
:102D600000000140002809DB00F01F020121914012
:102D70004009800000F1E020C0F800117047000019
:102D8000F0B40E4B1B680C46C3F30223C3F10705D6
:102D9000042D00D90425191D072901D2002300E0C4
:102DA000DB1E012606FA05F1491E214099409E408E
:102DB000761E16403143F0BC01F0A0BE0CED00E0E1
:102DC000064900F0070208684FF6FF03184040EA82
:102DD0000220034A10430860704700000CED00E039
:102DE0000000FA0510B501460020284C04292FD018
:102DF0000BDC012930D0022929D100F06BF9616880
:102E0000C1F38131491C49001FE0082920D0102955
:102E10001DD161682268D20119D51D48C1F38342D2
:102E2000C903805C0AD56168194AC1F34041921E0A
:102E3000515C184AB2FBF1F1484301E0164948439E
:102E40006168490203D440000321B0FBF1F010BDDA
:102E5000BDE8104000F04EB9226AC2F301210129F9
:102E600003D1920701D5C80310BD022905D1626ABA
:102E7000920702D549F6404010BD0329FCD12168D4
:102E80008903F9D54FF2244010BD00000010024024
:102E90009456000800127A0000093D002DE9F8431D
:102EA00005460078354CC00754D0E0690026C000C4
:102EB00008D4E06940F08050E061E069012600F04C
:102EC000805000902E480168C90512D401688046E0
:102ED00041F480710160FFF75DFD074605E000BF2A
:102EE000FFF758FDC01B642823D8D8F80000C005A0
:102EF000F6D5206A10F4407021D0A98801F4407101
:102F000081421CD0206A1F49012220F440700A60CF
:102F100000220A602062C00711D0FFF73BFD074680
:102F200041F2883808E000BFFFF734FDC11B41457E
:102F300002D90320BDE8F883206A8007F4D5206A0F
:102F4000696820F44070084320621EB1E06920F0F7
:102F50008050E0612878800705D56068A96820F472
:102F60004040084360602878C00605D560686969FC
:102F700020F48000084360600020DBE7001002407E
:102F800000700040400442422DE9F0470F46050022
:102F900061D0434E306800F00700B84209D2306873
:102FA00020F0070038433060306800F00700B84276
:102FB00051D128683B4C810712D5400703D5606882
:102FC00040F4E06060602878000703D5606840F452
:102FD000605060606068A96820F0F000084360609D
:102FE0002878C00728D06868012810D021680228F6
:102FF00010D0890700292EDA616821F0030101430E
:103000006160FFF7C7FC804641F288390DE0216816
:103010008903EFE78901EDE7FFF7BCFCA0EB0801AE
:10302000494502D90320BDE8F0876068696800F06F
:103030000C00B0EB810FEFD1306800F00700B84210
:103040000BD9306820F0070038433060306800F05A
:103050000700B84201D00120E5E72878400705D5F0
:103060006068E96820F4E060084360602878000741
:1030700006D56068296920F4605040EAC1006060AC
:1030800000F038F86168084AC1F30311515CC84088
:103090000649086006480068FFF726FE0020C2E7E0
:1030A0000020024000100240A4560008AC0100209D
:1030B000A40100200448054900684968044AC1F396
:1030C0000221515CC8407047AC0100200010024052
:1030D000B45600080448054900684968044AC1F329
:1030E000C221515CC8407047AC0100200010024072
:1030F000B45600080E4A51680E4801F00C03042B28
:1031000011D0082B0FD10C48C1F38343C903C05C15
:103110000AD55168084AC1F34041921E515C054AE4
:103120005043B0FBF1F0704704494843704700003A
:103130000010024000127A008256000800093D008B
:103140002DE9F84F040070D02078C04DC00749D059
:103150006868C0F38100012807D06868C0F3810067
:10316000022809D16868C00306D52868800339D5CC
:1031700060680028E7D035E06068B0F5803F0BD08C
:1031800010B1B0F5A02F11D0286820F4803028604D
:10319000286820F4802002E0286840F4803028600D
:1031A000606890B1FFF7F6FB06460AE0286840F435
:1031B00080202860F0E700BFFFF7ECFB801B64284D
:1031C00073D828688003F7D50CE0FFF7E3FB0646C9
:1031D00005E000BFFFF7DEFB801B6428F0D82868FD
:1031E0008003F7D420789A4E80074FF001094FF002
:1031F000000839D5686810F00C0F07D06868C0F374
:103200008100022809D16868C00306D428688007B5
:1032100014D52069012808D110E02069B0B1C6F8A2
:103220000090FFF7B7FB074605E00AE1FFF7B2FBA6
:10323000C01B0228C4D828688007F7D528686169B0
:1032400020F0F80040EAC10028600DE0C6F80080D8
:10325000FFF7A0FB074604E0FFF79CFBC01B02281A
:1032600023D828688007F7D4207800072CD5794820
:10327000A169D9B1C0F80090FFF78CFB074604E0C4
:10328000FFF788FBC01B02280FD8686A8007F7D5B4
:1032900071484FF4FA510068B0FBF1F0009000BFA4
:1032A0000098411E0091FAD20EE080E0C0F8008044
:1032B000FFF770FB074604E0FFF76CFBC01B02281A
:1032C00075D8686A8007F7D42078400760D5E86928
:1032D0000027C00008D4E86940F08050E861E86940
:1032E000012700F0805000905C480168C90513D4A4
:1032F0000168834641F480710160FFF74BFB824611
:1033000006E000BFFFF746FBA0EB0A0064284ED89A
:10331000DBF80000C005F5D5E06801280AD008B147
:10332000052813D0286A20F001002862286A20F0BE
:10333000040002E0286A40F001002862E06841F2DF
:10334000883B98B1FFF726FB82460BE0286A40F0E5
:1033500004002862EEE700BFFFF71CFBA0EB0A01A8
:1033600059455AD8286A8007F6D50CE0FFF712FBBA
:10337000824605E0FFF70EFBA0EB0A0159454CD849
:10338000286A8007F6D41FB1E86920F08050E86110
:10339000E06988B36968C1F38101022944D0022839
:1033A000C6F8608004D0FFF7F5FA044638E034E050
:1033B000FFF7F0FA074604E0FFF7ECFAC01B02281B
:1033C0002BD828688001F7D4206AB0F5803F05D15A
:1033D0006868A16820F4003008436860D4E90801F7
:1033E0000843696821F4741108436860C6F8609066
:1033F000FFF7D0FA044606E025E000BFFFF7CAFA5F
:10340000001B022809D828688001F7D51BE000BFFF
:10341000FFF7C0FA001B022802D90320BDE8F88F8D
:1034200028688001F4D40EE00128F7D06868226A89
:1034300000F48031914204D1616A00F47010884236
:1034400001D00120EAE70020E8E700000010024078
:103450000000424280044242AC0100200070004063
:1034600010B5401EB0F1807F01D3012010BD4FF098
:10347000E02460610F21601701F040FB0020A06193
:1034800007202061002010BD7047704710B590F8EC
:103490003C20012A22D0012280F83C20CA688C6896
:1034A00022F4407222434C6822F4806222430C686A
:1034B00022F4006222430C6922F4805222434C69B8
:1034C00022F400522243C969002322F480420A43B5
:1034D00001684A6480F83C30002010BD022010BD15
:1034E00070B590F83C20012A2CD0012480F83C4093
:1034F000022280F83D2003685A689D6822F0700619
:103500000A6832435A60104B02689A420ED00F4B41
:103510009A420BD0B2F1804F08D00D4B9A4205D0A1
:103520000C4B9A4202D00C4B9A4204D1496825F0C8
:1035300080031943916080F83D40002180F83C10E1
:10354000084670BD022070BD002C014000340140CF
:103550000004004000080040000C004010B5044684
:10356000022249B104290ED0082913D094F845004D
:10357000012816D0012010BD94F842000128F9D18D
:1035800084F842200FE094F843000128F2D184F837
:10359000432008E094F844000128EBD184F844204B
:1035A00001E084F845200422206801F0E6F8206854
:1035B000416C41F4004141640E49206888420ED0BC
:1035C0000D4988420BD0B0F1804F08D00B4988429A
:1035D00005D00B49884202D00A49884204D181684B
:1035E00001F00701062903D0016841F001010160E3
:1035F000002010BD002C01400034014000040040B8
:1036000000080040000C004010B5040003D094F8FE
:103610003D0010B107E0012010BD002084F83C00FF
:10362000204600F01FF8022084F83D00211D20688C
:1036300001F050F8012084F8460084F83E0084F838
:103640003F0084F8400084F8410084F8420084F888
:10365000430084F8440084F8450084F83D000020CD
:1036600010BD000008B5154A0168154891420ED1F9
:10367000816941F4006181618069002200F4006089
:10368000009011461920FFF77BFB192010E00D4A2E
:10369000914211D1C16941F00201C161C0690022AA
:1036A00000F00200009011461D20FFF769FB1D206D
:1036B000BDE80840FFF756BB08BD0000002C0140E4
:1036C000001002400004004090F83D10012901D094
:1036D00001207047022180F83D100168CA6842F05D
:1036E0000102CA6000680E4988420ED00D49884226
:1036F0000BD0B0F1804F08D00B49884205D00B4960
:10370000884202D00A49884204D1816801F0070149
:10371000062903D0016841F00101016000207047D3
:10372000002C01400034014000040040000800402B
:10373000000C004070B5044690F83C0000250128BC
:1037400017D0012684F83C60022084F83D002068F0
:10375000826822F0770222F47F4282600868502853
:1037600038D00DDC20284FD005DC90B3102811D1C3
:103770004AE0022070BD302846D040280AD13BE004
:1037800060282FD070280DD0B0F5805F03D0B0F541
:10379000005F12D0012584F83D60002084F83C00D1
:1037A000284670BDCB68D1E90121206800F0F2FF06
:1037B0002068816841F0770109E0CB68D1E90121F7
:1037C000206800F0E7FF2068816841F48041816053
:1037D000E1E719E0CA684968206801F0AFF85021B4
:1037E000206806E0CA684968206801F0B8F86021DE
:1037F000206800F0D9FFCEE7CA684968206801F068
:103800009DF840212068F4E7226801461046F0E761
:10381000704770B50446006801694FF00005C94360
:10382000890715D4C168C943890711D4E91E01610C
:1038300001202077206880698007204602D0FFF7AA
:10384000E7FF04E000F0CAF8204600F05CF92577B5
:1038500020680169C943490717D4C168C9434907AA
:1038600013D46FF004010161022020772068806981
:1038700010F4407F204602D0FFF7CAFF04E000F0BA
:10388000ADF8204600F03FF9257720680169C9436B
:10389000090716D4C168C943090712D46FF008019B
:1038A0000161042020772068C0698007204602D08B
:1038B000FFF7AEFF04E000F091F8204600F023F996
:1038C000257720680169C943C90617D4C168C9436F
:1038D000C90613D46FF01001016108202077206819
:1038E000C06910F4407F204602D0FFF791FF04E04A
:1038F00000F074F8204600F006F925772068016989
:10390000C943C90708D1C168C943C90704D1891E81
:103910000161204600F052F920680169C943090697
:1039200009D4C168C943090605D46FF0800101615B
:103930002046FFF7A9FD20680169C943490609D45B
:10394000C168C943490605D46FF0400101612046B2
:1039500000F04EF920680169C94389060BD4C1689B
:10396000C943890607D46FF0200101612046BDE8F4
:103970007040FFF78ABD70BD00B585B00021009191
:103980000191029103910068104988421BD11048AF
:10399000816941F0400181618069694600F0400021
:1039A00004904FF47C50009002200190039009484D
:1039B000FEF7EEFE0848416821F0C00141F0E061E9
:1039C00041F0C001416005B000BD0000002C014085
:1039D000001002400018014000000140704770B51F
:1039E000044690F83C0000260D4601280FD0012027
:1039F00084F83C006AB1042A1DD0082A2FD00C2A72
:103A00003FD00126002084F83C00304670BD0220E3
:103A100070BD206800F0D0FE2068816941F0080187
:103A200081612068816921F00401816120688169D8
:103A30002A69114311E0206800F0EEFE20688169D8
:103A400041F4006181612068816921F480618161B4
:103A5000206881692A6941EA02218161D2E72068F0
:103A600000F010FF2068C16941F00801C1612068C1
:103A7000C16921F00401C1612068C1692A6911434B
:103A800011E0206800F032FF2068C16941F4006154
:103A9000C1612068C16921F48061C1612068C16988
:103AA0002A6941EA0221C161ACE710B5040003D0E4
:103AB00094F83D0010B107E0012010BD002084F80B
:103AC0003C00204600F01EF8022084F83D00211D35
:103AD000206800F0FFFD012084F8460084F83E00D5
:103AE00084F83F0084F8400084F8410084F84200E4
:103AF00084F8430084F8440084F8450084F83D00CD
:103B0000002010BD7047704710B50446022249B12D
:103B100004290ED0082913D094F84100012816D0AA
:103B2000012010BD94F83E000128F9D184F83E2010
:103B30000FE094F83F000128F2D184F83F2008E01C
:103B400094F840000128EBD184F8402001E084F88B
:103B500041200122206800F003FE13492068134A27
:103B6000884201D0904203D1436C43F40043436444
:103B7000206888420DD090420BD0B0F1804F08D021
:103B80000B49884205D00B49884202D00A49884235
:103B900004D1816801F00701062903D0016841F0D2
:103BA00001010160002010BD002C014000340140E3
:103BB0000004004000080040000C00400A49CA68A8
:103BC000521CCA604B689A4201D10022CA60006848
:103BD000064A904207D10448C968103030F81100F5
:103BE000024934310860704700000020002C014079
:103BF000704770B5040004D094F84100002510B15E
:103C000006E0012070BD84F84050204600F024F802
:103C1000242084F841002068C16821F40051C1606B
:103C2000204600F0AFFE2068016921F49041016157
:103C30002068416921F02A0141612068C16841F48E
:103C40000051C1606564202084F8410084F842007E
:103C50006563002070BD000030B585B0002400947D
:103C600001940294039400681449884224D11448B2
:103C7000816941F480418161816901F4804104914D
:103C8000816941F00401816180690E4D00F00400FA
:103C900004904FF4007000900220019003200390E4
:103CA00069462846FEF774FD2815CDE900046946EB
:103CB00028460294FEF76CFD05B030BD0038014087
:103CC00000100240000801402DE9F843044690F836
:103CD00041001F4616460D46202802D00220BDE8AE
:103CE000F8837DB176B100206064212084F8410022
:103CF000FEF750FEA6848046E684A068B0F5805F9B
:103D000002D003E00120EAE7206910B12E46002529
:103D10000EE000260CE08021204600F08FFEA0B9C6
:103D2000AEB116F8010B21684860E08C401EE084BB
:103D3000E08C43464FF0000200970028EBD14FF093
:103D40004001204600F07AFE30B10320C7E735F885
:103D5000020BC0F30800E6E7202084F841000020B1
:103D6000BDE7FEE701684A69D24352050FD46FF4FC
:103D700080624A61002140F8301F20224273817323
:103D8000026942F0040202610173012070470020C1
:103D900070470000F8B50446C06A1E460D46174637
:103DA000082807D0012805D010F5803F02D0206BED
:103DB000122804D12068016841F480710160134623
:103DC00000224FF001112046009600F05DF840B14E
:103DD00020680068C00502D54FF4007020640320FD
:103DE000F8BD2069B0F5804F0ED00620216800EAAA
:103DF000D51040F0F000086133463A460B492046A2
:103E000000F08AF878B902E005F0FE0000E0E8B2C0
:103E100021680861054933463A46891F204600F06B
:103E20007BF80028DCD00120F8BD0000080001006C
:103E300070B516460D4604461EE02046FFF792FF79
:103E400008B1012070BD681C16D0FEF7A3FD801BD1
:103E5000A84200D885B920684069C04340070BD507
:103E6000002044F8300F20216173A073216941F0D4
:103E7000200121612073E4E720684069C0434007C6
:103E8000DBD4002070BD00002DE9F04798461746AE
:103E90000D460446C1F30746DDF820902AE000BF36
:103EA000B8F1FF3F26D0FEF775FDA0EB09014145B3
:103EB00002D8B8F1000F1DD12068012E16D08069FC
:103EC00025EA00000004000C12D00020B84211D1F5
:103ED000002044F8300F20216173A073216941F064
:103EE0002001216120730120BDE8F0874069E7E7E8
:103EF0000120EBE72068012E0AD0806925EA000046
:103F00000004000C06D00020B842C9D00020EBE726
:103F10004069F3E70120F7E72DE9F0479846164698
:103F20000D4604464FF000094FF0200AC1F3074741
:103F300023E020684069C043400515D4206801682B
:103F400041F40071016021686FF480604861C4F839
:103F5000309084F83DA084F83E90216C41F004013B
:103F6000216484F83C9021E0701C06D0FEF712FD1D
:103F7000A0EB0800B04203D816B1012F1FD021E0FA
:103F80002068012F15D0806925EA00000004000C8C
:103F900018D000BF44F8309F84F80DA084F80E902C
:103FA000216941F02001216184F80C900120BDE8D5
:103FB000F087406925EA00000004000CEAD120687F
:103FC000406901E02068806925EA00000004000CD7
:103FD000AFD1ECE770B516460D4604461EE020460C
:103FE000FFF7C0FE08B1012070BD681C16D0FEF7B7
:103FF000D1FC801BA84200D885B920684069C04325
:1040000000060BD5002044F8300F20216173A07307
:10401000216941F0200121612073E4E720684069B3
:10402000C0430006DBD4002070BD00003EB5002474
:104030001648009401941449029401608915816026
:104040000473047502250561C9024460C161FEF76D
:1040500097F808B1FDF7A4FF052000900120CDE9F5
:10406000010469460948FEF709F808B1FDF798FF11
:104070000620CDE9000569460448FDF7FFFF00284A
:1040800001D0FDF78DFF3EBD00240140C05100204E
:10409000094808B5416941F00101416140690022C8
:1040A00000F00100009011460B20FEF769FEBDE80C
:1040B00008400B20FEF756BE001002402DE9F047E5
:1040C00086B00024334800940194029403948169DB
:1040D00041F040018161816901F0400104918169F1
:1040E00041F004018161816901F004010491816959
:1040F00041F0080181618069DFF89C8000F00800D0
:104100000490002220214046FEF73EFCDFF88C9010
:10411000012211464846FEF737FCDFF884A04FF431
:104120008077002239465046FEF72EFC00222021DF
:104130004846FEF729FC0820CDE9000469464046C0
:104140000294FEF725FB102001258DE83100694619
:104150004046FEF71DFB20200226CDE90005CDE9F3
:10416000024669464046FEF713FB2120CDE90005D3
:10417000CDE9024669464846FEF70AFB00970396DA
:10418000CDE9015469465046FEF702FB06B0BDE892
:10419000F08700000010024000180140000C0140B0
:1041A000000801400D4810B50B4901600C49416001
:1041B00000214FF480428160C0E9031241618161B6
:1041C000C1610162FEF7ECFB002803D0BDE810409E
:1041D000FDF7E6BE10BD000000580040345200203C
:1041E000801A060010B596B000240F941094119414
:1041F000129413941C2168461494FBF7CCFF2021E1
:1042000007A8FBF7C8FF34483249C0E900144FF44F
:10421000E151C0E90241046144618461FFF7F4F9AE
:1042200008B1FDF7BDFE4FF480500F900FA92A484A
:10423000FFF780FA08B1FDF7B3FE2748FFF735FC1A
:1042400008B1FDF7ADFE139413A923481494FFF7AA
:1042500047F908B1FDF7A4FE602000904FF4966086
:10426000CDE90104039404940594002269461A4898
:104270000694FFF7B4FB08B1FDF792FE4FF46160BE
:104280000190042269461448FFF7A9FB08B1FDF725
:1042900087FE4FF4AF500190082269460E48FFF7A1
:1042A0009EFB08B1FDF77CFE0794C8200894CDE979
:1042B00009404FF40050CDE90B4007A906480E9481
:1042C000FFF7E4F808B1FDF76BFE0348FFF754FB76
:1042D00016B010BD002C01408852002010B586B0E9
:1042E0000024174800940194029403940494134901
:1042F0000594C0E900144FF4E151C0E90241802166
:1043000004618161FFF780F908B1FDF749FE4FF4C0
:104310008050009069460A48FFF70CFA08B1FDF793
:104320003FFE2020CDE9040404A90548FFF7D8F892
:10433000002801D0FDF734FE06B010BD0004004097
:10434000D05200200C4810B50A4901604FF4E13109
:104350004160002181600C22C160C0E904128161CA
:10436000C161FFF746FC002803D0BDE81040FDF70F
:1043700017BE10BD0038014018530020FEE7FEE7CD
:1043800070B5802817D2002915DB3F2913DCCB1725
:1043900001EB5375C5F3C70325F007050124094E4A
:1043A000491B8C4006EBC000012A05D0C15C022AE3
:1043B00005D0A143C15470BDC15C2143FAE76140FF
:1043C000F8E70000E053002010B50021AE2001F016
:1043D0002DF90021202001F029F90021102001F001
:1043E00025F90021B02001F021F90021C82001F0B9
:1043F0001DF90021084601F019F90021102001F0F3
:1044000015F90021402001F011F90021812001F06F
:104410000DF90021FF2001F009F90021A12001F090
:1044200005F90021A62001F001F90021A82001F0E2
:10443000FDF800213F2001F0F9F80021A42001F04F
:10444000F5F80021D32001F0F1F80021084601F031
:10445000EDF80021D52001F0E9F80021F02001F06D
:10446000E5F80021D92001F0E1F80021222001F037
:10447000DDF80021DA2001F0D9F80021122001F046
:10448000D5F80021DB2001F0D1F80021202001F037
:10449000CDF800218D2001F0C9F80021142001F091
:1044A000C5F80021BDE81040AF2001F0BFB8000002
:1044B000F0B500210D4BFF260C46002201280FD03D
:1044C00003EBC20580B16F5CC7F1FF076F54521C4C
:1044D000D2B2802AF2D3491CC9B20829EDD3F0BD6B
:1044E00003EBC2056E54F2E76C54F0E7E053002092
:1044F0000FB4042870B50C46054613D8142C11D8F7
:104500000A4E07AA0A483260069900F0E5FAC4F19B
:104510001501074A0020C9B2306050542146284690
:1045200000F072F870BC5DF814FB0000B4010020CC
:104530006053002070B50B4E00242146002000F08F
:1045400013F8002506EBC5000121005D01F06EF8AF
:104550006D1CEDB2802DF5D3641CE4B2082CECD3B5
:1045600070BD0000E053002010B50446B031C8B261
:10457000002101F05BF8102040EA1410002101F046
:1045800055F804F00F00BDE81040002101F04EB8CE
:104590002DE9F04F01EB410100EB40004906800698
:1045A000040E203A4FEA1169D0B2164900EB4000E0
:1045B000A046002501EB800B00261BF805704FFA82
:1045C00089FA380601D5012200E0002261B2504686
:1045D000FFF7D6FE7806641C070EE4B2A4EB0800D1
:1045E0000C2809D0761CF6B2082EEAD36D1CEDB269
:1045F0000C2DE1D3BDE8F08F09F10100444600F035
:10460000FF09F3E7BC560008F0B517460C4606460E
:1046100000250CE021463046FFF7BAFF641CE4B2E7
:10462000142C02D90024761CF6B26D1CEDB27A5D12
:10463000002AEFD1F0BD70477047FEF73BBB30B5A5
:1046400095B028216846FBF7A6FD14210AA8FBF7C0
:10465000A2FD18210FA8FBF79EFD01210804CDE95A
:1046600000100025029502240491CDE907404FF483
:10467000E01009906846FEF763FD08B172B6FEE7E8
:104680000AA90F2081E831004FF48060CDE90D05C3
:1046900002210AA8FEF778FC08B172B6FEE74FF4D3
:1046A000004011900F940FA8FEF7F8FB002801D0EE
:1046B00072B6FEE715B030BD704700000148FFF745
:1046C000A8B80000885200200148FFF7A2B80000F7
:1046D000D0520020F0B502681C4B1D4D1D4E1E4FE0
:1046E0001E4C4FF0804C984209D0A04207D0604544
:1046F00005D0A84203D0B04201D0B84204D122F084
:10470000700E4A6842EA0E02984209D0A04207D0D1
:10471000604505D0A84203D0B04201D0B84203D1D1
:1047200022F44075CA682A434D6922F080022A4368
:1047300002608A68C2620A688262984201D0A0421E
:1047400001D10969016301214161F0BD002C0140E3
:104750000004004000080040000C0040003401400C
:1047600010B501F01F030121046A99408C430462D3
:10477000016A9A401143016210BD10B501F01F0398
:104780000421046A99408C430462016A9A401143EF
:10479000016210BD10B5846842EA032224F47F440C
:1047A0000A432243826010BD826822F070020A43ED
:1047B00042F0070181607047F0B5036A026A22F097
:1047C0000102026242688469124E24F073050C688B
:1047D0002C4323F002058B682B430D4DA84201D0DA
:1047E000B04205D123F00807CB683B4323F0040314
:1047F000A84201D0B04205D14D6922F44072154360
:104800008A692A4342608461496841630362F0BD5A
:10481000002C014000340140F0B5026A036A23F025
:1048200010030362436884690D6824F4E64444EA93
:1048300005248D6822F0200242EA05120F4D104E29
:10484000A84201D0B04206D1CF6822F0800242EAED
:10485000071222F04002A84201D0B04207D14D69B0
:1048600023F4406343EA85038D6943EA850343608B
:104870008461496881630262F0BD0000002C014040
:1048800000340140F0B5026A036A23F480730362C6
:104890004368C46922F4007224F073050C68124E58
:1048A0002C438D6842EA05220E4DA84201D0B04249
:1048B00006D1CF6822F4006242EA072222F4806225
:1048C000A84201D0B04207D14D6923F4405343EAD6
:1048D00005138D6943EA05134360C4614968C163E8
:1048E0000262F0BD002C01400034014030B5046A82
:1048F000026A22F4805202624268C3690D6823F49E
:10490000E64343EA05238D6824F4005444EA053461
:10491000084DA84202D0084DA84204D14D6922F4A6
:10492000804242EA85124260C361496801640462C0
:1049300030BD0000002C01400034014010B5036A76
:10494000046A24F001040462846924F0F00444EA57
:10495000021423F00A020A438461026210BD10B5FA
:10496000036A046A24F010040462846923F0A0033B
:1049700024F4704444EA023243EA01118261016284
:1049800010BD000070B5044600680169E26821F4BA
:104990004051114301612169A068084361690843DE
:1049A0002168CA6841F20C639A430243CA602068D6
:1049B0004169A26921F44071114341611E49206897
:1049C000884202D1FEF786FB01E0FEF773FB00EBA5
:1049D000C00101EB0012606864218000B2FBF0F3BB
:1049E000B3FBF1F36FF018067343B2FBF0F5B2FBC3
:1049F000F0F605EB8305322303EB0515B5FBF1F566
:104A0000B6FBF1F605F0F00505EB0615B2FBF0F686
:104A1000B2FBF0F0B0FBF1F06FF01802504306EB80
:104A2000800003EB0010B0FBF1F0216800F00F00F4
:104A30002844886070BD0000003801402DE9F04135
:104A4000984617460E460446069D27E0681C25D06A
:104A50002DB1FDF79FFFA0EB0800A8421ED92068EA
:104A60000C3050E8001F21F4D07140E80012002AF9
:104A7000F5D12068143050E8001F21F0010140E812
:104A80000012002AF5D1202084F8410084F8420069
:104A9000002084F840000320BDE8F0812068006811
:104AA00036EA000004D00020B842CFD00020F3E75F
:104AB0000120F9E7FEE700000FB4054B10B503A98C
:104AC000044A029800F002F910BC5DF814FB0000E3
:104AD00005540008B801002037B514460846064BB7
:104AE0006A46214600F0F2F804466946002000F0CC
:104AF00084FC20463EBD0000FB5300080907090E58
:104B0000002804DB00F1E02080F80014704700F07A
:104B10000F0000F1E02080F8141D704702E008C883
:104B2000121F08C1002AFAD170477047002001E027
:104B300001C1121F002AFBD1704700000149086023
:104B400070470000BC0100202DE9FF5F82B000210A
:104B5000DDE90430020DDDF840B0034318D044F61F
:104B60001050A2F2FF3242431514119801281FD0B1
:104B7000A5EB0B00401C5FEA000A4FF000064E4F09
:104B8000DFF83891B046504615D5CAF1000413E05D
:104B9000119801244AA3012801D16FEA0B01029860
:104BA000119AC0E90031C0E9024206B0BDE8F09FA9
:104BB000CBF10000DFE704460021404A491842EBF0
:104BC0000450CDE9001012E0E00707D032463B4622
:104BD00040464946FBF7BEFB8046894632463B4687
:104BE00010461946FBF7B6FB06460F466410002C2C
:104BF000EAD1DDE90401DDE90023BAF1000F06DAAC
:104C0000FBF7A8FB42464B46FBF7A4FB05E0FBF78E
:104C100013FC42464B46FBF70FFC04460E460022AF
:104C2000284BFBF799FE03D84FF0FF30014607E011
:104C30000022254B20463146FBF7CFFDFBF774FEE3
:104C4000102409E0002C0ADB0A220023FBF7D1FC28
:104C5000039B30321A55641E50EA0102F2D1641CE3
:104C6000039AC4F111031444119A012A03D00122BA
:104C700008430DD10AE0084304D000204FF0110B87
:104C8000119072E7A3EB0B056D1E0DE05B4504DD93
:104C90004FF0000205F1010504E003DA4FF00002D5
:104CA000A5F10105002AECD002981199C0E9023162
:104CB000C0E9004579E70000000014400000F03F23
:104CC000300000000000F0430000E03F2DE9FF4FFE
:104CD00095B09B468946064600250FE2252877D1E8
:104CE00000242746F84A0121059400E0044316F801
:104CF000013F203B01FA03F01042F7D130782A2817
:104D000011D06FF02F033078A0F13002092A16D8A5
:104D1000059A44F0020402EB820203EB42021044C3
:104D2000761C0590EFE759F8042B0592002A03DA68
:104D3000504244F40054059044F00204761C30784C
:104D40002E2816D116F8010F44F004042A280DD09D
:104D50006FF02F023078A0F13003092B09D807EB50
:104D6000870302EB4303C718761CF3E759F8047B6B
:104D7000761C30786C280FD006DC4C2817D06828B9
:104D80000DD06A2814D104E0742810D07A280FD1ED
:104D90000DE044F400140AE044F4801401E044F40B
:104DA00040147278824202D104F58014761C761C7D
:104DB000307866280BD013DC582877D009DC00281F
:104DC00075D04528F6D04628F4D047281AD19DE161
:104DD00018E0632835D0642879D0652812D195E190
:104DE000702873D008DC6728F1D069286FD06E284E
:104DF0000DD06F2806D1B5E073282CD0752875D05A
:104E0000782874D05A46179990476D1C75E1C4F301
:104E10000250022809D003280DD0D9F80010042828
:104E20000DD00D6009F1040967E1D9F80010EA1707
:104E3000C1E90052F6E7D9F800100D80F2E70D70D5
:104E4000F0E719F8041B8DF8001000208DF8010020
:104E5000EA46012003E059F804AB4FF0FF30610748
:104E60004FF0000102D40DE008F101018846B9427B
:104E70000FDA8045F8DB1AF808100029F4D108E0B1
:104E800008F1010188468142FADB1AF8081000296E
:104E9000F6D105985B46A0EB080721463846179ADD
:104EA00000F094FA284400EB080507E04DE029E102
:104EB0000DE01AF8010B5A4617999047B8F101080E
:104EC000F7D25B4621463846179A13E142E00A22A0
:104ED0000092C4F302524FF0000A022A08D059F897
:104EE00004CB032A4FEAEC710AD00DE029E02AE056
:104EF00009F1070121F00702F2E802C1914609E039
:104F00000FFA8CFC4FEAEC71042A03D14FFA8CFCA7
:104F10004FEAEC71002907DA0A460021DCF1000CA7
:104F200061EB02012D2202E0220504D52B228DF82F
:104F30000420012203E0E20701D02022F7E7904697
:104F400059E00A2102E010220DE010214FF0000A82
:104F500000910BE010224FF0000A44F004040827EF
:104F6000009203E008224FF0000A0092C4F30252BC
:104F7000022A05D059F804CB0021032A08D009E001
:104F800009F1070121F00702F2E802C1914605E0AC
:104F90001FFA8CFC042A01D10CF0FF0C4FF0000822
:104FA000220728D5702806D0009B83F0100353EA0F
:104FB0000A0305D00EE040228DF80420012208E00B
:104FC0005CEA010206D030228DF804208DF805003D
:104FD00002229046009B83F0080353EA0A030AD199
:104FE0005CEA010201D1620705D530228DF8042068
:104FF0004FF001087F1E582804D034A003900EA85B
:1050000002900DE036A0F9E753466046009AFBF7A0
:10501000F0FA84460398825C0298401E0290027067
:105020005CEA0100F0D1029806A9081A00F1200AF2
:10503000600702D524F4803400E00127574502DDE3
:10504000A7EB0A0000E0002000EB0A0100900598A1
:105050004144401A0590E00306D45B462146179A66
:10506000059800F0B3F90544002706E001A85A4668
:10507000C05D179990476D1C7F1C4745F6DBE00328
:105080000CD55B462146179A059800F09FF9054418
:1050900004E030205A46179990476D1C0099481E2D
:1050A00000900029F5DC08E0029802995A46007841
:1050B000491C0291179990476D1CBAF10001AAF1A1
:1050C000010AF1DC65E100000928010030313233CA
:1050D0003435363738396162636465660000000034
:1050E000303132333435363738394142434445461E
:1050F0000000000000F058F90544761C30780028C4
:105100007FF4ECAD19B02846BDE8F08F620700D4FB
:10511000062709F1070222F0070CFCE80223E1460A
:1051200003F000485FEA080C02D00FF2702C0DE08B
:105130005FEA045C02D50FF2682C07E05FEAC47CEA
:1051400002D00FF2602C01E0AFF2700C4FF0FF388C
:1051500023F00043CDF850C065280CD006DC45286C
:1051600009D046281DD047283DD13DE0662818D0FB
:1051700067287ED138E00021112F01DB112000E0EB
:10518000781CCDE9000106A90EA8FFF7DDFCDDE9DA
:105190000F010E9A03910021009207F1010A049178
:1051A0004DE04FF000400097CDE9011006A90EA890
:1051B000FFF7CAFCDDE90F0203920E9B1199002252
:1051C000DDF80CA00093049211B9791C00EB010AE0
:1051D000B7EB0A0004D4C0F1FF3007F1010A0490D4
:1051E000AAEB0700019044E0012F00DA012700211B
:1051F000112F01DD112000E03846CDE9000106A99C
:105200000EA8FFF7A1FCDDE90F010E9A0391002122
:1052100004910092BA4621070CD40399514500DA53
:105220008A46BAF1010F05DD009AAAF10101515C2D
:10523000302908D0B84202DA10F1040F06DA012151
:10524000CDE9011015E0AAF10101E9E7002805DC2C
:10525000049901440491AAEB000102E0411C51456C
:1052600000DD8A460499401A401C01904FF000402E
:105270000290200704D40198504501DBCDF804804A
:1052800000208DF84F0002980DF14F07B0F1004F4C
:1052900025D02B200E9002984FF0020800280CDA3F
:1052A000404202902D200E9007E00A210298FBF761
:1052B0008AF93031029007F8011DB8F10001A8F118
:1052C0000108F2DC02980028EFD1791E0E980870D0
:1052D000307800F0200040F0450007F8020D12A8D9
:1052E000C01B00F107081498007800B1012000EB02
:1052F0000A01019801EBE07105984144401A401EF3
:105300000590E00306D45B462146179A059800F005
:105310005DF805441498007818B15A4617999047DB
:105320006D1CE00324D55B462146179A059800F0D2
:105330004DF805441CE00498002807DBDDE9030173
:10534000884203DD0098405C179901E017993020EE
:105350005A469047049805F10105401C04900198B5
:10536000401E019004D12E205A46179990476D1C7B
:10537000BAF10001AAF1010ADDDC05E017F8010B22
:105380005A46179990476D1CB8F10001A8F1010821
:10539000F4DC5B462146179A0598ABE62D00000029
:1053A0002B000000200000002DE9F04104460025FC
:1053B0001E461746880404D405E039462020B0472D
:1053C0006D1C641EF9D52846BDE8F0812DE9F04139
:1053D000044600251E469046C80301D5302700E04C
:1053E0002027880404D505E041463846B0476D1CA7
:1053F000641EF9D52846BDE8F0810A68531C0B608D
:105400001070704713B54FF6FF73012269460248CA
:10541000FEF75AFC00981CBD185300201CB5FDF780
:1054200051FCFFF70CF9FEF749FEFEF731FEFEF7DF
:1054300089FFFEF7D7FEFEF7B5FEFEF7F7FDFEF794
:105440004DFFFEF7C1FF00216048FEF75DFB002124
:105450005E48FEF783F804215C48FEF755FB042103
:105460005A48FEF77BF808215848FEF74DFB082103
:105470005648FEF773F85548FEF726F95448FCF7EE
:1054800091FD4FF400652A4652495148FCF74EFF02
:105490005148FEF719F9524850498046C0F80810A3
:1054A00098F800000028FBD0A946DFF838A1494D44
:1054B0004D4F00244FF0663655F82400FBF747F8AF
:1054C00032463B46FAF746FF00225346FAF7B4FF4E
:1054D00002460B4645A0FFF7EFFAA41CA4B24C45C8
:1054E000EAD3002088F80000B346BA46414E04468D
:1054F00081464FF4806700BF55F83400FBF727F86A
:105500005A465346FAF726FF6FF00B02FBF703F8F3
:10551000FBF73DF846F8340006EBC401641CC1F803
:105520000490BC42E8DB0123002232493248FBF7F9
:10553000A9FA3E463A4631492E48FBF7B3FF2F4DB4
:105540006FF009012868FAF7F9FE01246FF00807E7
:10555000C5F8000055F824003946FAF7EFFE45F883
:105560002400641CB442F5DB25A0FFF7A5FA002453
:1055700055F82400FAF7F8FF02460B46214624A00E
:10558000FFF79AFA641CB442F2DB44464FF07E55B2
:105590000020FEF78DFF002120A20846FEF7A8FF9D
:1055A000A068FAF7E1FFCDE900011EA20021012069
:1055B000FEF79EFFFEF7BEFF2946A068FAF7F6FD4C
:1055C000A0606420FDF7D2F8E2E7000088520020D6
:1055D000C0510020C0010020D05200206D051C43A6
:1055E0000000002000FEAF4066660A40252E3366AC
:1055F0000A000000C021002040690008C0410020CE
:1056000046465420526573756C743A0D0A000000CA
:1056100025643A09252E32660D0A0000485549488E
:1056200055490000252E32660000000008B5074AE3
:1056300001B14021117050700A2000900223034AEA
:1056400078210348FDF770FA08BD0000B001002082
:105650003452002070B50546FBF733F8044620F0BD
:105660000040C0F1FF40C00F08D025F00040C0F15D
:10567000FF40C00F04BF0120FFF760FA204670BD55
:10568000010202030405060708090A0B0C0D0E0FA0
:105690001010010202030405060708090A0B0C0D8D
:1056A0000E0F1010000000000000000001020304B3
:1056B00006070809000000000102030400000000C2
:1056C0000000000000000000000000003F4000005B
:1056D00000000000000030004000300040000000EA
:1056E00009000BC03D000BC03D00090018C024405C
:1056F0007FE0224031800000180024C01B000D8094
:105700003240018003801C4027401C80074000403D
:105710001000600000000000000000000000000019
:1057200000001F80204040200000402020401F80BB
:1057300000000000090006001F80060009000000AC
:10574000040004003F80040004000000001000601A
:105750000000000000000000040004000400040039
:1057600004000000000000400000000000000000F5
:10577000002001C006003800400000001F802040CB
:10578000204020401F800000000010403FC000402B
:105790000000000018C021402240244018400000B2
:1057A00010802040244024401B80000002000D0097
:1057B00011003FC0014000003C80244024402440B0
:1057C000238000001F8024402440344003800000D8
:1057D0003000200027C03800200000001B8024403B
:1057E000244024401B8000001C0022C02240224094
:1057F0001F800000000000000840000000000000C2
:105800000000000004600000000000000000040030
:105810000A00110020804040090009000900090029
:105820000900000000004040208011000A00040030
:105830001800200023402400180000001F80204092
:10584000274029401F400000004007C039000F00DA
:1058500001C0004020403FC0244024401B80000085
:105860001F802040204020403080000020403FC06A
:10587000204020401F80000020403FC024402E4098
:1058800030C0000020403FC024402E003000000007
:105890000F001080204022403380020020403FC093
:1058A000040004003FC02040204020403FC0204072
:1058B000204000000060202020203FC02000200069
:1058C00020403FC024400B0030C0204020403FC05B
:1058D00020400040004000C03FC03C0003C03C00EE
:1058E0003FC0000020403FC00C4023003FC02000CC
:1058F0001F802040204020401F80000020403FC0EB
:1059000024402400180000001F802140214020E096
:105910001FA0000020403FC02440260019C00040C6
:1059200018C0244024402240318000003000204034
:105930003FC020403000000020003F800040004079
:105940003F80200020003E0001C0070038002000FA
:10595000380007C03C0007C038000000204039C0B4
:10596000060039C0204000002000384007C0384001
:1059700020000000304021C02640384020C00000F8
:10598000000000007FE04020402000000000700088
:105990000C000380004000000000402040207FE019
:1059A0000000000000002000400020000000000077
:1059B0000010001000100010001000100000000087
:1059C000400000000000000000000280054005408B
:1059D00003C0004020003FC004400440038000009A
:1059E00000000380044004400640000000000380E3
:1059F000044024403FC000400000038005400540B3
:105A000003400000000004401FC024402440200048
:105A1000000002E0055005500650042020403FC021
:105A20000440040003C000400000044027C00040C0
:105A30000000000000100010041027E0000000002B
:105A400020403FC00140070004C0044020402040E7
:105A50003FC000400040000007C0040007C0040031
:105A600003C00000044007C00440040003C000401D
:105A7000000003800440044003800000041007F08D
:105A800004500440038000000000038004400450E0
:105A900007F00010044007C00240040004000000AA
:105AA000000006400540054004C00000000004005E
:105AB0001F800440004000000400078000400440B4
:105AC00007C000400400070004C001800600040075
:105AD000060001C0070001C006000000044006C027
