:020000040800F2
:10000000B047002045010008D7430008B93D00086B
:10001000D54300088D1E0008C548000800000000F8
:10002000000000000000000000000000C1440008C3
:100030009720000800000000BF440008C3440008E7
:100040005F0100085F0100085F0100085F01000810
:100050005F0100085F0100085F0100085F01000800
:100060005F0100085F0100085F010008111F000820
:100070005F0100085F0100085F0100085F010008E0
:100080005F0100085F0100085F0100085F010008D0
:100090005F0100085F0100085F0100085F010008C0
:1000A0005F010008454500085F0100085F01000886
:1000B0005F010008514500085F0100085F0100086A
:1000C0005F0100085F0100085F0100085F01000890
:1000D0005F0100085F0100085F0100085F01000880
:1000E0005F0100085F0100085F0100085F01000870
:1000F0005F0100085F0100085F0100085F01000860
:100100005F0100085F0100085F0100085F0100084F
:100110005F0100085F0100085F0100085F0100083F
:100120005F0100085F0100085F0100085F0100082F
:10013000DFF80CD000F0E2FB00480047A9490008B6
:10014000B04700200648804706480047FEE7FEE724
:10015000FEE7FEE7FEE7FEE7FEE7FEE7FEE7FEE777
:100160004145000831010008202A04DB203A21FA29
:1001700002F00021704721FA02F3D040C2F12002C0
:100180009140084319467047D2B201E000F8012BB4
:10019000491EFBD270470022F6E710B513460A4607
:1001A00004461946FFF7F0FF204610BDF0B480EA80
:1001B0000102D40F4200B2EB410F02D202460846C0
:1001C00011464A0042D0C30DDDB2C1F3C752AD1A89
:1001D000202D35DAC1F3160141F4000204B1524278
:1001E000C5F1200602FA06F12A411044B3EBD05FB4
:1001F00023D0C4B1012DA0EBC35009DCF0BC4FF0FB
:10020000004202EAC352DBB200F5000000F06ABA15
:10021000400000F1807000EBC350A0F1807040EA14
:10022000D170490009E0490841EAC071A0EBC35010
:1002300000F50000400800EBC350F0BC00F049BAE4
:100240006142012202EB4101001BF6E7F0BC70475E
:1002500081F00041AAE780F00040A7E780EA0102B0
:1002600010B502F00043400022D04A001FD0010E1A
:1002700001EB1261C0F35600C2F3560240F40000D5
:1002800042F40002A0FB022000047F39140400D0D5
:10029000401C50EA124001D44000491EC2B20C0674
:1002A00004EBD010401C4008802A02D003E000205C
:1002B00010BD20F00100002900DA0020184310BD15
:1002C00030B480EA010202F0004530F0004221F033
:1002D000004013D090B1C30DD40DC2F31601C0F38A
:1002E0001600E41A41F4000140F400027D3491420A
:1002F00001D3641C00E04900002C02DA30BC00206D
:1003000070474FF400000023914201D3891A034340
:1003100040084FEA4101F7D151B1914202D14FF06B
:10032000004105E002D24FF0010101E06FF0010150
:1003300003EBC450284430BC00F0CBB9420005D0D8
:10034000C0F3C7525242914201DC0020704700EBDB
:10035000C15070472DE9FE4F804681EA0300C00F6F
:100360000C46009021F0004123F00045B8EB02005C
:10037000A94105D24046214690461C460B460246FE
:1003800023F00040104347D0270DC7F30A00C3F302
:100390000A510290401A019040286BDAC3F313000F
:1003A00040F4801B0098924620B10023D2EB030A50
:1003B00063EB0B0B01985946C0F14002504600F028
:1003C00067F906460D4650465946019A00F06FF906
:1003D00010EB08006141002487EA115284EAE773B8
:1003E0001A4340D0009A62B3019A012A4FEA075299
:1003F00015DC001B61EB02014FF0004202EA0752DC
:10040000CDE90042001C41F5801132462B4600F038
:10041000D5F903B0BDE8F08F40462146F9E7001B4F
:1004200061EB0201001C41F5801300185B412018AC
:10043000A2F5001747EB030140EAD570B6196D41EC
:1004400011E06D084FEA360645EAC0754FEA0752DB
:10045000001B61EB0201001C41F5801149084FEAC5
:1004600030000019514132462B4603B0BDE8F04F31
:1004700000F095B90098012240000023D0EB020261
:1004800063EBE073009821464FEAE074B8EB00009C
:1004900061EB0401E9E783F000435BE781F0004191
:1004A00058E72DE9FE4F81EA030404F0004421F0EF
:1004B000004100944FF0000B23F0004350EA010488
:1004C0005ED052EA03045BD0C3F30A54C1F30A5569
:1004D0002C44A4F2F3340194A0FB0254C1F31301A1
:1004E00041F48011C3F3130343F4801301FB02446E
:1004F00000FB034E840A970A44EA815447EA835773
:10050000A4FB076802958D0A05FB07854FEA932C2B
:1005100004FB0C542705029D4FEA065847EA16379C
:10052000B5EB08056EEB070C870E920E47EA8117B4
:1005300042EA8312A7FB0201B6EB0B0164EB000455
:100540002B0D43EA0C335E1844EB1C50DA4651463F
:10055000E7FB0201C5F313044FEA0B3343EA1453DC
:100560004FEA0432019C43EA0603A4F10C0402940E
:10057000009CCDE900B400F021F903B0BDE8F08F94
:1005800000200146F9E770B521F0004303430CD089
:10059000C1F30A550024D5EB040564EB0403D61718
:1005A000AD1AB34102DB0020014670BD201841EBBB
:1005B000025170BD96230022114600F093B80EB58B
:1005C00040F2334102910021CDE900110A460B4669
:1005D00000F0F4F803B000BD00F0004230F000403D
:1005E0000AD0C10D01F56071C0F3160042EA015155
:1005F000C2084007114370470020014670470000C1
:1006000030B5041E71F1000404DB4FF00044404299
:1006100064EB0101141E73F1000405DB1C464FF06E
:100620000043524263EB0403994208BF904230BD3D
:1006300001F0004330B421F0004150EA010206D03D
:100640000A0DA2F56072C1F31301002A02DC30BC6E
:1006500000207047440F44EAC104C100E01830BCD8
:1006600000EBC25000F035B8002801DBC0F10040BB
:10067000002901DBC1F1004181427047002801DB04
:10068000C0F10040002901DBC1F100418842704700
:10069000202A04DB203A00FA02F100207047914042
:1006A000C2F1200320FA03F3194390407047202A37
:1006B00006DBCB17203A41FA02F043EAE07306E08A
:1006C00041FA02F3D040C2F120029140084319469A
:1006D00070470029A8BF7047401C490008BF20F0A0
:1006E0000100704710B4B0FA80FC00FA0CF050EA38
:1006F000010404BF10BC704749B1CCF1200421FAB9
:1007000004F411FA0CF118BF012121430843A3EBB3
:100710000C01CB1D4FEA00614FEA102042BF0020C0
:1007200010BC704700EBC35010440029A4BF10BC9C
:100730007047401C490008BF20F0010010BC704702
:10074000F0B4002802DCF0BC00207047C0F3C751B1
:10075000C0F3160040F40000CA0701D14000491E52
:100760003F2202EB6105002211464FF4000626FAF3
:1007700001F31344D418844201D8001B1A464000E8
:10078000491C1729F3DD5100814202D24FF0FF319D
:1007900000E0002102EBC550F0BCFFF79ABF10B596
:1007A000141E73F1000408DA401C41F10001921894
:1007B0005B411A4301D120F0010010BD2DE9F04D3D
:1007C00092469B4611B1B1FA81F202E0B0FA80F292
:1007D00020329046FFF75CFF04460F4640EA0A00CD
:1007E00041EA0B0153465A46084313D0114653EAD7
:1007F000010019D0C8F140025046FFF7B5FC05468C
:100800000E46504659464246FFF742FF084305D080
:10081000012004E020463946BDE8F08D0020054364
:1008200046EAE0762C4337430A986305E40AA0EBD6
:1008300008000022FD0A44EA47540A3002D500208D
:100840000146E9E7010510196941DDE9084500198C
:100850006941BDE8F04DA2E72DE9F04D00231A46AD
:100860001B1A8A4103DB00200146BDE8F08DC1F36D
:100870000A52C1F3130141F480154FF0000BD10768
:1008800002D100186D41521E0027044640F2FF11AC
:10089000384601EB620A3E468046024600204FF48D
:1008A0008011FFF761FCC2197141BB1846EB0100D2
:1008B000B4EB030C75EB000C04D3E41A65EB0005F4
:1008C00017460E46241908F101006D418046342870
:1008D000E3DDF91946EB0600091BA84103D24FF0EE
:1008E000FF32134601E0002213461BEB070046EBE4
:1008F0000A51BDE8F04DFFF752BF0000064C074D0E
:1009000006E0E06840F0010394E8070098471034DF
:10091000AC42F6D3FFF710FC647900088479000834
:1009200070B58C1810F8015B15F0070301D110F8B1
:10093000013B2A1106D110F8012B03E010F8016BDE
:1009400001F8016B5B1EF9D12B0705D40023521E61
:100950000DD401F8013BFAE710F8013BCB1A921CC9
:1009600003E013F8015B01F8015B521EF9D5A142C7
:10097000D8D3002070BD0000B0B5E1B14FF0000C3D
:1009800002EB4C0432F81C300CF1020C64888C45EC
:1009900023F0030324F0030450F803E00559C55085
:1009A00040F804E003440444D3F804E065685D6063
:1009B000C4F804E0E4D3B0BD2DE9F047B0F800A0DE
:1009C000984691460C460746012A0ED1BAF1000F0F
:1009D00042D0261D554600BF31684FF00040FFF75A
:1009E00037FC46F8080B013DF6D1BAF1FF0F0CDDDC
:1009F000BAF5806F13DBBAF5805F27D0BAF5006FC8
:100A000014D0BAF5806F1CD026E0BAF13F0F12DC8B
:100A1000BAF1100F15D0BAF1200F07D01CE0BAF5CB
:100A2000807F03D0BAF5007F10D015E0384621460C
:100A300000F084F910E0BAF1400F07D0BAF1800F4E
:100A40000AD13846214600F037F805E07A6820469A
:100A50005146012300F034FDB8F1000F04D0BA680C
:100A6000B9892046FFF788FFB9F1010F22D150461E
:100A7000FFF7A0FD01464FF07E50FFF721FCBAF1D1
:100A8000000F08BFBDE8F087064600BFD4E9001795
:100A90003046FFF7E3FB206030463946FFF7DEFBC8
:100AA00001464FF00040FFF7D3FB60600834BAF115
:100AB000010AEBD1BDE8F0872DE9F04F9BB0028829
:100AC000059101EB82011491019040680021B1EB86
:100AD000D20F04904FEA5200029000F01D81D0081E
:100AE000029A05994FF0000A404201EB82010391FE
:100AF000149901EB820113911290059D55F80A009B
:100B00000A90149A52F80A1014460991FFF74EFB06
:100B1000139B05EB0A0703EB0A0153F80AB04A6876
:100B2000119108928A68C9681A921791DDF80C90A1
:100B300009EB0A0659F80A8071681591B168169197
:100B4000F168189104EB0A01CDF82CB0CDF8308093
:100B500019914A688C68C96845F80A007868BD68C8
:100B600007920E9410910690F8680D950F90FFF77C
:100B70001DFBF86028462146FFF718FB079C069DE1
:100B8000B86028462146FFF711FB78604046594679
:100B9000FFF70CFB49F80A00DDE91710FFF706FB29
:100BA000F06016981A99FFF701FBDDF82080B0601D
:100BB00015984146FFF7FAFA7060DDE90910FFF772
:100BC00047FB074628462146FFF742FB049E0446A2
:100BD000384656F80A904946FFF740FB06EB0A0BE9
:100BE00005462046DBF804603146FFF737FB014637
:100BF0002846FFF7DBFA149941F80A0020464946D7
:100C0000FFF72CFB044638463146FFF727FB014629
:100C10002046FFF71DFB19994860DDE90B01FFF73E
:100C200017FB159904464046FFF712FB0546204680
:100C30003146FFF713FB074628464946FFF70EFBF0
:100C400001463846FFF704FB139941F80A0028468D
:100C50003146FFF703FB054620464946FFF7FEFAFB
:100C60002946FFF7A3FADDF84490C9F80400DDE94E
:100C70000D01FFF7EDFA0646DDE90F01FFF7E8FA8F
:100C8000DBE9028B07464146FFF7E8FA04463046A7
:100C90005946FFF7E3FA01462046FFF7D9FA199DB6
:100CA0004146E8603046FFF7D9FA044638465946CF
:100CB000FFF7D4FA01462046FFF778FAA8601A98A1
:100CC0001699FFF7C5FA0446DDE91701FFF7C0FAE8
:100CD00059460646FFF7C2FA074620464146FFF747
:100CE000BDFA3946FFF762FAC9F80C0020465946AA
:100CF0004F46FFF7B3FA044630464146FFF7AEFAD7
:100D000001462046FFF7A4FAC9F8080012980AF134
:100D1000100A01307FF4F0AE029C0598049A022379
:100D2000214600F0CDFB0198214602234268149829
:100D30001BB0BDE8F04F00F0C3BB00002DE9F04F41
:100D4000B3B0834600880C4662684FEA500A2D9083
:100D5000206801EB8A0858F82A102E912C902B92CB
:100D6000FFF724FA54F82A1032903091FFF71EFA58
:100D700008EB8A0555F82A102F91FFF717FA05EBB3
:100D80008A01D5F80490D8F8047005914E68DBF814
:100D90000410CDF810B0206006914946DDF8ACB0E3
:100DA0005846FFF703FA39463190FFF7FFF931460D
:100DB000FFF7FCF960602C982E99FFF749FA394645
:100DC0002E90FFF7F3F93146FFF742FA44F82A0074
:100DD000584649462394FFF73BFADDF8C090044695
:100DE0004946FFF735FADDF8BCB05946FFF7DEF9A2
:100DF000C8F8040032984946FFF72AFA5946FFF727
:100E000027FACDF80C8048F82A0039463198FFF7C8
:100E10001FFA3146FFF71CFA68602E983946FFF733
:100E200017FA3146FFF7C2F945F82A00204649462D
:100E30000295FFF7BBF95946FFF70AFA0599002713
:100E400000234FEA8A0548606FF0030000EB8A0137
:100E50002B916FF0070101EB8A0230926FF00102D3
:100E60002D9E31934FEACA0302EB9602A7EB520282
:100E70002E9200EBCA022A9201EBCA02329201EBD7
:100E80000A122F9200EB0A1229920AEB4A0201EB96
:100E9000820100EB8200970028912790B008002182
:100EA00001902D9100212C9187E100BFCDE91565BE
:100EB000DDF88C902A9809EB00060C962B9809EB2C
:100EC000000A279809EB000112910968299809EB9B
:100ED000000507F118001E95139002F110000F9005
:100EE00004F1080014970790DAF800000A901091B6
:100EF0000D92FFF75BF9316811902691FFF756F9D3
:100F000029682591FFF752F92F9F59F807200B9276
:100F10002F97329E59F8062024923296289959F834
:100F200001100991309D59F80530CAF800001846A3
:100F300008933095FFF73AF959F806100E90FFF72D
:100F400035F959F80710FFF731F949F80500079806
:100F5000209DD0F800A028465146FFF77FF9E468AD
:100F6000229F064638462146FFF778F9014630466B
:100F7000FFF71CF9C8F8000038465146FFF76EF934
:100F8000064628462146FFF769F901463046FFF735
:100F90005FF9CBF80000DDE90801FFF759F920906F
:100FA00005460A981099FFF753F922900646DDE9A5
:100FB0002510FFF74DF9014610902846FFF7F6F887
:100FC000DDF89080054630464146FFF741F9DDF8EF
:100FD0002CB05946FFF7EAF821460646FFF73EF9DE
:100FE000074628465146FFF739F901463846FFF7CC
:100FF0002FF90C99086028462146FFF72FF904467F
:1010000030465146FFF72AF92146FFF7CFF83299CB
:101010001F9F49F801000F98D0F800A038465146AC
:10102000FFF71CF905460D98219C4669204631467C
:10103000FFF714F901462846FFF7B8F81899086039
:1010400020465146FFF70AF9054638463146FFF774
:1010500005F901462846FFF7FBF8179908600E9836
:101060004146FFF7F5F85946FFF7F2F805461198A3
:101070002699FFF7EDF82599FFF7EAF8514607465C
:10108000FFF7ECF801464FF00040FFF7E1F80446A7
:1010900028463146FFF7E2F801462046FFF7D8F828
:1010A0001299086028465146FFF7D8F8044638469A
:1010B0003146FFF7D3F82146FFF7CAF8DDF8A0A0C4
:1010C000159C49F80A001398D0F800802046414644
:1010D000FFF7C4F806461498169FC5693846294696
:1010E000FFF7BCF801463046FFF760F81999086031
:1010F00038464146FFF7B2F8064620462946FFF734
:10110000ADF801463046FFF7A3F81A990860109829
:101110002099FFF79DF8249906465846FFF798F85E
:101120002299FFF795F829460746FFF797F80446F6
:1011300030464146FFF792F801462046FFF788F80F
:101140001E99086030462946FFF788F8044638465D
:101150004146FFF783F82146FFF728F82F9949F811
:1011600001002B9808382B903098083830902E9832
:1011700001302E902A9808382A90329808383290F8
:101180005046AAF10800289027980838279008466A
:10119000A1F108002F90299808382990319808303B
:1011A00031902D9810302D902C9818302C901B9F3A
:1011B0001D9B1C9D083708330835239C319904EB8F
:1011C000010AE618DAF80800DAF80C9022901D936C
:1011D000159656F8081F2091FEF7E8FF04EB050866
:1011E00026901C95CDF8508058F8081F2591FEF7E1
:1011F000DDFF1B972744169757F8081F2491FEF729
:10120000D5FF199757F8041FC3465BF8045F1E917A
:10121000189656F8044FCAF8080048462146179613
:10122000FEF7C4FFDBF800102190FEF7BFFF39681E
:101230001A97FEF7BBFFCAF80C0022982099FFF717
:1012400007F829460646AA46FEF7B0FF1E9D294626
:10125000FEF7FEFF209048462146FEF7F9FF259F46
:1012600004463946FEF7F4FFDDF890904946FEF754
:101270009DFF229039462698FEF7EAFF4946FEF781
:10128000E7FF1F9051462198FEF7E2FF2946FEF73F
:10129000DFFF219030465146FEF7DAFF2946FEF780
:1012A00085FF064620463946FEF780FF4946FEF791
:1012B000CFFF054606982C9947182D994218319969
:1012C00044182E9800287FF4F1ADD4E90294924698
:1012D000329449462298FEF7C1FFDDF880B080467F
:1012E00021465846FEF7BAFF01464046FEF7B0FFDA
:1012F000DDF850804946C8F80C005846FEF7AEFFAE
:10130000044622983299FEF7A9FF01462046FEF7CF
:101310004DFFC8F80800DAE9048ADDF884B05846C1
:101320004146FEF79BFF1F9C814651462046FEF733
:1013300095FF01464846FEF78BFFDDF85490414685
:10134000C9F80C002046FEF789FF804658465146F2
:10135000FEF784FF01464046FEF728FFC9F8080063
:101360002846D7E906482146FEF778FF074630466B
:101370004146FEF773FF01463846FEF769FF169FA8
:101380002146F8603046FEF769FF0446284641468C
:10139000FEF764FF01462046FEF708FF019DB86096
:1013A0002398069A0423294600F08AF8049C03989F
:1013B00029460423626800F083F86268029829468F
:1013C000042300F07DF8626805982946042333B0B1
:1013D000BDE8F04F00F074B82DE9F04381B0054648
:1013E000002090460C46B0EB920F4CD04FEA98008C
:1013F000C0F10009D5E900070146FEF72FFF0646B8
:1014000038463946FEF72AFF01463046FEF7CEFE43
:1014100003F064FB2060D5E902060146FEF71EFFDB
:10142000074630463146FEF719FF01463846FEF7BB
:10143000BDFE03F053FB6060D5E904060146FEF7EC
:101440000DFF074630463146FEF708FF0146384695
:10145000FEF7ACFE03F042FBA060D5E906060146AC
:10146000FEF7FCFE074630463146FEF7F7FE014622
:101470003846FEF79BFE03F031FBE0601034203568
:1014800019F10109B6D118F0030016D0474200BF88
:10149000D5E900060146FEF7E1FE804630463146BA
:1014A000FEF7DCFE01464046FEF780FE03F016FB29
:1014B00044F8040B08350137EAD101B0BDE8F083E8
:1014C0002DE9F04FC3B00C460392CDE9010318910A
:1014D000E208DDF804B0E600D5000592A5EBD400E3
:1014E0002095C000429010011D905001199002EB10
:1014F000420002EB8202C300070100201C93D300CC
:10150000CDE91A64CDE91E734190DDF86490DDE900
:101510001C785BF805005BF8031035903691FEF7F8
:1015200045FEDDF808A104462F905BF807005BF844
:101530000A1034903391FEF739FE01462D90204673
:10154000FEF734FE06465BF80910DBF80000389120
:101550003790FEF72BFE1E9904462B905BF808008F
:101560005BF801103D903C91FEF720FE01462A9069
:101570002046FEF71BFE31460446FEF717FECBF869
:10158000000020463146FEF763FE4BF80900209824
:10159000584442683E901F985844319241684090A8
:1015A00010463091FEF702FE0BEB0A01044626902E
:1015B0000BEB07003F9040683B9149682E902C91BF
:1015C000FEF7F4FD824620465146FEF7EFFD0BEB99
:1015D00009040746DBF804000BEB08066168279650
:1015E00039903A91FEF7E2FD80461E9872685844A1
:1015F00029924168289010463291FEF7D7FD0646A1
:1016000040463146FEF7D2FD39468146FEF7CEFD13
:10161000CBF8040048463946FEF71AFE606026986B
:101620005146FEF715FE0746DDE92A10FEF710FECB
:1016300039460446FEF7BAFD1D994BF801002046D5
:101640003946FEF705FE1E994BF801002F982D999B
:10165000FEF7FEFD044640463146FEF7F9FD214601
:101660000546FEF7F5FD2799486020462946FEF716
:101670009DFD28994860DDE93501FEF7E9FD3690CA
:101680000446DDE93310FEF7E3FD014635902046C0
:10169000FEF7DEFD40F2F341C3F63571FEF7DEFDE5
:1016A0000446DDE93010FEF7D3FD054634902E9850
:1016B0002C99FEF7CDFD814628464946FEF776FD7A
:1016C00040F2F341C3F63571FEF7C8FD0546DDE98A
:1016D0003701FEF7BDFD21460646FEF767FD0746CA
:1016E00029983299FEF7B4FD29468046FEF75EFD43
:1016F000824638465146FEF759FD20994BF80100C5
:10170000384640F2F3475146C3F63577FEF7A0FD61
:1017100042994BF8010030462146FEF799FD0446F8
:1017200040462946FEF794FD054620462946FEF729
:101730003DFD1F994BF8010020462946FEF788FD24
:101740001C994BF80100DDE93510FEF72FFD3946F5
:10175000FEF784FD804634984946FEF779FD394608
:10176000FEF77CFD8146DDE93C10FEF771FD414648
:101770000646FEF71BFD0746DDE93901FEF768FD69
:1017800049460446FEF712FD39460546FEF760FD60
:101790003E99486038462946FEF708FD3B99486067
:1017A00030464146FEF754FD054620464946FEF7C1
:1017B0004FFD29460446FEF74BFD409948602846F8
:1017C0002146FEF7F3FCDDE91F35DDE91A643F9A97
:1017D000189950604198B34420448842FFF494AE75
:1017E000402CC0F0AD820298DDF804C000244FF018
:1017F000010B80B204900598C0EBC0004FEAC0080E
:10180000CDF824800498039EE146CDF81CB0CDF8B5
:101810001890044456F83400C4EBC40E04EB840C56
:10182000620104EB44010894179056F83E001690AC
:1018300056F83C001590B0580432B258149056F83F
:101840003100119213902001021D3758B058E20068
:10185000043212974F461090B0580A010F90B058BA
:101860000E904FEACE00043030580D90101D3058C5
:101870000C904FEACC00043030580B90C800043074
:1018800030580A90FA187819CDF800B14297419073
:101890008068916891463E9235903691FEF786FCBD
:1018A00004462A9042981C9900EB010B4298DBF801
:1018B0000820CDF8FCB000EB080ADAF80810104652
:1018C0003392CDF8F4A03491FEF770FC01462B90D2
:1018D0002046FEF76BFC074623904298199908446E
:1018E000816821904298826842983891D0F80C80A3
:1018F00010463792CDF8E880FEF758FC054629904F
:101900001D9842990C1842981E99A268279446186F
:10191000B16810463C922C963B91FEF747FC01467D
:1019200028902846FEF742FC39462290FEF73EFCFE
:10193000429988604198D9F80C10C0682F91309076
:10194000FEF734FC0546DBF80C00DAF80C102E909C
:101950002D91FEF72BFC014626902846AA46FEF75D
:1019600025FCDDF8849005464046D9F80C103991E5
:10197000FEF71CFCF16807462590E0683290319133
:10198000FEF714FC014624903846FEF70FFC29466A
:101990000746FEF70BFC4299C860DDE92201FEF71D
:1019A00057FC044638462946FEF752FC149E8346EF
:1019B00059463046FEF752FC119D074621462846FF
:1019C000FEF74CFC01463846FEF742FCC9F80C0015
:1019D000304621464F46FEF741FC0446284659460C
:1019E000FEF73CFC01462046FEF7E0FBC9F8080084
:1019F000DDE92A01FEF72CFC269905462B9050467E
:101A0000FEF726FC8146DDE92810FEF721FC494659
:101A10008046FEF7CBFB0446DDE92410FEF718FCF8
:101A200029468246FEF714FC129F06463146384688
:101A3000FEF714FCDDF840B0054621465846FEF797
:101A40000DFC01462846FEF703FC279D2146E86071
:101A50003846FEF703FC044658463146FEF7FEFBC7
:101A60002146FEF7A3FBA86040464946FEF7F0FB7F
:101A700004462B985146FEF799FB0E9F804641463F
:101A80003846FEF7EBFB0C9D064621462846FEF73E
:101A9000E5FB01463046FEF7DBFB2C9E2146F0605D
:101AA0003846FEF7DBFB044628464146FEF7D6FBE8
:101AB0002146FEF77BFBB060DDE93501FEF7C8FB90
:101AC0008046DDE93301FEF7C3FB834640465946B5
:101AD000FEF7BEFB40F2F34AC3F6357A5146FEF7F5
:101AE000BDFB36900446DDE92F10FEF7B1FB06463C
:101AF000DDE92D10FEF7ACFB074630463946FEF710
:101B000055FB5146FEF7AAFB35900546DDE9370146
:101B1000FEF79EFB21463890FEF748FB30900446C6
:101B2000DDE93110FEF794FB29463790FEF73EFBC6
:101B3000014632902046FEF739FB81464046594621
:101B4000FEF734FB5146FEF789FB044634903046DD
:101B50003946FEF77DFB5146FEF780FB3390054684
:101B6000DDE93B10FEF774FB21463C90FEF71EFBBF
:101B70000646DDE93910FEF76BFB29463B90FEF780
:101B800015FB31460746FEF763FB179D824651461B
:101B90002846FEF763FBDDF83CB00446494658464C
:101BA000FEF75CFB01462046FEF752FBDDF80481A0
:101BB0004946C8F80C002846FEF750FB0446584634
:101BC0005146FEF74BFB01462046FEF7EFFAC8F8F8
:101BD000080030983299FEF73BFB04463046394600
:101BE000FEF7E4FA169D804641462846FEF736FB8E
:101BF0000D9E074621463046FEF730FB014638462B
:101C0000FEF726FB3D9F2146F8602846FEF726FB9F
:101C1000044630464146FEF721FB01462046FEF7CA
:101C2000C5FAB86038983699FEF712FB0446419021
:101C300037983599FEF70CFB01463D902046FEF79C
:101C4000B5FA07463C983499FEF702FB82463B986A
:101C50003399FEF7FDFA51468346FEF7F9FA159DD2
:101C6000064631462846FEF7F9FADDF82C80044690
:101C700039464046FEF7F2FA01462046FEF7E8FAFA
:101C8000DDF8F8903946C9F80C002846FEF7E6FA68
:101C9000044640463146FEF7E1FA01462046FEF78B
:101CA00085FAC9F8080041983D99DDF82480FEF7CF
:101CB000CFFA044650465946FEF778FA139F8346FA
:101CC00059463846FEF7CAFA0A9D06462146284676
:101CD000FEF7C4FA01463046FEF7BAFA3F9E2146A7
:101CE000F0603846FEF7BAFA044628465946FEF731
:101CF000B5FA01462046FEF759FADDF800B1429FD9
:101D0000DDE91F351B9AB0601A981899934407446F
:101D10008B45FFF4B7ADDDF81CB0DDF818C00598B1
:101D2000089C0BF1010B0CF1080C8345FFF46AAD24
:101D30000298059C3F2A4FEAC00002903FF6C8ABCC
:101D400043B0BDE8F08F000070B5044600688168BC
:101D5000C943C90717D1816821F00101816000F0F2
:101D600091FE05460AE000BF00F08CFE401B0228F1
:101D700004D920688068C043C00706D02068806806
:101D8000C043C007F0D0002070BDA06A40F0100032
:101D9000A062E06A40F00100E062012070BD10B571
:101DA0000146406A826A12F0500F05D0006A026B49
:101DB000BDE8104008461047816A41F40071816215
:101DC00001688968C1F3424107290CD1017B51B9EF
:101DD000816A21F480718162816AC90403D4816AB5
:101DE00041F00101816200F043FA10BD10B5406A74
:101DF000816A41F040018162C16A41F00401C1621F
:101E000000F038FA10BD10B5406A00F032FA10BD8B
:101E1000F8B500260446009600688168C943C907E2
:101E20002DD0816841F00101816016481649006893
:101E3000B0FBF1F000E0401E00900028FBD100F064
:101E400021FE054616E000BF00F01CFE401B0228E4
:101E500010D920688068C043C0070BD0A06A40F04A
:101E60001000A062E06A40F00100E06284F82460A3
:101E70000120F8BD20688068C043C007E4D100207D
:101E8000F8BD0000D001002040420F00FEE710B571
:101E90000446D4E90001FEF7DBF9E168FEF7DEF95C
:101EA000E061616AA068FEF7DFFB07D1E1692069A4
:101EB000FEF7D4F9A16AFEF779F900E0A06A206282
:101EC000A062E26901461046FEF770F9606261693E
:101ED000FEF7D4FB01D2606900E0606AA060A169EE
:101EE000FEF7C2FB01D2A06900E0A068A06010BDAF
:101EF00000210160416081604FF07E52C160C0E905
:101F000004128161C161016241628162C1627047F4
:101F10002DE9F05F474800F00DFB474C474F484D17
:101F20002078C00715D047480068FEF748FB4FF0FF
:101F30006632454BFEF7B5FA6FF00B02FEF723FB56
:101F4000FEF776FB396845F82100491C012039600D
:101F5000207020784FF48066401C207038683B4C1D
:101F6000DFF8EC90B0424AD300213A4A0846396083
:101F700055F8203042F8303002EBC003401C596065
:101F8000B042F5DB0123002232493348FEF714FD4D
:101F9000B046324631492F48FFF71EFA2F4F6FF0F7
:101FA000090A51463868FEF7C9F901266FF0080B97
:101FB000C7F8000057F826005946FEF7BFF947F862
:101FC0002600761C4645F5DB5FF0000655F8260036
:101FD0000146FEF743F9FEF7FFFAD4E90023FEF7C6
:101FE000B9F9761C4645C4E90001EFDB5246FEF71D
:101FF000CAFAC4E9000102F04BFDC4E90001D4E9CA
:1020000000010022164BFEF7FBFA03D8D9E90010B5
:10201000C4E90010D4E90001124A134CC9E90001D7
:1020200012682260FEF704FB60602046BDE8F05FA6
:10203000FFF72DBF40420020C0010020A801002072
:10204000E00100201000002066660A40B001002078
:10205000B8010020E011002054590008E0310020B0
:102060000000244008000020E041002030B590F836
:1020700040500124AC40C56B6C60046863604368E9
:10208000102B036803D099600068C26030BD9A606D
:102090000068C16030BD704772B6FEE7F8B5002534
:1020A0000446009590F8240001280BD0012084F804
:1020B00024002046FFF748FE2046FFF7A9FE060051
:1020C00002D050E00220F8BDA06A20F4885040F011
:1020D0000200A062022000F0FDFE25490968B1FB64
:1020E000F0F0400000E0401E00900028FBD1206886
:1020F000816841F00801816000F0C4FC074608E0F7
:1021000000F0C0FCC01B0A2803D9206880680007C3
:1021100015D4206880680007F2D42068816841F0F7
:102120000401816000F0AEFC074612E000F0AAFC5A
:10213000C01B0A280DD920688068400709D5A06A0D
:1021400020F0020040F01000A06284F8245001202A
:10215000F8BD206880684007E8D4A06A20F002003B
:1021600040F00100A06284F824503046F8BD000021
:10217000D0010020F8B50024009490F824202546D2
:10218000012A12D0012280F824204A681F23072A3E
:102190000DD20668776B521E02EB820293409F437A
:1021A0000B6893401F43776319E00220F8BD06686F
:1021B0000D2A0AD2376BD21F02EB820293409F4353
:1021C0000B6893401F43376309E0F76A0D3A02EB4F
:1021D000820293409F430B6893401F43F7620A6853
:1021E000072306680A2A0AD3F7680A3A02EB420272
:1021F00093409F438B6893401F43F76008E0376923
:1022000002EB420293409F438B6893401F43376128
:102210000A68102A01D0112A20D1124B02689A4272
:1022200017D193681B0219D4936843F40003936099
:102230000968102912D10C490C4A0968B1FBF2F166
:1022400001EB8101490000E0491E00910029FBD10A
:1022500004E0816A41F020018162012480F8245069
:102260002046F8BD00240140D001002040420F006C
:1022700070477047704700002DE9F04104004FF0AF
:1022800000057FD0A06A002628B9E66284F82460A1
:10229000204600F081F82046FFF756FDA16AC906E6
:1022A00000D420B1A06A40F01000A0626AE0A16AE8
:1022B00021F4885141F00201A162334923688B4225
:1022C000E16904D1B1F5402F01D14FF40021277B02
:1022D0004FF4807C41EA470261680A43A168614586
:1022E00008D0012906D0002194F814E0BEF1010FB6
:1022F00002D00AE06146F7E7C7B1A76A47F02007B6
:10230000A762E76A47F00107E7625F6827F4694759
:102310000F435F60236899681C4F394011439960EF
:10232000A16861450BD0012909D00CE0DFF860E01D
:10233000A7690EEB47370F4347F40061E5E7218AB1
:102340000D05A5F580152168CB6A23F470032B4396
:10235000CB62216889680F4B1940914208D1E6622F
:10236000A16A21F0020141F00101A162BDE8F08102
:10237000A06A20F0020040F01000A062E06A40F085
:102380000100E0620120F1E7003C0140FDF7E1FFC0
:1023900000E0FFFFFE0E1FFF70B586B00025064669
:1023A000009501950295039500681A4988422ED13F
:1023B0001949886940F400708861886900F40070E8
:1023C0000490886940F0040088618869694600F0DB
:1023D0000400049060200090032001900F4800F05A
:1023E00043FA104C0E48C4E900058020C4E90250AD
:1023F00080002061800060612020C4E9060520463D
:1024000000F0BCF908B1FFF747FE3462666206B01F
:1024100070BD00000024014000100240000801408F
:1024200008000240404200202DE9F047894604465A
:102430003B4900683B4F0E1D9046884201D0B84290
:1024400007D1306810F4702F03D001252846BDE86D
:10245000F08794F8240001280CD0012084F824008F
:102460002046FFF7D5FC05004FF0000004D084F8AB
:102470002400EBE70220EAE7A16A40F601629143FB
:1024800041F48071A1622168B94218D1326812F416
:10249000702F14D0A16A41F48011A16231684905FE
:1024A00005D5A16A21F4005141F48051A162A16ACD
:1024B000C9040AD5E16A21F00601E16206E0A26AD8
:1024C00022F48012A2624968E9E7E06284F82400FD
:1024D000216A15488862216A1448C862216A144832
:1024E000086321686FF0020008602068816841F489
:1024F00080718160216843464A464C31206A00F071
:102500007BF920688168C1F342410729816803D0C3
:1025100041F48011816099E741F4A001FAE70000DD
:1025200000240140002801409F1D0008071E0008EC
:10253000ED1D00082DE9F05FC16B0A6801680B68AA
:10254000046C4FF0040808FA04F8844D844E854F5B
:10255000DFF814C2DFF81492DFF814A2DFF814B227
:10256000DFF814E218EA020F65D05FEA437862D51B
:102570000A68920603D40A6822F004020A60DFF8AF
:10258000F0814FF48062016808F11408130114020D
:10259000414524D9A9420DD0B1420FD0B9421AD039
:1025A000614515D0494515D0514501D1120312E0BE
:1025B000594501D104220EE0714501D140220AE0C3
:1025C0006D4D1435A94206D06B4A2832914201D193
:1025D0001A4600E022466749091F0A6029E0A9421D
:1025E00013D0B14215D0B94220D061451BD0494526
:1025F0001BD0514502D14FF4800217E0414502D172
:102600004FF0806212E0594501D104220EE071457D
:1026100001D140220AE0584D1435A94206D0564A4D
:102620002832914201D11A4600E022464B4908392E
:102630004A60C16A71E04FF0020808FA04F818EA2B
:10264000020F70D05FEA83786DD50A68920606D4CF
:102650000A6822F00A020A60012180F82110DFF8DE
:1026600010814FF40072016808F11408130114027C
:10267000414524D9A9420DD0B1420FD0B9421AD058
:10268000614515D0494515D0514501D1120312E0DD
:10269000594501D102220EE0714501D120220AE004
:1026A000354D1435A94206D0334A2832914201D122
:1026B0001A4600E022462F49091F0A6029E0A94274
:1026C00013D0B14215D0B94220D061451BD0494545
:1026D0001BD0514502D14FF4001217E0414502D101
:1026E0004FF0007212E0594501D102220EE071450F
:1026F00001D120220AE0204D1435A94206D01E4AFD
:102700002832914201D11A4600E022461349083985
:102710004A60002180F82010816A00291CD0BDE8A1
:10272000F05F0847FFE70825A540154214D01A07B7
:1027300012D50A6822F00E020A6090F84020C36B9E
:10274000012101FA02F25A60816380F82110002110
:1027500080F82010016BE0E7BDE8F09F0800024020
:102760001C00024030000240440002405800024079
:102770006C000240080402401C04024030B560B105
:102780001A4B026814219A4209D2194B1344B3FB25
:10279000F1F18900016417490AE0012030BD134BB3
:1027A0005B421344B3FBF1F1890001640F4908391E
:1027B000C163022180F82110136843F6F0718B4346
:1027C000F0E901142143D0E902452C432143046977
:1027D0002143446921438469214319431160002145
:1027E0004163012242770177084630BD0804024068
:1027F000F8FFFDBF0000024070B5044690F82000CD
:10280000002501280CD0012084F8200094F82160D4
:102810000020012E06D084F820000225284670BD35
:10282000022070BD022684F82160A063206806683B
:1028300026F0010606602046FFF718FCE06A002833
:102840002068016802D041F00E0106E021F0040189
:1028500001602068016841F00A0101602068016898
:1028600041F001010160D9E72DE9F84FDFF8C89187
:102870000024A9F1040B23460F2709F1040AABF148
:10288000040ED1E00125A54006EA0502AA4276D150
:10289000DFF8A8C14E68A6EB0C0866452BD00DDC0E
:1028A000032E34D005DC36B3012E19D0022E2FD1E1
:1028B0001BE0112E16D0122E2AD119E0B8F5881F70
:1028C00019D006DCB8F5803F15D0B8F5801F1FD1B0
:1028D00011E0B8F5001F0ED0B8F5041F18D10AE0BA
:1028E000CB6815E0CB681B1D12E0CB6808330FE006
:1028F000CB680C330CE08B682BB1012B4FF0080335
:1029000003D0456104E0042302E0056100E00023F8
:10291000FF2A01D8064601E000F104064FEA8405CB
:1029200001D9A5F12005D6F8008007FA05FC28EAB0
:102930000C0803FA05F548EA0508C6F800804D685A
:10294000ED0070D53E4DAE6946F00106AE61AD6951
:1029500024F0030605F0010500953A4D06EB050C41
:10296000DCF80850A607360F07FA06F825EA08052E
:10297000DFF8D480404503D14FF0000825E052E055
:10298000DFF8C880404502D14FF001081DE0DFF8B4
:10299000C080404502D14FF0020816E0DFF8B48055
:1029A000404502D14FF003080FE0DFF8AC8040450E
:1029B00002D14FF0040808E0DFF8A080404502D1C2
:1029C0004FF0050801E04FF0060808FA06F848EA5B
:1029D0000508CCF808804D68D9F80060ED024D4636
:1029E00001D5164300E096432E604D68DAF800608A
:1029F000AD02554601D5164300E096432E604D6862
:102A0000DBF80060AD035D4601D5164300E0964358
:102A10002E604D68DEF80060ED03754601D5164363
:102A200000E096432E60641C0A681646E2407FF47C
:102A300029AFBDE8F88F0000080401400000111024
:102A4000001002400000014000080140000C01405D
:102A5000001001400014014000180140001C01401A
:102A60008068084000D001207047C26821EA020354
:102A70000A4043EA0241016170470AB101617047AF
:102A80000904FBE70148806870470000C40100208A
:102A900070B5040025D094F83D00002520B984F8D5
:102AA0003C50204600F04EF9242084F83D00206878
:102AB000016821F0010101602068016841F40041D2
:102AC00001602068016821F40041016000F06AFBA8
:102AD0004D4A6168914201D84C4900E04C49884216
:102AE00001D2012070BD4B492368B0FBF1F15E6853
:102AF00026F03F060E435E606368934206D94FF4AA
:102B0000967359434FF47A73B1FBF3F12368491C70
:102B10001E6A26F03F06314319626168914210D85F
:102B20004900401EB0FBF1F2521CC2F30B02042A12
:102B300001D2042022E0B0FBF1F0401CC0F30B00F6
:102B40001CE0A268F2B301EBC10303EB0116431EC4
:102B5000B3FBF6F35B1C43F480431B0549D092B3EF
:102B600001EBC10202EB0111401EB0FBF1F0401C71
:102B7000C0F30B0040F4804040F400402168CA6973
:102B80004CF6FF739A431043C861D4E90710014320
:102B90002068026822F0C00211430160D4E90301F9
:102BA00001432068826848F2FF339A4311438160F1
:102BB000D4E9050108432168CA6822F0FF021043E6
:102BC000C86001E00EE016E02068016841F00101F4
:102BD00001602564202084F83D00256384F83E5080
:102BE000002070BD01EB4106431EB3FBF6F35B1CF6
:102BF000B3E70120C2E701EB4101401EB0FBF1F059
:102C0000401CC0F30B00B7E7A086010080841E00C3
:102C100000093D0040420F002DE9F84F1F46904645
:102C20008A460446DDF82890FFF72CFF054694F805
:102C30003D0020287FD119230122404920460095DC
:102C400001F04CF9002876D194F83C00012872D0AC
:102C5000012084F83C0020680168C90703D101689D
:102C600041F0010101602068016821F40061016008
:102C7000212084F83D00102084F83E0000262664C0
:102C8000C4F824806785608D20852D48E0622B463E
:102C90004A465146204601F0A7F890B9206841699C
:102CA0008069009036E02A464946204601F0BCF98A
:102CB00050B1206C042804D12068016841F40071EF
:102CC00001600120BDE8F88F606A21680078086122
:102CD000606A401C6062618D491E6185218D491EBC
:102CE00089B2218522685369DB435B070BD451B15C
:102CF00000781061606A401C6062608D401E6085D3
:102D0000208D401E20852A464946204601F0BAF80B
:102D10000028CED1208D0028C5D154F83D0B016884
:102D200041F400710160202004F81E09E6776677FF
:102D30000020C7E7FFE70220C4E700000200100000
:102D40000000FFFF10B586B00021009101910291B3
:102D500003910068104988421BD1104CA06940F0D3
:102D60000800A061A069694600F0080004904FF4D3
:102D70004060009012200190032003900848FFF764
:102D800073FDE06940F48000E061E06900F48000D8
:102D9000049006B010BD0000005800400010024032
:102DA000000C01400248816802781144816070473C
:102DB000C4010020074810B5016841F0100101600E
:102DC000032000F075F80F2000F006F800F024F85A
:102DD000002010BD0020024070B50D4D04464FF498
:102DE0007A712878B1FBF0F00A490968B1FBF0F07C
:102DF00000F0AEFB48B9102C07D200222146501E2D
:102E000000F036F800206C6070BD012070BD00003D
:102E1000C4010020D00100200C4808B5816941F0B0
:102E200001018161816901F001010091C16941F0F5
:102E30008051C161C06900F0805000900448416831
:102E400021F0E06141F00071416008BD00100240D6
:102E500000000140002809DB00F01F020121914021
:102E60004009800000F1E020C0F800117047000028
:102E7000F0B40E4B1B680C46C3F30223C3F10705E5
:102E8000042D00D90425191D072901D2002300E0D3
:102E9000DB1E012606FA05F1491E214099409E409D
:102EA000761E16403143F0BC01F00DBD0CED00E084
:102EB000064900F0070208684FF6FF03184040EA91
:102EC0000220034A10430860704700000CED00E048
:102ED0000000FA0510B501460020284C04292FD027
:102EE0000BDC012930D0022929D100F06BF961688F
:102EF000C1F38131491C49001FE0082920D0102965
:102F00001DD161682268D20119D51D48C1F38342E1
:102F1000C903805C0AD56168194AC1F34041921E19
:102F2000515C184AB2FBF1F1484301E016494843AD
:102F30006168490203D440000321B0FBF1F010BDE9
:102F4000BDE8104000F04EB9226AC2F30121012908
:102F500003D1920701D5C80310BD022905D1626AC9
:102F6000920702D549F6404010BD0329FCD12168E3
:102F70008903F9D54FF2244010BD00000010024033
:102F80001C4B000800127A0000093D002DE9F843AF
:102F900005460078354CC00754D0E0690026C000D3
:102FA00008D4E06940F08050E061E069012600F05B
:102FB000805000902E480168C90512D401688046EF
:102FC00041F480710160FFF75DFD074605E000BF39
:102FD000FFF758FDC01B642823D8D8F80000C005AF
:102FE000F6D5206A10F4407021D0A98801F4407110
:102FF00081421CD0206A1F49012220F440700A60DF
:1030000000220A602062C00711D0FFF73BFD07468F
:1030100041F2883808E000BFFFF734FDC11B41458D
:1030200002D90320BDE8F883206A8007F4D5206A1E
:10303000696820F44070084320621EB1E06920F006
:103040008050E0612878800705D56068A96820F481
:103050004040084360602878C00605D5606869690B
:1030600020F48000084360600020DBE7001002408D
:1030700000700040400442422DE9F0470F46050031
:1030800061D0434E306800F00700B84209D2306882
:1030900020F0070038433060306800F00700B84285
:1030A00051D128683B4C810712D5400703D5606891
:1030B00040F4E06060602878000703D5606840F461
:1030C000605060606068A96820F0F00008436060AC
:1030D0002878C00728D06868012810D02168022805
:1030E00010D0890700292EDA616821F0030101431D
:1030F0006160FFF7C7FC804641F288390DE0216826
:103100008903EFE78901EDE7FFF7BCFCA0EB0801BD
:10311000494502D90320BDE8F0876068696800F07E
:103120000C00B0EB810FEFD1306800F00700B8421F
:103130000BD9306820F0070038433060306800F069
:103140000700B84201D00120E5E72878400705D5FF
:103150006068E96820F4E060084360602878000750
:1031600006D56068296920F4605040EAC1006060BB
:1031700000F038F86168084AC1F30311515CC84097
:103180000649086006480068FFF726FE0020C2E7EF
:1031900000200240001002402C4B0008D00100200B
:1031A000C80100200448054900684968044AC1F381
:1031B0000221515CC8407047D0010020001002403D
:1031C0003C4B00080448054900684968044AC1F3BB
:1031D000C221515CC8407047D0010020001002405D
:1031E0003C4B00080E4A51680E4801F00C03042BBA
:1031F00011D0082B0FD10C48C1F38343C903C05C25
:103200000AD55168084AC1F34041921E515C054AF3
:103210005043B0FBF1F07047044948437047000049
:103220000010024000127A000A4B000800093D001D
:103230002DE9F84F040070D02078C04DC00749D068
:103240006868C0F38100012807D06868C0F3810076
:10325000022809D16868C00306D52868800339D5DB
:1032600060680028E7D035E06068B0F5803F0BD09B
:1032700010B1B0F5A02F11D0286820F4803028605C
:10328000286820F4802002E0286840F4803028601C
:10329000606890B1FFF7F6FB06460AE0286840F444
:1032A00080202860F0E700BFFFF7ECFB801B64285C
:1032B00073D828688003F7D50CE0FFF7E3FB0646D8
:1032C00005E000BFFFF7DEFB801B6428F0D828680C
:1032D0008003F7D420789A4E80074FF001094FF011
:1032E000000839D5686810F00C0F07D06868C0F383
:1032F0008100022809D16868C00306D428688007C5
:1033000014D52069012808D110E02069B0B1C6F8B1
:103310000090FFF7B7FB074605E00AE1FFF7B2FBB5
:10332000C01B0228C4D828688007F7D528686169BF
:1033300020F0F80040EAC10028600DE0C6F80080E7
:10334000FFF7A0FB074604E0FFF79CFBC01B022829
:1033500023D828688007F7D4207800072CD579482F
:10336000A169D9B1C0F80090FFF78CFB074604E0D3
:10337000FFF788FBC01B02280FD8686A8007F7D5C3
:1033800071484FF4FA510068B0FBF1F0009000BFB3
:103390000098411E0091FAD20EE080E0C0F8008053
:1033A000FFF770FB074604E0FFF76CFBC01B022829
:1033B00075D8686A8007F7D42078400760D5E86937
:1033C0000027C00008D4E86940F08050E861E8694F
:1033D000012700F0805000905C480168C90513D4B3
:1033E0000168834641F480710160FFF74BFB824620
:1033F00006E000BFFFF746FBA0EB0A0064284ED8AA
:10340000DBF80000C005F5D5E06801280AD008B156
:10341000052813D0286A20F001002862286A20F0CD
:10342000040002E0286A40F001002862E06841F2EE
:10343000883B98B1FFF726FB82460BE0286A40F0F4
:1034400004002862EEE700BFFFF71CFBA0EB0A01B7
:1034500059455AD8286A8007F6D50CE0FFF712FBC9
:10346000824605E0FFF70EFBA0EB0A0159454CD858
:10347000286A8007F6D41FB1E86920F08050E8611F
:10348000E06988B36968C1F38101022944D0022848
:10349000C6F8608004D0FFF7F5FA044638E034E05F
:1034A000FFF7F0FA074604E0FFF7ECFAC01B02282A
:1034B0002BD828688001F7D4206AB0F5803F05D169
:1034C0006868A16820F4003008436860D4E9080106
:1034D0000843696821F4741108436860C6F8609075
:1034E000FFF7D0FA044606E025E000BFFFF7CAFA6E
:1034F000001B022809D828688001F7D51BE000BF0F
:10350000FFF7C0FA001B022802D90320BDE8F88F9C
:1035100028688001F4D40EE00128F7D06868226A98
:1035200000F48031914204D1616A00F47010884245
:1035300001D00120EAE70020E8E700000010024087
:103540000000424280044242D0010020007000404E
:1035500010B5401EB0F1807F01D3012010BD4FF0A7
:10356000E02460610F21601701F0ADF90020A06137
:1035700007202061002010BD7047704710B590F8FB
:103580003C20012A22D0012280F83C20CA688C68A5
:1035900022F4407222434C6822F4806222430C6879
:1035A00022F4006222430C6922F4805222434C69C7
:1035B00022F400522243C969002322F480420A43C4
:1035C00001684A6480F83C30002010BD022010BD24
:1035D00070B590F83C20012A2CD0012480F83C40A2
:1035E000022280F83D2003685A689D6822F0700628
:1035F0000A6832435A60104B02689A420ED00F4B51
:103600009A420BD0B2F1804F08D00D4B9A4205D0B0
:103610000C4B9A4202D00C4B9A4204D1496825F0D7
:1036200080031943916080F83D40002180F83C10F0
:10363000084670BD022070BD002C014000340140DE
:103640000004004000080040000C004010B5044693
:10365000022249B104290ED0082913D094F845005C
:10366000012816D0012010BD94F842000128F9D19C
:1036700084F842200FE094F843000128F2D184F846
:10368000432008E094F844000128EBD184F844205A
:1036900001E084F845200422206800F0B2FF206891
:1036A000416C41F4004141640E49206888420ED0CB
:1036B0000D4988420BD0B0F1804F08D00B498842A9
:1036C00005D00B49884202D00A49884204D181685A
:1036D00001F00701062903D0016841F001010160F2
:1036E000002010BD002C01400034014000040040C7
:1036F00000080040000C004010B5040003D094F80E
:103700003D0010B107E0012010BD002084F83C000E
:10371000204600F01FF8022084F83D00211D20689B
:1037200000F01CFF012084F8460084F83E0084F875
:103730003F0084F8400084F8410084F8420084F897
:10374000430084F8440084F8450084F83D000020DC
:1037500010BD000008B5154A0168154891420ED108
:10376000816941F4006181618069002200F4006098
:10377000009011461920FFF77BFB192010E00D4A3D
:10378000914211D1C16941F00201C161C0690022B9
:1037900000F00200009002211D20FFF769FB1D20B0
:1037A000BDE80840FFF756BB08BD0000002C0140F3
:1037B000001002400004004090F83D10012901D0A3
:1037C00001207047022180F83D100168CA6842F06C
:1037D0000102CA6000680E4988420ED00D49884235
:1037E0000BD0B0F1804F08D00B49884205D00B496F
:1037F000884202D00A49884204D1816801F0070159
:10380000062903D0016841F00101016000207047E2
:10381000002C01400034014000040040000800403A
:10382000000C004070B5044690F83C0000250128CB
:1038300017D0012684F83C60022084F83D002068FF
:10384000826822F0770222F47F4282600868502862
:1038500038D00DDC20284FD005DC90B3102811D1D2
:103860004AE0022070BD302846D040280AD13BE013
:1038700060282FD070280DD0B0F5805F03D0B0F550
:10388000005F12D0012584F83D60002084F83C00E0
:10389000284670BDCB68D1E90121206800F0BEFE4A
:1038A0002068816841F0770109E0CB68D1E9012106
:1038B000206800F0B3FE2068816841F48041816097
:1038C000E1E719E0CA684968206800F07BFF5021F1
:1038D000206806E0CA684968206800F084FF60211B
:1038E000206800F0A5FECEE7CA684968206800F0AD
:1038F00069FF40212068F4E7226801461046F0E79E
:10390000704770B50446006801694FF00005C9436F
:10391000890715D4C168C943890711D4E91E01611B
:1039200001202077206880698007204602D0FFF7B9
:10393000E7FF04E000F0CAF8204600F05CF92577C4
:1039400020680169C943490717D4C168C9434907B9
:1039500013D46FF004010161022020772068806990
:1039600010F4407F204602D0FFF7CAFF04E000F0C9
:10397000ADF8204600F03FF9257720680169C9437A
:10398000090716D4C168C943090712D46FF00801AA
:103990000161042020772068C0698007204602D09A
:1039A000FFF7AEFF04E000F091F8204600F023F9A5
:1039B000257720680169C943C90617D4C168C9437E
:1039C000C90613D46FF01001016108202077206828
:1039D000C06910F4407F204602D0FFF791FF04E059
:1039E00000F074F8204600F006F925772068016998
:1039F000C943C90708D1C168C943C90704D1891E91
:103A00000161204600F052F920680169C9430906A6
:103A100009D4C168C943090605D46FF0800101616A
:103A20002046FFF7A9FD20680169C943490609D46A
:103A3000C168C943490605D46FF0400101612046C1
:103A400000F04EF920680169C94389060BD4C168AA
:103A5000C943890607D46FF0200101612046BDE803
:103A60007040FFF78ABD70BD00B585B000210091A0
:103A70000191029103910068104988421BD11048BE
:103A8000816941F0400181618069694600F0400030
:103A900004904FF47C50009002200190039009485C
:103AA000FEF7E2FE0848416821F0C00141F0E06104
:103AB00041F0C001416005B000BD0000002C014094
:103AC000001002400018014000000140704770B52E
:103AD000044690F83C0000260D4601280FD0012036
:103AE00084F83C006AB1042A1DD0082A2FD00C2A81
:103AF0003FD00126002084F83C00304670BD0220F3
:103B000070BD206800F09CFD2068816941F00801CB
:103B100081612068816921F00401816120688169E7
:103B20002A69114311E0206800F0BAFD206881691C
:103B300041F4006181612068816921F480618161C3
:103B4000206881692A6941EA02218161D2E72068FF
:103B500000F0DCFD2068C16941F00801C161206806
:103B6000C16921F00401C1612068C1692A6911435A
:103B700011E0206800F0FEFD2068C16941F4006199
:103B8000C1612068C16921F48061C1612068C16997
:103B90002A6941EA0221C161ACE710B5040003D0F3
:103BA00094F83D0010B107E0012010BD002084F81A
:103BB0003C00204600F01EF8022084F83D00211D44
:103BC000206800F0CBFC012084F8460084F83E0019
:103BD00084F83F0084F8400084F8410084F84200F3
:103BE00084F8430084F8440084F8450084F83D00DC
:103BF000002010BD7047704710B50446022249B13D
:103C000004290ED0082913D094F84100012816D0B9
:103C1000012010BD94F83E000128F9D184F83E201F
:103C20000FE094F83F000128F2D184F83F2008E02B
:103C300094F840000128EBD184F8402001E084F89A
:103C400041200122206800F0CFFC13492068134A6C
:103C5000884201D0904203D1436C43F40043436453
:103C6000206888420DD090420BD0B0F1804F08D030
:103C70000B49884205D00B49884202D00A49884244
:103C800004D1816801F00701062903D0016841F0E1
:103C900001010160002010BD002C014000340140F2
:103CA0000004004000080040000C004000680A4981
:103CB00088420FD1094A084BA2F118003433C16879
:103CC00032F811201A60491CC1600268914201D18A
:103CD0000021C16070470000002C01401800002046
:103CE000704770B5040004D094F84100002510B16D
:103CF00006E0012070BD84F84050204600F024F812
:103D0000242084F841002068C16821F40051C1607A
:103D1000204600F07BFD2068016921F4904101619B
:103D20002068416921F02A0141612068C16841F49D
:103D30000051C1606564202084F8410084F842008D
:103D40006563002070BD000030B585B0002400948C
:103D500001940294039400681449884224D11448C1
:103D6000816941F480418161816901F4804104915C
:103D7000816941F00401816180690E4D00F0040009
:103D800004904FF4007000900220019003200390F3
:103D900069462846FEF768FD2815CDE90004694606
:103DA00028460294FEF760FD05B030BD00380140A2
:103DB0000010024000080140FEE701684A69D24352
:103DC00052050FD46FF480624A61002140F8301F21
:103DD000202242738173026942F00402026101737E
:103DE0000120704700207047F8B50446C06A1E469F
:103DF0000D461746082807D0012805D010F5803F4A
:103E000002D0206B122804D12068016841F480712F
:103E10000160134600224FF001112046009600F089
:103E20005DF840B120680068C00502D54FF400700D
:103E300020640320F8BD2069B0F5804F0ED0062025
:103E4000216800EAD51040F0F000086133463A4698
:103E50000B49204600F08AF878B902E005F0FE0030
:103E600000E0E8B221680861054933463A46891FF7
:103E7000204600F07BF80028DCD00120F8BD0000CF
:103E80000800010070B516460D4604461EE02046A7
:103E9000FFF793FF08B1012070BD681C16D0FEF734
:103EA000F1FD801BA84200D885B920684069C04355
:103EB00040070BD5002044F8300F20216173A07318
:103EC000216941F0200121612073E4E72068406905
:103ED000C0434007DBD4002070BD00002DE9F0474F
:103EE000984617460D460446C1F30746DDF8209074
:103EF0002AE000BFB8F1FF3F26D0FEF7C3FDA0EBDC
:103F00000901414502D8B8F1000F1DD12068012EEA
:103F100016D0806925EA00000004000C12D00020B1
:103F2000B84211D1002044F8300F20216173A073F2
:103F3000216941F02001216120730120BDE8F08753
:103F40004069E7E70120EBE72068012E0AD080698D
:103F500025EA00000004000C06D00020B842C9D0B9
:103F60000020EBE74069F3E70120F7E72DE9F04790
:103F7000984616460D4604464FF000094FF0200AB9
:103F8000C1F3074723E020684069C043400515D4CA
:103F90002068016841F40071016021686FF480605D
:103FA0004861C4F8309084F83DA084F83E90216CBC
:103FB00041F00401216484F83C9021E0701C06D09B
:103FC000FEF760FDA0EB0800B04203D816B1012F48
:103FD0001FD021E02068012F15D0806925EA00005C
:103FE0000004000C18D000BF44F8309F84F80DA0E6
:103FF00084F80E90216941F02001216184F80C9031
:104000000120BDE8F087406925EA00000004000CAB
:10401000EAD12068406901E02068806925EA000053
:104020000004000CAFD1ECE770B516460D4604460F
:104030001EE02046FFF7C1FE08B1012070BD681CDC
:1040400016D0FEF71FFD801BA84200D885B9206856
:104050004069C04300060BD5002044F8300F2021F2
:104060006173A073216941F0200121612073E4E7AD
:1040700020684069C0430006DBD4002070BD00000A
:104080003EB500241648009401941449029401603E
:10409000891581600473047502250561C9024460B5
:1040A000C161FEF7E9F808B1FDF7F6FF05200090C1
:1040B0000120CDE9010469460948FEF75BF808B123
:1040C000FDF7EAFF0620CDE9000569460448FEF742
:1040D00051F8002801D0FDF7DFFF3EBD002401406C
:1040E00010420020094808B5416941F001014161D1
:1040F0004069002200F00100009001210B20FEF732
:10410000B7FEBDE808400B20FEF7A4BE0010024039
:104110002DE9F04786B000243348009401940294BE
:104120000394816941F040018161816901F040019E
:104130000491816941F004018161816901F0040108
:104140000491816941F0080181618069DFF89C80F8
:1041500000F008000490002220214046FEF78DFC6C
:10416000DFF88C90012211464846FEF786FCDFF806
:1041700084A04FF48077002239465046FEF77DFC3C
:10418000002220214846FEF778FC0820CDE90004F3
:10419000694640460294FEF767FB102001258DE832
:1041A000310069464046FEF75FFB20200226CDE93C
:1041B0000005CDE9024669464046FEF755FB212041
:1041C000CDE90005CDE9024669464846FEF74CFBBD
:1041D00000970396CDE9015469465046FEF744FB2B
:1041E00006B0BDE8F0870000001002400018014052
:1041F000000C0140000801400D4810B50B4901605A
:104200000C49416000214FF480428160C0E90312F3
:1042100041618161C1610162FEF73AFC002803D06F
:10422000BDE81040FDF738BF10BD00000058004049
:1042300084420020801A060010B596B000240F9426
:1042400010941194129413941C2168461494FBF753
:10425000A2FF202107A8FBF79EFF35483349C0E99C
:10426000001441F61F41C0E9024180210461C0E908
:104270000541FFF741FA08B1FDF70EFF4FF48050FA
:104280000F900FA92A48FFF7CDFA08B1FDF704FFF8
:104290002748FFF782FC08B1FDF7FEFE139413A92F
:1042A00023481494FFF794F908B1FDF7F5FE602058
:1042B00000904FF49660CDE90104039404940594B2
:1042C000002269461A480694FFF701FC08B1FDF781
:1042D000E3FE4FF461600190042269461448FFF741
:1042E000F6FB08B1FDF7D8FE4FF4AF50019008225D
:1042F00069460F48FFF7EBFB08B1FDF7CDFE0794C9
:10430000FA200894CDE909404FF40050CDE90B4064
:1043100007A907480E94FFF731F908B1FDF7BCFE75
:104320000348FFF7A1FB16B010BD0000002C0140B0
:10433000D842002010B586B000241748009401949C
:1043400002940394049413490594C0E900144FF4B3
:10435000E151C0E90241802104618161FFF7CCF99C
:1043600008B1FDF799FE4FF48050009069460A4865
:10437000FFF758FA08B1FDF78FFE2020CDE90404BD
:1043800004A90548FFF724F9002801D0FDF784FEB1
:1043900006B010BD00040040204300200C4810B5BA
:1043A0000A4901604FF4E1314160002181600C2233
:1043B000C160C0E904128161C161FFF792FC00286D
:1043C00003D0BDE81040FDF767BE10BD00380140C6
:1043D00068430020FEE7FEE710B50021AE2000F0A4
:1043E00043FB0021202000F03FFB0021102000F0C3
:1043F0003BFB0021B02000F037FB0021C82000F07B
:1044000033FB0021084600F02FFB0021102000F0B4
:104410002BFB0021402000F027FB0021812000F031
:1044200023FB0021FF2000F01FFB0021A12000F052
:104430001BFB0021A62000F017FB0021A82000F0A4
:1044400013FB00213F2000F00FFB0021A42000F00F
:104450000BFB0021D32000F007FB0021084600F0F1
:1044600003FB0021D52000F0FFFA0021F02000F02E
:10447000FBFA0021D92000F0F7FA0021222000F0F9
:10448000F3FA0021DA2000F0EFFA0021122000F008
:10449000EBFA0021DB2000F0E7FA0021202000F0F9
:1044A000E3FA00218D2000F0DFFA0021142000F053
:1044B000DBFA0021BDE81040AF2000F0D5BA70470C
:1044C0007047FEF76FBC30B595B028216846FBF702
:1044D00062FE14210AA8FBF75EFE18210FA8FBF765
:1044E0005AFE01210804CDE900100025029502249E
:1044F0000491CDE907404FF4E01009906846FEF7BB
:1045000097FE08B172B6FEE70AA90F2081E83100D4
:104510004FF48060CDE90D0502210AA8FEF7ACFD3D
:1045200008B172B6FEE74FF4004011900F940FA847
:10453000FEF72CFD002801D072B6FEE715B030BDA5
:10454000704700000148FFF7DCB90000D8420020A6
:104550000148FFF7D6B9000020430020F0B50268FB
:104560001C4B1D4D1D4E1E4F1E4C4FF0804C984253
:1045700009D0A04207D0604505D0A84203D0B04280
:1045800001D0B84204D122F0700E4A6842EA0E020D
:10459000984209D0A04207D0604505D0A84203D078
:1045A000B04201D0B84203D122F44075CA682A4310
:1045B0004D6922F080022A4302608A68C2620A685A
:1045C0008262984201D0A04201D1096901630121B0
:1045D0004161F0BD002C0140000400400008004093
:1045E000000C00400034014010B501F01F03012110
:1045F000046A99408C430462016A9A401143016243
:1046000010BD10B501F01F030421046A99408C43CA
:104610000462016A9A401143016210BD10B58468BA
:1046200042EA032224F47F440A432243826010BDFD
:10463000826822F070020A4342F0070181607047ED
:10464000F0B5036A026A22F00102026242688469DC
:10465000124E24F073050C682C4323F002058B687E
:104660002B430D4DA84201D0B04205D123F00807DD
:10467000CB683B4323F00403A84201D0B04205D1EC
:104680004D6922F4407215438A692A43426084616D
:10469000496841630362F0BD002C014000340140D1
:1046A000F0B5026A036A23F0100303624368846969
:1046B0000D6824F4E64444EA05248D6822F02002C3
:1046C00042EA05120F4D104EA84201D0B04206D169
:1046D000CF6822F0800242EA071222F04002A8428C
:1046E00001D0B04207D14D6923F4406343EA85030A
:1046F0008D6943EA8503436084614968816302628E
:10470000F0BD0000002C014000340140F0B5026A09
:10471000036A23F4807303624368C46922F400725D
:1047200024F073050C68124E2C438D6842EA052272
:104730000E4DA84201D0B04206D1CF6822F40062EB
:1047400042EA072222F48062A84201D0B04207D197
:104750004D6923F4405343EA05138D6943EA051379
:104760004360C4614968C1630262F0BD002C01402E
:104770000034014030B5046A026A22F480520262B9
:104780004268C3690D6823F4E64343EA05238D6854
:1047900024F4005444EA0534084DA84202D0084DE0
:1047A000A84204D14D6922F4804242EA8512426057
:1047B000C36149680164046230BD0000002C0140FF
:1047C0000034014010B5036A046A24F00104046255
:1047D000846924F0F00444EA021423F00A020A4334
:1047E0008461026210BD10B5036A046A24F01004EB
:1047F0000462846923F0A00324F4704444EA023282
:1048000043EA01118261016210BD000070B50446E7
:1048100000680169E26821F4405111430161216996
:10482000A0680843616908432168CA6841F20C63C3
:104830009A430243CA6020684169A26921F4407129
:10484000114341611E492068884202D1FEF7BAFC3B
:1048500001E0FEF7A7FC00EBC00101EB001260686D
:1048600064218000B2FBF0F3B3FBF1F36FF01806A4
:104870007343B2FBF0F5B2FBF0F605EB8305322390
:1048800003EB0515B5FBF1F5B6FBF1F605F0F00508
:1048900005EB0615B2FBF0F6B2FBF0F0B0FBF1F061
:1048A0006FF01802504306EB800003EB0010B0FBE2
:1048B000F1F0216800F00F002844886070BD00000E
:1048C00000380140FEE70907090E002804DB00F16B
:1048D000E02080F80014704700F00F0000F1E020A5
:1048E00080F8141D704702E008C8121F08C1002A92
:1048F000FAD170477047002001E001C1121F002A61
:10490000FBD170470149086070470000DC010020BE
:1049100070B5204D08212846FEF7A2F840F2E73690
:1049200090B93446641EA4B2FCD208212846FEF792
:1049300097F848B920211848FEF797F8082128462B
:10494000FEF78EF80028F9D010212846FEF788F8E7
:1049500000281DD1761EB6B2FCD210212846FEF7E3
:104960007FF8002814D10D4CA068FBF735FE0C4AE7
:104970000C4BFBF7EFFCFBF75BFEA0602021284609
:10498000FEF773F810212846FEF76AF80028F9D0E0
:1049900070BD000000180140000C01400000002024
:1049A000FCA9F1D24D62503FFEF704FAFFF78BFDF0
:1049B000FFF7AEFBFFF796FBFFF7F0FCFFF73CFCC1
:1049C000FFF71AFCFFF75CFBFFF7B4FCFFF704FDF1
:1049D00000211D48FFF710F900211B48FEF736FEA5
:1049E00004211948FFF708F904211748FEF72EFEA5
:1049F00008211548FFF700F908211348FEF726FEA5
:104A00001148FEF7D9FE1148FDF748FB0222104974
:104A10000E48FDF709FD0F48FEF7CEFE0C4C0E4880
:104A2000103C60600D48FDF763FA0C480C494FF0EC
:104A30007E55C1600B490161FFF76AFF2946606836
:104A4000FBF7B4FB6060F7E7D8420020104200207B
:104A500010000020204300206D051C43E041002091
:104A6000CDCCCC3D6F12033B08B5074A01B14021C4
:104A7000117050700A2000900223034A78210348E5
:104A8000FEF7CAF808BD0000D401002084420020CF
:104A90002DE9F04106460F46FBF7DEFE041E0D46EB
:104AA00018BF0120284320F00040C0F17F6000F1D2
:104AB000E040C00F0ED0301C18BF0120384320F05A
:104AC0000040C0F17F6000F1E040C00F04BF012052
:104AD000FFF718FF20462946BDE8F08170B505466E
:104AE000FBF72EFE044620F00040C0F1FF40C00F4F
:104AF00008D025F00040C0F1FF40C00F04BF0120E6
:104B0000FFF700FF204670BD0102020304050607FF
:104B100008090A0B0C0D0E0F101001020203040508
:104B2000060708090A0B0C0D0E0F101000000000FC
:104B3000000000000102030406070809000000004D
:104B40000102030408000010100000021800001207
:104B50002000000428000014300000063800001671
:104B600040000008480000185000000A5800001AD1
:104B70006000000C6800001C7000000E7800001E31
:104B80008000000888004010900040029800401209
:104B9000A0004004A8004014B0004006B800401631
:104BA000C0004008C8004018D000400AD800401A91
:104BB000E000400CE800401CF000400EF800401EF1
:104BC0000001000808018010100180021801801205
:104BD00020018004280180143001800638018016ED
:104BE00040018008480180185001800A5801801A4D
:104BF0006001800C6801801C7001800E7801801EAD
:104C0000800140088801C0109001C0029801C012C4
:104C1000A001C004A801C014B001C006B801C016AC
:104C2000C001C008C801C018D001C00AD801C01A0C
:104C3000E001C00CE801C01CF001C00EF801C01E6C
:104C400000020008080200111002000318020013FD
:104C50002002000528020015300200073802001764
:104C600040020009480200195002000B5802001BC4
:104C70006002000D6802001D7002000F7802001F24
:104C8000800280088802401190024003980240137D
:104C9000A0024005A8024015B0024007B802401724
:104CA000C0024009C8024019D002400BD802401B84
:104CB000E002400DE802401DF002400FF802401FE4
:104CC00000034008080380111003800318038013B9
:104CD00020038005280380153003800738038017E0
:104CE00040038009480380195003800B5803801B40
:104CF0006003800D6803801D7003800F7803801FA0
:104D00008003C0088803C0119003C0039803C01338
:104D1000A003C005A803C015B003C007B803C0179F
:104D2000C003C009C803C019D003C00BD803C01BFF
:104D3000E003C00DE803C01DF003C00FF803C01F5F
:104D400000040010080408101004001118040812D0
:104D50002004081028040814300408063804081633
:104D600040040808480408185004080A5804081A9F
:104D70006004080C6804081C7004080E7804081EFF
:104D80008004001888044810900400199804481200
:104D9000A0040818A8044814B0044806B80448162B
:104DA000C0044808C8044818D004480AD804481A5F
:104DB000E004480CE804481CF004480EF804481EBF
:104DC00000054010080588101005401118058812CC
:104DD00020054810280588143005880638058816EF
:104DE00040058808480588185005880A5805881A1B
:104DF0006005880C6805881C7005880E7805881E7B
:104E0000800540188805C810900540199805C812FB
:104E1000A0054818A805C814B005C806B805C816E6
:104E2000C005C808C805C818D005C80AD805C81ADA
:104E3000E005C80CE805C81CF005C80EF805C81E3A
:104E400000068010080608111006801118060813C5
:104E500020068810280608153006080738060817A7
:104E600040060809480608195006080B5806081B92
:104E70006006080D6806081D7006080F7806081FF2
:104E800080068018880648119006801998064813F5
:104E9000A0068818A8064815B0064807B80648179F
:104EA000C0064809C8064819D006480BD806481B52
:104EB000E006480DE806481DF006480FF806481FB2
:104EC0000007C010080788111007C01118078813C1
:104ED0002007C81028078815300788073807881763
:104EE00040078809480788195007880B5807881B0E
:104EF0006007880D6807881D7007880F7807881F6E
:104F00008007C0188807C8119007C0199807C813F0
:104F1000A007C818A807C815B007C807B807C8175A
:104F2000C007C809C807C819D007C80BD807C81BCD
:104F3000E007C80DE807C81DF007C80FF807C81F2D
:104F40000808101010084008180810122008001156
:104F50002808101430088011380810164808101856
:104F60005008100A5808101A6008100C6808101C25
:104F70007008100E7808101E8008000A880850106B
:104F80009008000B98085012A008080AA8085014AE
:104F9000B008080BB8085016C008100AC808501806
:104FA000D008500AD808501AE008500CE808501CE5
:104FB000F008500EF808501E0809901010098009DA
:104FC0001809901220090019280990143009801935
:104FD000380990164009000B480990185009900AAA
:104FE0005809901A6009900C6809901C7009900E7D
:104FF0007809901E8009400A8809D0109009400B5A
:105000009809D012A009480AA809D014B009480B81
:10501000B809D016C009500AC809D018D009D00A5A
:10502000D809D01AE009D00CE809D01CF009D00E3C
:10503000F809D01E080A1011180A1013200A40118E
:10504000280A1015300AC011380A1017480A10191A
:10505000500A100B580A101B600A100D680A101D28
:10506000700A100F780A101F880A5011900A800BDE
:10507000980A5013A00A5011A80A5015B00A880BBC
:10508000B80A5017C00A800BC80A5019D00A500B32
:10509000D80A501BE00A500DE80A501DF00A500FC4
:1050A000F80A501F080B9011180B9013200B401991
:1050B000280B9015300BC019380B9017480B90191E
:1050C000500B900B580B901B600B900D680B901DB4
:1050D000700B900F780B901F880BD011900BC00BAA
:1050E000980BD013A00B5019A80BD015B00BC80B00
:1050F000B80BD017C80BD019D80BD01BE00BD00DB4
:10510000E80BD01DF00BD00FF80BD01F000C0012D5
:10511000080C1810100C0013180C1812200C081290
:10512000280C1814300C0813380C1816400C1012E8
:10513000480C1818500C1013580C181A600C181240
:10514000680C181C700C180E780C181E800C001AB5
:10515000880C5810900C001B980C5812A00C081AC0
:10516000A80C5814B00C081BB80C5816C00C101A18
:10517000C80C5818D00C101BD80C581AE00C181A70
:10518000E80C581CF00C580EF80C581E000D40127C
:10519000080D9810100D4013180D9812200D48128C
:1051A000280D9814300D4813380D9816400D5012E4
:1051B000480D9818500D5013580D981A600D58123C
:1051C000680D981C700D980E780D981E800D401A71
:1051D000880DD810900D401B980DD812A00D481ABC
:1051E000A80DD814B00D481BB80DD816C00D501A14
:1051F000C80DD818D00D501BD80DD81AE00D581A6C
:10520000E80DD81CF00DD80EF80DD81E000E801237
:10521000080E1811100E8013180E1813200E881285
:10522000280E1815300E8813380E1817400E9012DD
:10523000480E1819500E9013580E181B600E981235
:10524000680E181D700E180F780E181F800E801A29
:10525000880E5811900E801B980E5813A00E881AB5
:10526000A80E5815B00E881BB80E5817C00E901A0D
:10527000C80E5819D00E901BD80E581BE00E981A65
:10528000E80E581DF00E580FF80E581F000FC012F0
:10529000080F9811100FC013180F9813200FC81281
:1052A000280F9815300FC813380F9817400FD012D9
:1052B000480F9819500FD013580F981B600FD81231
:1052C000680F981D700F980F780F981F800FC01AE5
:1052D000880FD811900FC01B980FD813A00FC81AB1
:1052E000A80FD815B00FC81BB80FD817C00FD01A09
:1052F000C80FD819D00FD01BD80FD81BE00FD81A61
:10530000E80FD81DF00FD81BF80FD81F0810201079
:10531000101040101810201228102014301088107F
:10532000381020164010001148102018501040115D
:105330005810201A601008126810201C7010881273
:105340007810201E80100012881008129010401251
:1053500098106012A0102012A8106014B0106012F3
:10536000B8106016C0100013C8106018D010401399
:10537000D810601AE0101812E810601CF010981293
:10538000F810601E08112012101140111811A012FF
:10539000201108182811A014301188183811A016EF
:1053A0004811A0185811A01A6011081A6811A01C01
:1053B0007011881A7811A01E80111012881118120D
:1053C000901150129811E012A0111818A811E014B1
:1053D000B0119818B811E016C0111013C811E018D8
:1053E000D0115013D811E01AE011181AE811E01C7E
:1053F000F011981AF811E01E00120018081208188F
:1054000010124018181220132012201828122015EC
:105410003012601838122017401200194812201953
:10542000501240195812201B601220196812201DBA
:105430007012C8127812201F8012001A8812081ADF
:105440009012401A98126013A012201AA812601528
:10545000B012601AB8126017C012001BC81260198F
:10546000D012401BD812601BE012201BE812601DF6
:10547000F012601BF812601F0013101808131818A0
:10548000101350181813A013201348182813A01530
:105490003013C8183813A017401310194813A01957
:1054A000501350195813A01B6013481A6813A01DFD
:1054B0007013C81A7813A01F8013101A8813181AB3
:1054C0009013501A9813E013A0135818A813E0155E
:1054D000B013D818B813E017C013101BC813E01985
:1054E000D013501BD813E01BE013581AE813E01D2B
:1054F000F013D81AF813E01F081420141014001524
:1055000018142015301408153814281640140015E6
:1055100048142818501410155814281A601420150F
:105520006814281C701418157814281E8014001C88
:105530008814201C9014001D9814201DA014081C11
:10554000A814281CB014081DB8146816C014101C28
:10555000C8146818D014101DD814681AE014181C48
:10556000E814681CF014181DF814681E081520159E
:105570001015401518156015201528182815281C19
:10558000301548153815A8164815A8185815A81A22
:105590006015281A6815A81C7015A81A7815A81E79
:1055A0008015401C8815601C9015401D9815601DC5
:1055B000A015481CA815681CB015481DB815E8169C
:1055C000C015501CC815E818D015501DD815E81A7C
:1055D000E015581CE815E81CF015581DF815E81ED4
:1055E0000016001C0816081C1016401C1816481C33
:1055F0002016201C2816281C3016601C3816281768
:105600004016001D481628195016401D5816281B14
:105610006016201D6816281D7016601D7816281F3C
:105620008016801C8816A01C9016801D9816A01D40
:10563000A016881CA816A81CB016881DB8166817D6
:10564000C016901CC8166819D016901DD816681B75
:10565000E016981CE816681DF016981DF816681FCD
:105660000017101C0817181C1017501C1817581C6E
:10567000201768182817681C3017E8183817A8175B
:105680004017101D4817A8195017501D5817A81B70
:105690006017681A6817A81D7017E81A7817A81FEE
:1056A0008017C01C8817E01C9017C01D9817E01DBC
:1056B000A017C81CA817E81CB017C81DB817E81712
:1056C000C017D01CC817E819D017D01DD817E81B71
:1056D000E017D81CE817E81DF017D81DF817E81FC9
:1056E00018186018301848183818601C5818301AE4
:1056F0006818301C7018181A7818301E8018001A94
:105700008818081A9018001B98186019A018201AF9
:10571000A818281AB018201BB818601DC018101A35
:10572000C818181AD018101BD818701AE018301A98
:10573000E818701CF018581AF818701E081920196B
:105740001819601A2819081D301988193819881D68
:105750004819201B5819B01A6019081B6819B01C89
:105760007019881B7819B01E8019401A8819481AB8
:105770009019401B9819601BA019601AA819181DD0
:10578000B019601BB819981DC019501AC819581AB9
:10579000D019501BD819F01AE019181BE819F01C81
:1057A000F019981BF819F01E381A701C581A301B83
:1057B000681A301D701A181B781A301F901AC01AF8
:1057C000981AC81AB01AE01AB81AE81AC01A801B38
:1057D000C81A881BD01AC01BD81A701BE01AA01B4D
:1057E000E81A701DF01AE01BF81A701F281B481DDC
:1057F000381BC81D481B601B581BB01B681BB01D05
:10580000701BC81B781BB01F901BC01B981BC81BAC
:10581000A81B581DB01BE01BB81BD81DD81BF01BC4
:10582000E81BF01DF81BF01F081C201C181C301C66
:10583000381C681C481C601C581C701C781C381EC6
:10584000801C001E881C201E901C001F981C201FFE
:10585000A01C081EA81C281EB01C081FB81C281F4E
:10586000C01C101EC81C301ED01C101FD81C301F9E
:10587000E01C181EE81C381EF01C181FF81C781EAF
:10588000081D201D181D301D381DA81D481D601D38
:10589000581D701D681D281F781DB81E801D401ED4
:1058A000881D601E901D401F981D601FA01D481E72
:1058B000A81D681EB01D481FB81D681FC01D501EC2
:1058C000C81D701ED01D501FD81D701FE01D581E12
:1058D000E81D781EF01D581FF81DF81E081E201E1A
:1058E000181E301E481E601E581E701E781E381F5F
:1058F000881EA01E901E801F981EA01FB01E881F0D
:10590000B81EA81FC01E801FC81E881FD01E901F53
:10591000D81EB01FE01EA01FE81EA81FF01E981F73
:10592000F81E781F081F201F181F301F481F601FF8
:10593000581F701F781FB81F881FA01F901FC01FFF
:10594000981FE01FB01FC81FB81FE81FC81FE01F27
:10595000D81FF01F0004000064590008444B0008E1
:10596000080700000000803F00000000C4FE7F3FE9
:10597000890FC93B11FB7F3F900E493CE6F47F3F06
:10598000B6C9963C43EC7F3FB00AC93C29E17F3F52
:10599000B949FB3C98D37F3F2CC3163D8FC37F3F53
:1059A00007E02F3D0FB17F3F2FFB483D189C7F3F05
:1059B0006814623DAB847F3F742B7B3DC76A7F3F99
:1059C0000A208A3D6D4E7F3F05A9963D9D2F7F3F62
:1059D0008C30A33D580E7F3F80B6AF3D9DEA7E3FA1
:1059E000C33ABC3D6DC47E3F36BDC83DC99B7E3FBA
:1059F000B93DD53DB0707E3F2EBCE13D23437E3F97
:105A00007638EE3D24137E3F73B2FA3DB1E07D3F20
:105A10000295033ECCAB7D3F86CF093E74747D3F3B
:105A2000B708103EAC3A7D3F8340163E73FE7C3F84
:105A3000DE761C3EC9BF7C3FB6AB223EB07E7C3FCB
:105A4000FCDE283E283B7C3FA2102F3E31F57B3FF9
:105A50009840353ECDAC7B3FCF6E3B3EFC617B3FFB
:105A6000379B413EBE147B3FC2C5473E16C57A3FB9
:105A700060EE4D3E02737A3F0115543E841E7A3F1C
:105A800097395A3E9DC7793F135C603E4E6E793F11
:105A9000667C663E9812793F7F9A6C3E7BB4783F75
:105AA00051B6723EF853783FCCCF783E10F1773F35
:105AB000E1E67E3EC58B773FC07D823E1724773F6F
:105AC000CE86853E07BA763F938E883E974D763FC9
:105AD00007958B3EC6DE753F229A8E3E976D753FC9
