:020000040800F2
:10000000D85B002045010008C32E0008A72800087F
:10001000C12E0008290A0008F93500080000000078
:100020000000000000000000000000007D3100081A
:10003000DF0A0008000000007B3100087F31000863
:100040005F0100085F0100085F0100085F01000810
:100050005F0100085F0100085F0100085F01000800
:100060005F0100085F0100085F0100082D0A000819
:100070005F0100085F0100085F0100085F010008E0
:100080005F0100085F0100085F0100085F010008D0
:100090005F0100085F0100085F0100085F010008C0
:1000A0005F010008013200085F0100085F010008DD
:1000B0005F0100080D3200085F0100085F010008C1
:1000C0005F0100085F0100085F0100085F01000890
:1000D0005F0100085F0100085F0100085F01000880
:1000E0005F0100085F0100085F0100085F01000870
:1000F0005F0100085F0100085F0100085F01000860
:100100005F0100085F0100085F0100085F0100084F
:100110005F0100085F0100085F0100085F0100083F
:100120005F0100085F0100085F0100085F0100082F
:10013000DFF80CD000F078FB00480047553F00087E
:10014000D85B00200648804706480047FEE7FEE7E8
:10015000FEE7FEE7FEE7FEE7FEE7FEE7FEE7FEE777
:10016000FD31000831010008202A04DB203A21FA81
:1001700002F00021704721FA02F3D040C2F12002C0
:100180009140084319467047D2B201E000F8012BB4
:10019000491EFBD270470022F6E710B513460A4607
:1001A00004461946FFF7F0FF204610BDF0B480EA80
:1001B0000102D40F4200B2EB410F02D202460846C0
:1001C00011464A0042D0C30DDDB2C1F3C752AD1A89
:1001D000202D35DAC1F3160141F4000204B1524278
:1001E000C5F1200602FA06F12A411044B3EBD05FB4
:1001F00023D0C4B1012DA0EBC35009DCF0BC4FF0FB
:10020000004202EAC352DBB200F5000000F03BB945
:10021000400000F1807000EBC350A0F1807040EA14
:10022000D170490009E0490841EAC071A0EBC35010
:1002300000F50000400800EBC350F0BC00F01AB914
:100240006142012202EB4101001BF6E7F0BC70475E
:1002500081F00041AAE780F00040A7E72DE9FE4FBA
:1002600081EA030404F0004421F0004100944FF0BF
:10027000000B23F0004350EA01045ED052EA03046D
:100280005BD0C3F30A54C1F30A552C44A4F2F334EF
:100290000194A0FB0254C1F3130141F48011C3F394
:1002A000130343F4801301FB024400FB034E840A52
:1002B000970A44EA815447EA8357A4FB07680295EA
:1002C0008D0A05FB07854FEA932C04FB0C54270588
:1002D000029D4FEA065847EA1637B5EB08056EEB64
:1002E000070C870E920E47EA811742EA8312A7FB9A
:1002F0000201B6EB0B0164EB00042B0D43EA0C3357
:100300005E1844EB1C50DA465146E7FB0201C5F388
:1003100013044FEA0B3343EA14534FEA0432019CAF
:1003200043EA0603A4F10C040294009CCDE900B456
:1003300000F0E6F803B0BDE8F08F00200146F9E7D1
:1003400070B521F0004303430CD0C1F30A550024DB
:10035000D5EB040564EB0403D617AD1AB34102DBF9
:100360000020014670BD201841EB025170BD0EB552
:1003700040F2334102910021CDE900110A460B46BB
:1003800000F0BEF803B000BD00F0004230F00040C5
:100390000AD0C10D01F56071C0F3160042EA0151A7
:1003A000C20840071143704700200146704701F022
:1003B000004330B421F0004150EA010206D00A0D9A
:1003C000A2F56072C1F31301002A02DC30BC0020E8
:1003D0007047440F44EAC104C100E01830BC00EB90
:1003E000C25000F047B830B50B460146002020222D
:1003F000012409E021FA02F59D4205D303FA02F532
:10040000491B04FA02F52844151EA2F10102F1DC91
:1004100030BD2DE9F05F0546002092469B46884698
:100420000646814640241BE0284641464746224670
:10043000FFF79AFE53465A46C01A914110D311460F
:100440001846224600F002FA2D1A67EB01084F46C3
:1004500022460120002100F0F9F917EB00094E4176
:10046000201EA4F10104DFDC484631462A464346FB
:10047000BDE8F09F0029A8BF7047401C490008BF95
:1004800020F00100704710B4B0FA80FC00FA0CF0C4
:1004900050EA010404BF10BC704749B1CCF12004FC
:1004A00021FA04F411FA0CF118BF01212143084389
:1004B000A3EB0C01CB1D4FEA00614FEA102042BFB5
:1004C000002010BC704700EBC35010440029A4BFAB
:1004D00010BC7047401C490008BF20F0010010BC50
:1004E000704710B5141E73F1000408DA401C41F186
:1004F000000192185B411A4301D120F0010010BDA8
:100500002DE9F04D92469B4611B1B1FA81F202E01D
:10051000B0FA80F22032904600F098F904460F4677
:1005200040EA0A0041EA0B0153465A46084313D0F9
:10053000114653EA010019D0C8F140025046FFF7B6
:1005400013FE05460E4650465946424600F07EF9D7
:10055000084305D0012004E020463946BDE8F08D6F
:100560000020054346EAE0762C4337430A986305AA
:10057000E40AA0EB08000022FD0A44EA47540A30CE
:1005800002D500200146E9E7010510196941DDE9BE
:10059000084500196941BDE8F04DA2E72DE9FE4F7D
:1005A000804681EA0300C00F0C46009021F0004114
:1005B00023F00045B8EB0200A94105D24046214690
:1005C00090461C460B46024623F00040104347D09D
:1005D000270DC7F30A00C3F30A510290401A019095
:1005E00040286BDAC3F3130040F4801B0098924656
:1005F00020B10023D2EB030A63EB0B0B01985946A1
:10060000C0F14002504600F021F906460D46504622
:100610005946019A00F029F910EB080061410024C5
:1006200087EA115284EAE7731A4340D0009A62B312
:10063000019A012A4FEA075215DC001B61EB020107
:100640004FF0004202EA0752CDE90042001C41F59A
:10065000801132462B46FFF753FF03B0BDE8F08F01
:1006600040462146F9E7001B61EB0201001C41F501
:10067000801300185B412018A2F5001747EB030117
:1006800040EAD570B6196D4111E06D084FEA3606A3
:1006900045EAC0754FEA0752001B61EB0201001CDE
:1006A00041F5801149084FEA3000001951413246A6
:1006B0002B4603B0BDE8F04FFFF713BF00980122AF
:1006C00040000023D0EB020263EBE0730098214668
:1006D0004FEAE074B8EB000061EB0401E9E783F056
:1006E00000435BE781F0004158E72DE9F04D81EAD6
:1006F000030404F0004B21F0004514464FF0000ABB
:1007000023F0004150EA050220D054EA01021DD036
:10071000C5F30A570246C5F31303C1F31300C1F32F
:100720000A5640F4801543F48013A7EB0608101B0B
:10073000D64608F2FD3873EB050002D308F1010834
:1007400001E092185B41B8F1000F03DA0020014686
:10075000BDE8F08D00204FF48011064684460EE07F
:10076000171B73EB050705D3121B63EB0503064349
:100770004CEA010C49084FEA300092185B4150EAFC
:100780000107EDD152EA030012D082EA040083EAA5
:100790000501084305D0101BAB4106D201220023FE
:1007A00006E000224FF0004302E06FF00102531018
:1007B0001AEB06004CEB085110EB0A0041EB0B0161
:1007C000BDE8F04DFFF78DBEC1F30A52C1F313012E
:1007D00040F2FF3341F480119A4202DA00200146D0
:1007E000704740F233439A42A2F2334202DC524253
:1007F000FFF7BABC00F02AB830B5041E71F100044E
:1008000004DB4FF00044404264EB0101141E73F11D
:10081000000405DB1C464FF00043524263EB040327
:10082000994208BF904230BD064C074D06E0E06893
:1008300040F0010394E8070098471034AC42F6D327
:10084000FFF77AFC1045000830450008202A04DB39
:10085000203A00FA02F1002070479140C2F12003D3
:1008600020FA03F3194390407047202A06DBCB1788
:10087000203A41FA02F043EAE07306E041FA02F35B
:10088000D040C2F12002914008431946704770B52C
:100890008C1810F8015B15F0070301D110F8013B2B
:1008A0002A1106D110F8012B03E010F8016B01F8B2
:1008B000016B5B1EF9D12B0705D40023521E0DD40A
:1008C00001F8013BFAE710F8013BCB1A921C03E058
:1008D00013F8015B01F8015B521EF9D5A142D8D390
:1008E000002070BD70B5044600688168C943C9071F
:1008F00017D1816821F00101816000F0EDFD05460E
:100900000AE000BF00F0E8FD401B022804D920687F
:100910008068C043C00706D020688068C043C00715
:10092000F0D0002070BDA06A40F01000A062E06A24
:1009300040F00100E062012070BD10B50146406A40
:10094000826A12F0500F05D0006A026BBDE81040B9
:1009500008461047816A41F4007181620168896824
:10096000C1F3424107290CD1017B51B9816A21F4BD
:1009700080718162816AC90403D4816A41F00101F6
:10098000816200F099F910BD10B5406A816A41F0AA
:1009900040018162C16A41F00401C16200F08EF938
:1009A00010BD10B5406A00F088F910BDF8B50026FA
:1009B0000446009600688168C943C9072DD0816844
:1009C00041F001018160164816490068B0FBF1F062
:1009D00000E0401E00900028FBD100F07DFD0546A0
:1009E00016E000BF00F078FD401B022810D92068F7
:1009F0008068C043C0070BD0A06A40F01000A0621E
:100A0000E06A40F00100E06284F824600120F8BD53
:100A100020688068C043C007E4D10020F8BD000012
:100A2000A801002040420F00FEE700002DE9F05F22
:100A3000194800F0A3FA0024DFF86080DFF860B006
:100A4000184D194E27464FF0663A4FF4806900BFA3
:100A500058F83400FFF78BFC52465B46FFF7FEFB6D
:100A60006FF00B02FFF76CFCFFF7A1FC45F82400C8
:100A7000FFF78AFC02460B460CA002F0BFFD55F8BA
:100A8000240046F8340006EBC400641C47604C4563
:100A9000DEDBBDE8F09F0000E8510020B801002037
:100AA00066660A40B8210020B8310020252E336642
:100AB0000A00000030B590F840500124AC40C56BEE
:100AC0006C60046863604368102B036803D099600E
:100AD0000068C26030BD9A600068C16030BD704778
:100AE00072B6FEE7F8B500250446009590F824009C
:100AF00001280BD0012084F824002046FFF7F2FEE5
:100B00002046FFF753FF060002D050E00220F8BD58
:100B1000A06A20F4885040F00200A062022000F099
:100B200003FF25490968B1FBF0F0400000E0401EDA
:100B300000900028FBD12068816841F008018160A5
:100B400000F0CAFC074608E000F0C6FCC01B0A28FB
:100B500003D920688068000715D4206880680007E2
:100B6000F2D42068816841F00401816000F0B4FC97
:100B7000074612E000F0B0FCC01B0A280DD920681F
:100B80008068400709D5A06A20F0020040F01000FC
:100B9000A06284F824500120F8BD206880684007D6
:100BA000E8D4A06A20F0020040F00100A06284F8BE
:100BB00024503046F8BD0000A8010020F8B50024FC
:100BC000009490F824202546012A12D0012280F8B2
:100BD00024204A681F23072A0DD20668776B521E0D
:100BE00002EB820293409F430B6893401F4377635D
:100BF00019E00220F8BD06680D2A0AD2376BD21F11
:100C000002EB820293409F430B6893401F4337637C
:100C100009E0F76A0D3A02EB820293409F430B68AA
:100C200093401F43F7620A68072306680A2A0AD31B
:100C3000F7680A3A02EB420293409F438B68934065
:100C40001F43F76008E0376902EB420293409F437D
:100C50008B6893401F4337610A68102A01D0112A1C
:100C600020D1124B02689A4217D193681B0219D403
:100C7000936843F4000393600968102912D10C496A
:100C80000C4A0968B1FBF2F101EB8101490000E077
:100C9000491E00910029FBD104E0816A41F0200146
:100CA0008162012480F824502046F8BD00240140D0
:100CB000A801002040420F007047704770470000B5
:100CC0002DE9F04104004FF000057FD0A06A002616
:100CD00028B9E66284F82460204600F081F82046B6
:100CE000FFF700FEA16AC90600D420B1A06A40F057
:100CF0001000A0626AE0A16A21F4885141F002016B
:100D0000A162334923688B42E16904D1B1F5402FD8
:100D100001D14FF40021277B4FF4807C41EA470248
:100D200061680A43A168614508D0012906D0002105
:100D300094F814E0BEF1010F02D00AE06146F7E733
:100D4000C7B1A76A47F02007A762E76A47F0010723
:100D5000E7625F6827F469470F435F60236899681B
:100D60001C4F394011439960A16861450BD001299E
:100D700009D00CE0DFF860E0A7690EEB47370F43BE
:100D800047F40061E5E7218A0D05A5F58015216886
:100D9000CB6A23F470032B43CB62216889680F4B25
:100DA0001940914208D1E662A16A21F0020141F0A6
:100DB0000101A162BDE8F081A06A20F0020040F0CC
:100DC0001000A062E06A40F00100E0620120F1E75B
:100DD000003C0140FDF7E1FF00E0FFFFFE0E1FFFBA
:100DE00070B586B0002506460095019502950395DD
:100DF00000681A4988422ED11949886940F4007068
:100E00008861886900F400700490886940F00400EB
:100E100088618869694600F00400049060200090B1
:100E2000032001900F4800F055FA104C0E48C4E919
:100E300000058020C4E902508000206180006061CC
:100E40002020C4E90605204600F0BCF908B1FFF7F0
:100E500047FE3462666206B070BD000000240140A7
:100E6000001002400008014008000240E851002044
:100E70002DE9F047894604463B4900683B4F0E1D6B
:100E80009046884201D0B84207D1306810F4702FE4
:100E900003D001252846BDE8F08794F824000128F6
:100EA0000CD0012084F824002046FFF77FFD0500C8
:100EB0004FF0000004D084F82400EBE70220EAE7BA
:100EC000A16A40F60162914341F48071A1622168F8
:100ED000B94218D1326812F4702F14D0A16A41F4CB
:100EE0008011A1623168490505D5A16A21F400513C
:100EF00041F48051A162A16AC9040AD5E16A21F0D6
:100F00000601E16206E0A26A22F48012A262496848
:100F1000E9E7E06284F82400216A15488862216AC2
:100F20001448C862216A1448086321686FF00200FF
:100F300008602068816841F48071816021684346BF
:100F40004A464C31206A00F07BF920688168C1F381
:100F500042410729816803D041F48011816099E7FB
:100F600041F4A001FAE700000024014000280140FC
:100F70003B090008A3090008890900082DE9F05F72
:100F8000C16B0A6801680B68046C4FF0040808FA2A
:100F900004F8844D844E854FDFF814C2DFF81492B4
:100FA000DFF814A2DFF814B2DFF814E218EA020F37
:100FB00065D05FEA437862D50A68920603D40A686E
:100FC00022F004020A60DFF8F0814FF480620168C9
:100FD00008F1140813011402414524D9A9420DD087
:100FE000B1420FD0B9421AD0614515D0494515D04C
:100FF000514501D1120312E0594501D104220EE0FE
:10100000714501D140220AE06D4D1435A94206D048
:101010006B4A2832914201D11A4600E022466749C4
:10102000091F0A6029E0A94213D0B14215D0B94284
:1010300020D061451BD049451BD0514502D14FF40A
:10104000800217E0414502D14FF0806212E059451D
:1010500001D104220EE0714501D140220AE0584D31
:101060001435A94206D0564A2832914201D11A4677
:1010700000E022464B4908394A60C16A71E04FF0EE
:10108000020808FA04F818EA020F70D05FEA8378C1
:101090006DD50A68920606D40A6822F00A020A6030
:1010A000012180F82110DFF810814FF400720168EF
:1010B00008F1140813011402414524D9A9420DD0A6
:1010C000B1420FD0B9421AD0614515D0494515D06B
:1010D000514501D1120312E0594501D102220EE01F
:1010E000714501D120220AE0354D1435A94206D0C0
:1010F000334A2832914201D11A4600E022462F4954
:10110000091F0A6029E0A94213D0B14215D0B942A3
:1011100020D061451BD049451BD0514502D14FF429
:10112000001217E0414502D14FF0007212E059451C
:1011300001D102220EE0714501D120220AE0204DAA
:101140001435A94206D01E4A2832914201D11A46CE
:1011500000E02246134908394A60002180F8201037
:10116000816A00291CD0BDE8F05F0847FFE7082529
:10117000A540154214D01A0712D50A6822F00E02B3
:101180000A6090F84020C36B012101FA02F25A6014
:10119000816380F82110002180F82010016BE0E7C6
:1011A000BDE8F09F080002401C00024030000240F1
:1011B00044000240580002406C0002400804024013
:1011C0001C04024030B560B11A4B026814219A42E7
:1011D00009D2194B1344B3FBF1F18900016417499B
:1011E0000AE0012030BD134B5B421344B3FBF1F125
:1011F000890001640F490839C163022180F8211078
:10120000136843F6F0718B43F0E901142143D0E9F0
:1012100002452C43214304692143446921438469E5
:101220002143194311600021416301224277017774
:10123000084630BD08040240F8FFFDBF0000024030
:1012400070B5044690F82000002501280CD001203C
:1012500084F8200094F821600020012E06D084F844
:1012600020000225284670BD022070BD022684F8A9
:101270002160A0632068066826F00106066020460B
:10128000FFF718FCE06A00282068016802D041F0EE
:101290000E0106E021F0040101602068016841F0C0
:1012A0000A0101602068016841F001010160D9E78D
:1012B00070B5044600F010F90546601C02D00448E1
:1012C0000078044400F008F9401BA042FAD370BD36
:1012D0009C0100202DE9F84FDFF8C8910024A9F106
:1012E000040B23460F2709F1040AABF1040ED1E0E9
:1012F0000125A54006EA0502AA4276D1DFF8A8C179
:101300004E68A6EB0C0866452BD00DDC032E34D0BE
:1013100005DC36B3012E19D0022E2FD11BE0112E81
:1013200016D0122E2AD119E0B8F5881F19D006DC84
:10133000B8F5803F15D0B8F5801F1FD111E0B8F582
:10134000001F0ED0B8F5041F18D10AE0CB6815E0D5
:10135000CB681B1D12E0CB6808330FE0CB680C3361
:101360000CE08B682BB1012B4FF0080303D04561D3
:1013700004E0042302E0056100E00023FF2A01D815
:10138000064601E000F104064FEA840501D9A5F103
:101390002005D6F8008007FA05FC28EA0C0803FAB5
:1013A00005F548EA0508C6F800804D68ED0070D5DF
:1013B0003E4DAE6946F00106AE61AD6924F003060C
:1013C00005F0010500953A4D06EB050CDCF80850D8
:1013D000A607360F07FA06F825EA0805DFF8D480D5
:1013E000404503D14FF0000825E052E0DFF8C88007
:1013F000404502D14FF001081DE0DFF8C0804045B4
:1014000002D14FF0020816E0DFF8B480404502D167
:101410004FF003080FE0DFF8AC80404502D14FF0F9
:10142000040808E0DFF8A080404502D14FF005082D
:1014300001E04FF0060808FA06F848EA0508CCF87B
:1014400008804D68D9F80060ED024D4601D516437D
:1014500000E096432E604D68DAF80060AD02554614
:1014600001D5164300E096432E604D68DBF800601E
:10147000AD035D4601D5164300E096432E604D68EE
:10148000DEF80060ED03754601D5164300E0964393
:101490002E60641C0A681646E2407FF429AFBDE85E
:1014A000F88F0000080401400000111000100240F5
:1014B0000000014000080140000C01400010014004
:1014C0000014014000180140001C01400AB10161F4
:1014D00070470904FBE7000001488068704700007E
:1014E0009C01002070B5040025D094F83D00002533
:1014F00020B984F83C50204600F04EF9242084F8AE
:101500003D002068016821F0010101602068016848
:1015100041F4004101602068016821F4004101604C
:1015200000F06AFB4D4A6168914201D84C4900E0E5
:101530004C49884201D2012070BD4B492368B0FB61
:10154000F1F15E6826F03F060E435E6063689342E9
:1015500006D94FF4967359434FF47A73B1FBF3F104
:101560002368491C1E6A26F03F06314319626168F0
:10157000914210D84900401EB0FBF1F2521CC2F358
:101580000B02042A01D2042022E0B0FBF1F0401C3F
:10159000C0F30B001CE0A268F2B301EBC10303EB44
:1015A0000116431EB3FBF6F35B1C43F480431B059B
:1015B00049D092B301EBC10202EB0111401EB0FB16
:1015C000F1F0401CC0F30B0040F4804040F40040B8
:1015D0002168CA694CF6FF739A431043C861D4E985
:1015E000071001432068026822F0C0021143016025
:1015F000D4E9030101432068826848F2FF339A432B
:1016000011438160D4E9050108432168CA6822F0CA
:10161000FF021043C86001E00EE016E02068016898
:1016200041F0010101602564202084F83D0025631C
:1016300084F83E50002070BD01EB4106431EB3FB11
:10164000F6F35B1CB3E70120C2E701EB4101401E4A
:10165000B0FBF1F0401CC0F30B00B7E7A08601001F
:1016600080841E0000093D0040420F002DE9F84F24
:101670001F4690468A460446DDF82890FFF72CFF67
:10168000054694F83D0020287FD1192301224049C6
:101690002046009501F09AF9002876D194F83C0094
:1016A000012872D0012084F83C0020680168C90735
:1016B00003D1016841F0010101602068016821F453
:1016C00000610160212084F83D00102084F83E0074
:1016D00000262664C4F824806785608D20852D4807
:1016E000E0622B464A465146204601F0F5F890B993
:1016F000206841698069009036E02A4649462046C4
:1017000001F00AFA50B1206C042804D12068016865
:1017100041F4007101600120BDE8F88F606A216822
:1017200000780861606A401C6062618D491E6185B5
:10173000218D491E89B2218522685369DB435B07ED
:101740000BD451B100781061606A401C6062608DFA
:10175000401E6085208D401E20852A464946204631
:1017600001F008F90028CED1208D0028C5D154F809
:101770003D0B016841F400710160202004F81E094E
:10178000E67766770020C7E7FFE70220C4E700009E
:10179000020010000000FFFF10B586B0002100918C
:1017A0000191029103910068104988421BD1104CAD
:1017B000A06940F00800A061A069694600F0080037
:1017C00004904FF440600090122001900320039099
:1017D0000848FFF77FFDE06940F48000E061E069C0
:1017E00000F48000049006B010BD000000580040D6
:1017F00000100240000C0140024881680278114448
:10180000816070479C010020074810B5016841F0D5
:1018100010010160032000F075F80F2000F006F8B9
:1018200000F024F8002010BD0020024070B50D4DDE
:1018300004464FF47A712878B1FBF0F00A49096840
:10184000B1FBF0F000F0AEFB48B9102C07D200223B
:101850002146501E00F036F800206C6070BD01205B
:1018600070BD00009C010020A80100200C4808B5B4
:10187000816941F001018161816901F001010091FB
:10188000C16941F08051C161C06900F08050009091
:101890000448416821F0E06141F00071416008BDF9
:1018A0000010024000000140002809DB00F01F0288
:1018B000012191404009800000F1E020C0F80011B2
:1018C00070470000F0B40E4B1B680C46C3F30223B4
:1018D000C3F10705042D00D90425191D072901D2DC
:1018E000002300E0DB1E012606FA05F1491E214017
:1018F00099409E40761E16403143F0BC01F0A0BED8
:101900000CED00E0064900F0070208684FF6FF03FF
:10191000184040EA0220034A104308607047000064
:101920000CED00E00000FA0510B501460020284C3F
:1019300004292FD00BDC012930D0022929D100F055
:101940006BF96168C1F38131491C49001FE0082926
:1019500020D010291DD161682268D20119D51D48F7
:10196000C1F38342C903805C0AD56168194AC1F397
:101970004041921E515C184AB2FBF1F1484301E02C
:10198000164948436168490203D440000321B0FB73
:10199000F1F010BDBDE8104000F04EB9226AC2F36C
:1019A0000121012903D1920701D5C80310BD0229E5
:1019B00005D1626A920702D549F6404010BD03295D
:1019C000FCD121688903F9D54FF2244010BD0000F5
:1019D000001002407440000800127A0000093D0027
:1019E0002DE9F84305460078354CC00754D0E0692E
:1019F0000026C00008D4E06940F08050E061E06952
:101A0000012600F0805000902E480168C90512D4CC
:101A10000168804641F480710160FFF75DFD074673
:101A200005E000BFFFF758FDC01B642823D8D8F895
:101A30000000C005F6D5206A10F4407021D0A988B6
:101A400001F4407181421CD0206A1F49012220F418
:101A500040700A6000220A602062C00711D0FFF7C0
:101A60003BFD074641F2883808E000BFFFF734FD30
:101A7000C11B414502D90320BDE8F883206A8007D5
:101A8000F4D5206A696820F44070084320621EB1D2
:101A9000E06920F08050E0612878800705D5606813
:101AA000A96820F44040084360602878C00605D546
:101AB0006068696920F48000084360600020DBE70B
:101AC0000010024000700040400442422DE9F047FF
:101AD0000F46050061D0434E306800F00700B84261
:101AE00009D2306820F0070038433060306800F0D9
:101AF0000700B84251D128683B4C810712D54007F6
:101B000003D5606840F4E06060602878000703D582
:101B1000606840F4605060606068A96820F0F00080
:101B2000084360602878C00728D06868012810D072
:101B30002168022810D0890700292EDA616821F077
:101B4000030101436160FFF7C7FC804641F2883919
:101B50000DE021688903EFE78901EDE7FFF7BCFCA1
:101B6000A0EB0801494502D90320BDE8F087606871
:101B7000696800F00C00B0EB810FEFD1306800F025
:101B80000700B8420BD9306820F0070038433060B6
:101B9000306800F00700B84201D00120E5E728785E
:101BA000400705D56068E96820F4E060084360609C
:101BB0002878000706D56068296920F4605040EA5B
:101BC000C100606000F038F86168084AC1F3031191
:101BD000515CC8400649086006480068FFF726FEC9
:101BE0000020C2E7002002400010024084400008AC
:101BF000A8010020A00100200448054900684968A8
:101C0000044AC1F30221515CC8407047A80100207A
:101C100000100240944000080448054900684968E3
:101C2000044AC1F3C221515CC8407047A80100209A
:101C300000100240944000080E4A51680E4801F01E
:101C40000C03042B11D0082B0FD10C48C1F3834394
:101C5000C903C05C0AD55168084AC1F34041921ECD
:101C6000515C054A5043B0FBF1F0704704494843CA
:101C7000704700000010024000127A006240000825
:101C800000093D002DE9F84F040070D02078C04DC8
:101C9000C00749D06868C0F38100012807D0686890
:101CA000C0F38100022809D16868C00306D52868FE
:101CB000800339D560680028E7D035E06068B0F56A
:101CC000803F0BD010B1B0F5A02F11D0286820F4C0
:101CD00080302860286820F4802002E0286840F4E2
:101CE00080302860606890B1FFF7F6FB06460AE096
:101CF000286840F480202860F0E700BFFFF7ECFB85
:101D0000801B642873D828688003F7D50CE0FFF7A0
:101D1000E3FB064605E000BFFFF7DEFB801B6428FF
:101D2000F0D828688003F7D420789A4E80074FF0C7
:101D300001094FF0000839D5686810F00C0F07D082
:101D40006868C0F38100022809D16868C00306D41E
:101D50002868800714D52069012808D110E020697F
:101D6000B0B1C6F80090FFF7B7FB074605E00AE1FF
:101D7000FFF7B2FBC01B0228C4D828688007F7D53C
:101D80002868616920F0F80040EAC10028600DE091
:101D9000C6F80080FFF7A0FB074604E0FFF79CFBB6
:101DA000C01B022823D828688007F7D420780007B2
:101DB0002CD57948A169D9B1C0F80090FFF78CFB08
:101DC000074604E0FFF788FBC01B02280FD8686AAB
:101DD0008007F7D571484FF4FA510068B0FBF1F075
:101DE000009000BF0098411E0091FAD20EE080E002
:101DF000C0F80080FFF770FB074604E0FFF76CFBBC
:101E0000C01B022875D8686A8007F7D4207840077D
:101E100060D5E8690027C00008D4E86940F0805028
:101E2000E861E869012700F0805000905C48016893
:101E3000C90513D40168834641F480710160FFF73E
:101E40004BFB824606E000BFFFF746FBA0EB0A0013
:101E500064284ED8DBF80000C005F5D5E0680128FD
:101E60000AD008B1052813D0286A20F001002862A2
:101E7000286A20F0040002E0286A40F0010028628D
:101E8000E06841F2883B98B1FFF726FB82460BE001
:101E9000286A40F004002862EEE700BFFFF71CFB51
:101EA000A0EB0A0159455AD8286A8007F6D50CE0FC
:101EB000FFF712FB824605E0FFF70EFBA0EB0A01DD
:101EC00059454CD8286A8007F6D41FB1E86920F03C
:101ED0008050E861E06988B36968C1F38101022933
:101EE00044D00228C6F8608004D0FFF7F5FA044613
:101EF00038E034E0FFF7F0FA074604E0FFF7ECFAC9
:101F0000C01B02282BD828688001F7D4206AB0F5BE
:101F1000803F05D16868A16820F4003008436860FC
:101F2000D4E908010843696821F474110843686022
:101F3000C6F86090FFF7D0FA044606E025E000BF3F
:101F4000FFF7CAFA001B022809D828688001F7D5D4
:101F50001BE000BFFFF7C0FA001B022802D90320D4
:101F6000BDE8F88F28688001F4D40EE00128F7D08E
:101F70006868226A00F48031914204D1616A00F4F9
:101F80007010884201D00120EAE70020E8E7000055
:101F9000001002400000424280044242A80100209A
:101FA0000070004010B5401EB0F1807F01D30120C9
:101FB00010BD4FF0E02460610F21601701F040FB7D
:101FC0000020A06107202061002010BD70477047ED
:101FD00010B590F83C20012A22D0012280F83C2044
:101FE000CA688C6822F4407222434C6822F48062F2
:101FF00022430C6822F4006222430C6922F48052CE
:1020000022434C6922F400522243C969002322F47E
:1020100080420A4301684A6480F83C30002010BDC9
:10202000022010BD70B590F83C20012A2CD001246C
:1020300080F83C40022280F83D2003685A689D6881
:1020400022F070060A6832435A60104B02689A42C6
:102050000ED00F4B9A420BD0B2F1804F08D00D4BEF
:102060009A4205D00C4B9A4202D00C4B9A4204D1B2
:10207000496825F080031943916080F83D400021B4
:1020800080F83C10084670BD022070BD002C014055
:10209000003401400004004000080040000C0040F3
:1020A00010B50446022249B104290ED0082913D0E4
:1020B00094F84500012816D0012010BD94F8420084
:1020C0000128F9D184F842200FE094F84300012858
:1020D000F2D184F8432008E094F844000128EBD1C1
:1020E00084F8442001E084F845200422206801F0AF
:1020F000E6F82068416C41F4004141640E492068D3
:1021000088420ED00D4988420BD0B0F1804F08D0E4
:102110000B49884205D00B49884202D00A498842BF
:1021200004D1816801F00701062903D0016841F05C
:1021300001010160002010BD002C0140003401406D
:102140000004004000080040000C004010B50400EE
:1021500003D094F83D0010B107E0012010BD00202D
:1021600084F83C00204600F01FF8022084F83D006F
:10217000211D206801F050F8012084F8460084F801
:102180003E0084F83F0084F8400084F8410084F861
:10219000420084F8430084F8440084F8450084F841
:1021A0003D00002010BD000008B5154A0168154823
:1021B00091420ED1816941F4006181618069002200
:1021C00000F40060009011461920FFF77BFB1920F6
:1021D00010E00D4A914211D1C16941F00201C16183
:1021E000C069002200F00200009011461D20FFF798
:1021F00069FB1D20BDE80840FFF756BB08BD000085
:10220000002C0140001002400004004090F83D10F6
:10221000012901D001207047022180F83D1001689A
:10222000CA6842F00102CA6000680E4988420ED0B6
:102230000D4988420BD0B0F1804F08D00B4988423D
:1022400005D00B49884202D00A49884204D18168EE
:1022500001F00701062903D0016841F00101016086
:1022600000207047002C0140003401400004004071
:1022700000080040000C004070B5044690F83C0097
:102280000025012817D0012684F83C60022084F83C
:102290003D002068826822F0770222F47F4282604B
:1022A0000868502838D00DDC20284FD005DC90B3CA
:1022B000102811D14AE0022070BD302846D04028B5
:1022C0000AD13BE060282FD070280DD0B0F5805F98
:1022D00003D0B0F5005F12D0012584F83D600020E6
:1022E00084F83C00284670BDCB68D1E90121206804
:1022F00000F0F2FF2068816841F0770109E0CB68C7
:10230000D1E90121206800F0E7FF2068816841F4ED
:1023100080418160E1E719E0CA684968206801F0FE
:10232000AFF85021206806E0CA684968206801F0CB
:10233000B8F86021206800F0D9FFCEE7CA68496884
:10234000206801F09DF840212068F4E722680146EA
:102350001046F0E7704770B50446006801694FF019
:102360000005C943890715D4C168C943890711D439
:10237000E91E0161012020772068806980072046DE
:1023800002D0FFF7E7FF04E000F0CAF8204600F0B3
:102390005CF9257720680169C943490717D4C168EA
:1023A000C943490713D46FF004010161022020776B
:1023B0002068806910F4407F204602D0FFF7CAFFF2
:1023C00004E000F0ADF8204600F03FF925772068E2
:1023D0000169C943090716D4C168C943090712D462
:1023E0006FF008010161042020772068C069800730
:1023F000204602D0FFF7AEFF04E000F091F820463F
:1024000000F023F9257720680169C943C90617D46C
:10241000C168C943C90613D46FF0100101610820D7
:1024200020772068C06910F4407F204602D0FFF773
:1024300091FF04E000F074F8204600F006F92577DB
:1024400020680169C943C90708D1C168C943C907E0
:1024500004D1891E0161204600F052F9206801690B
:10246000C943090609D4C168C943090605D46FF0F8
:10247000800101612046FFF7A9FD20680169C94379
:10248000490609D4C168C943490605D46FF0400123
:102490000161204600F04EF920680169C9438906B0
:1024A0000BD4C168C943890607D46FF020010161CC
:1024B0002046BDE87040FFF78ABD70BD00B585B00D
:1024C0000021009101910291039100681049884216
:1024D0001BD11048816941F04001816180696946E2
:1024E00000F0400004904FF47C50009002200190D6
:1024F00003900948FEF7EEFE0848416821F0C0014C
:1025000041F0E06141F0C001416005B000BD000054
:10251000002C014000100240001801400000014062
:10252000704770B5044690F83C0000260D4601281F
:102530000FD0012084F83C006AB1042A1DD0082A7B
:102540002FD00C2A3FD00126002084F83C003046D2
:1025500070BD022070BD206800F0D0FE2068816947
:1025600041F0080181612068816921F004018161E5
:10257000206881692A69114311E0206800F0EEFEAD
:102580002068816941F4006181612068816921F4DA
:1025900080618161206881692A6941EA0221816143
:1025A000D2E7206800F010FF2068C16941F00801FF
:1025B000C1612068C16921F00401C1612068C1695D
:1025C0002A69114311E0206800F032FF2068C169D8
:1025D00041F40061C1612068C16921F48061C16179
:1025E0002068C1692A6941EA0221C161ACE710B5DE
:1025F000040003D094F83D0010B107E0012010BDA5
:10260000002084F83C00204600F01EF8022084F8E8
:102610003D00211D206800F0FFFD012084F84600E8
:1026200084F83E0084F83F0084F8400084F84100BC
:1026300084F8420084F8430084F8440084F845009C
:1026400084F83D00002010BD7047704710B5044667
:10265000022249B104290ED0082913D094F8410070
:10266000012816D0012010BD94F83E000128F9D1B0
:1026700084F83E200FE094F83F000128F2D184F85E
:102680003F2008E094F840000128EBD184F8402076
:1026900001E084F841200122206800F003FE134984
:1026A0002068134A884201D0904203D1436C43F41E
:1026B00000434364206888420DD090420BD0B0F1B3
:1026C000804F08D00B49884205D00B49884202D080
:1026D0000A49884204D1816801F00701062903D024
:1026E000016841F001010160002010BD002C014093
:1026F000003401400004004000080040000C00408D
:102700000A498A68521C8A600B689A4201D10022E9
:102710008A600068064A904207D1044889680C30F4
:1027200030F8110002493431086070470000002081
:10273000002C0140704770B5040004D094F84100AB
:10274000002510B106E0012070BD84F840502046FD
:1027500000F024F8242084F841002068C16821F4A6
:102760000051C160204600F0AFFE2068016921F4ED
:10277000904101612068416921F02A01416120688E
:10278000C16841F40051C1606564202084F84100B3
:1027900084F842006563002070BD000030B585B04C
:1027A0000024009401940294039400681449884220
:1027B00024D11448816941F480418161816901F427
:1027C00080410491816941F00401816180690E4D6D
:1027D00000F0040004904FF400700090022001907B
:1027E0000320039069462846FEF774FD2815CDE9BD
:1027F0000004694628460294FEF76CFD05B030BD22
:102800000038014000100240000801402DE9F84363
:10281000044690F841001F4616460D46202802D077
:102820000220BDE8F8837DB176B1002060642120EC
:1028300084F84100FEF750FEA6848046E684A06836
:10284000B0F5805F02D003E00120EAE7206910B113
:102850002E4600250EE000260CE08021204600F0E8
:102860008FFEA0B9AEB116F8010B21684860E08C6C
:10287000401EE084E08C43464FF0000200970028A1
:10288000EBD14FF04001204600F07AFE30B103203A
:10289000C7E735F8020BC0F30800E6E7202084F80C
:1028A00041000020BDE7FEE701684A69D2435205B6
:1028B0000FD46FF480624A61002140F8301F20225B
:1028C00042738173026942F00402026101730120C4
:1028D0007047002070470000F8B50446C06A1E46E5
:1028E0000D461746082807D0012805D010F5803F6F
:1028F00002D0206B122804D12068016841F4807155
:102900000160134600224FF001112046009600F0AE
:102910005DF840B120680068C00502D54FF4007032
:1029200020640320F8BD2069B0F5804F0ED006204A
:10293000216800EAD51040F0F000086133463A46BD
:102940000B49204600F08AF878B902E005F0FE0055
:1029500000E0E8B221680861054933463A46891F1C
:10296000204600F07BF80028DCD00120F8BD0000F4
:102970000800010070B516460D4604461EE02046CC
:10298000FFF792FF08B1012070BD681C16D0FEF75A
:10299000A3FD801BA84200D885B920684069C043C8
:1029A00040070BD5002044F8300F20216173A0733D
:1029B000216941F0200121612073E4E7206840692A
:1029C000C0434007DBD4002070BD00002DE9F04774
:1029D000984617460D460446C1F30746DDF8209099
:1029E0002AE000BFB8F1FF3F26D0FEF775FDA0EB4F
:1029F0000901414502D8B8F1000F1DD12068012E10
:102A000016D0806925EA00000004000C12D00020D6
:102A1000B84211D1002044F8300F20216173A07317
:102A2000216941F02001216120730120BDE8F08778
:102A30004069E7E70120EBE72068012E0AD08069B2
:102A400025EA00000004000C06D00020B842C9D0DE
:102A50000020EBE74069F3E70120F7E72DE9F047B5
:102A6000984616460D4604464FF000094FF0200ADE
:102A7000C1F3074723E020684069C043400515D4EF
:102A80002068016841F40071016021686FF4806082
:102A90004861C4F8309084F83DA084F83E90216CE1
:102AA00041F00401216484F83C9021E0701C06D0C0
:102AB000FEF712FDA0EB0800B04203D816B1012FBB
:102AC0001FD021E02068012F15D0806925EA000081
:102AD0000004000C18D000BF44F8309F84F80DA00B
:102AE00084F80E90216941F02001216184F80C9056
:102AF0000120BDE8F087406925EA00000004000CD1
:102B0000EAD12068406901E02068806925EA000078
:102B10000004000CAFD1ECE770B516460D46044634
:102B20001EE02046FFF7C0FE08B1012070BD681C02
:102B300016D0FEF7D1FC801BA84200D885B92068CA
:102B40004069C04300060BD5002044F8300F202117
:102B50006173A073216941F0200121612073E4E7D2
:102B600020684069C0430006DBD4002070BD00002F
:102B70003EB5002416480094019414490294016063
:102B8000891581600473047502250561C9024460DA
:102B9000C161FEF795F808B1FDF7A2FF052000908E
:102BA0000120CDE9010469460948FEF707F808B19C
:102BB000FDF796FF0620CDE9000569460448FDF7BC
:102BC000FDFF002801D0FDF78BFF3EBD0024014032
:102BD000B8510020094808B5416941F0010141613F
:102BE0004069002200F00100009011460B20FEF722
:102BF00069FEBDE808400B20FEF756BE00100240FB
:102C00002DE9F04786B000243348009401940294E3
:102C10000394816941F040018161816901F04001C3
:102C20000491816941F004018161816901F004012D
:102C30000491816941F0080181618069DFF89C801D
:102C400000F008000490002220214046FEF73EFCE0
:102C5000DFF88C90012211464846FEF737FCDFF87A
:102C600084A04FF48077002239465046FEF72EFCB0
:102C7000002220214846FEF729FC0820CDE9000467
:102C8000694640460294FEF725FB102001258DE899
:102C9000310069464046FEF71DFB20200226CDE9A3
:102CA0000005CDE9024669464046FEF713FB2120A8
:102CB000CDE90005CDE9024669464846FEF70AFB24
:102CC00000970396CDE9015469465046FEF702FB92
:102CD00006B0BDE8F0870000001002400018014077
:102CE000000C0140000801400D4810B50B4901607F
:102CF0000C49416000214FF480428160C0E9031219
:102D000041618161C1610162FEF7ECFB002803D0E3
:102D1000BDE81040FDF7E4BE10BD000000580040C3
:102D20002C520020801A060010B596B000240F9493
:102D300010941194129413941C2168461494FDF776
:102D40002AFA202107A8FDF726FA34483249C0E9BB
:102D500000144FF4E151C0E902410461446184610F
:102D6000FFF7F4F908B1FDF7BBFE4FF480500F9068
:102D70000FA92A48FFF780FA08B1FDF7B1FE2748EE
:102D8000FFF735FC08B1FDF7ABFE139413A92348F8
:102D90001494FFF747F908B1FDF7A2FE60200090F8
:102DA0004FF49660CDE90104039404940594002245
:102DB00069461A480694FFF7B4FB08B1FDF790FE88
:102DC0004FF461600190042269461448FFF7A9FBA3
:102DD00008B1FDF785FE4FF4AF5001900822694617
:102DE0000E48FFF79EFB08B1FDF77AFE0794C82056
:102DF0000894CDE909404FF40050CDE90B4007A9F4
:102E000006480E94FFF7E4F808B1FDF769FE0348A1
:102E1000FFF754FB16B010BD002C0140805200207B
:102E200010B586B0002417480094019402940394CE
:102E3000049413490594C0E900144FF4E151C0E92A
:102E40000241802104618161FFF780F908B1FDF73B
:102E500047FE4FF48050009069460A48FFF70CFA8D
:102E600008B1FDF73DFE2020CDE9040404A9054882
:102E7000FFF7D8F8002801D0FDF732FE06B010BDEC
:102E800000040040C85200200C4810B50A490160F7
:102E90004FF4E1314160002181600C22C160C0E942
:102EA00004128161C161FFF746FC002803D0BDE830
:102EB0001040FDF715BE10BD003801401053002032
:102EC000FEE7FEE770B5802817D2002915DB3F2901
:102ED00013DCCB1701EB5375C5F3C70325F00705CA
:102EE0000124094E491B8C4006EBC000012A05D085
:102EF000C15C022A05D0A143C15470BDC15C21430D
:102F0000FAE76140F8E70000D853002010B500212F
:102F1000AE2001F091F80021202001F08DF8002171
:102F2000102001F089F80021B02001F085F800217F
:102F3000C82001F081F80021084601F07DF8002149
:102F4000102001F079F80021402001F075F80021EF
:102F5000812001F071F80021FF2001F06DF80021BF
:102F6000A12001F069F80021A62001F065F80021F8
:102F7000A82001F061F800213F2001F05DF8002158
:102F8000A42001F059F80021D32001F055F80021C8
:102F9000084601F051F80021D52001F04DF800213C
:102FA000F02001F049F80021D92001F045F8002176
:102FB000222001F041F80021DA2001F03DF8002143
:102FC000122001F039F80021DB2001F035F8002152
:102FD000202001F031F800218D2001F02DF8002192
:102FE000142001F029F80021BDE81040AF2001F0C5
:102FF00023B80000F0B500210D4BFF260C4600223F
:1030000001280FD003EBC20580B16F5CC7F1FF0749
:103010006F54521CD2B2802AF2D3491CC9B208297B
:10302000EDD3F0BD03EBC2056E54F2E76C54F0E74C
:10303000D85300200FB4042870B50C46054613D8A9
:10304000142C11D80A4E07AA0A483260069900F0DB
:10305000E5FAC4F11501074A0020C9B230605054A6
:103060002146284600F072F870BC5DF814FB0000A1
:10307000B00100205853002070B50B4E00242146AB
:10308000002000F013F8002506EBC5000121005DCB
:1030900000F0D2FF6D1CEDB2802DF5D3641CE4B2BC
:1030A000082CECD370BD0000D853002010B50446A6
:1030B000B031C8B2002100F0BFFF102040EA141068
:1030C000002100F0B9FF04F00F00BDE8104000211E
:1030D00000F0B2BF2DE9F04F01EB410100EB4000E1
:1030E00049068006040E203A4FEA1169D0B216490B
:1030F00000EB4000A046002501EB800B00261BF8EA
:1031000005704FFA89FA380601D5012200E0002245
:1031100061B25046FFF7D6FE7806641C070EE4B293
:10312000A4EB08000C2809D0761CF6B2082EEAD3CE
:103130006D1CEDB20C2DE1D3BDE8F08F09F101005B
:10314000444600F0FF09F3E79C400008F0B517463D
:103150000C46064600250CE021463046FFF7BAFF34
:10316000641CE4B2142C02D90024761CF6B26D1C47
:10317000EDB27A5D002AEFD1F0BD70477047FEF7DF
:103180003BBB30B595B028216846FDF704F8142103
:103190000AA8FDF700F818210FA8FCF7FCFF012191
:1031A0000804CDE900100025029502240491CDE920
:1031B00007404FF4E01009906846FEF763FD08B140
:1031C00072B6FEE70AA90F2081E831004FF4806053
:1031D000CDE90D0502210AA8FEF778FC08B172B608
:1031E000FEE74FF4004011900F940FA8FEF7F8FB94
:1031F000002801D072B6FEE715B030BD7047000060
:103200000148FFF7A8B80000805200200148FFF7EE
:10321000A2B80000C8520020F0B502681C4B1D4D3A
:103220001D4E1E4F1E4C4FF0804C984209D0A042BC
:1032300007D0604505D0A84203D0B04201D0B842C3
:1032400004D122F0700E4A6842EA0E02984209D078
:10325000A04207D0604505D0A84203D0B04201D0BB
:10326000B84203D122F44075CA682A434D6922F05E
:1032700080022A4302608A68C2620A6882629842B7
:1032800001D0A04201D10969016301214161F0BD72
:10329000002C01400004004000080040000C0040E9
:1032A0000034014010B501F01F030121046A994068
:1032B0008C430462016A9A401143016210BD10B54B
:1032C00001F01F030421046A99408C430462016ADF
:1032D0009A401143016210BD10B5846842EA03228E
:1032E00024F47F440A432243826010BD826822F0A6
:1032F00070020A4342F0070181607047F0B5036A2B
:10330000026A22F00102026242688469124E24F0CD
:1033100073050C682C4323F002058B682B430D4D7D
:10332000A84201D0B04205D123F00807CB683B4347
:1033300023F00403A84201D0B04205D14D6922F424
:10334000407215438A692A43426084614968416337
:103350000362F0BD002C014000340140F0B5026A68
:10336000036A23F010030362436884690D6824F440
:10337000E64444EA05248D6822F0200242EA051260
:103380000F4D104EA84201D0B04206D1CF6822F0B6
:10339000800242EA071222F04002A84201D0B04265
:1033A00007D14D6923F4406343EA85038D6943EAFD
:1033B000850343608461496881630262F0BD000057
:1033C000002C014000340140F0B5026A036A23F486
:1033D000807303624368C46922F4007224F07305A9
:1033E0000C68124E2C438D6842EA05220E4DA8420D
:1033F00001D0B04206D1CF6822F4006242EA07222F
:1034000022F48062A84201D0B04207D14D6923F472
:10341000405343EA05138D6943EA05134360C461D1
:103420004968C1630262F0BD002C014000340140D4
:1034300030B5046A026A22F4805202624268C369AB
:103440000D6823F4E64343EA05238D6824F4005411
:1034500044EA0534084DA84202D0084DA84204D1E0
:103460004D6922F4804242EA85124260C361496894
:103470000164046230BD0000002C014000340140B2
:1034800010B5036A046A24F001040462846924F01C
:10349000F00444EA021423F00A020A43846102623F
:1034A00010BD10B5036A046A24F010040462846934
:1034B00023F0A00324F4704444EA023243EA0111E9
:1034C0008261016210BD000070B5044600680169A8
:1034D000E26821F44051114301612169A068084369
:1034E000616908432168CA6841F20C639A43024348
:1034F000CA6020684169A26921F4407111434161A9
:103500001E492068884202D1FEF786FB01E0FEF7E3
:1035100073FB00EBC00101EB0012606864218000C6
:10352000B2FBF0F3B3FBF1F36FF018067343B2FB99
:10353000F0F5B2FBF0F605EB8305322303EB05153E
:10354000B5FBF1F5B6FBF1F605F0F00505EB061558
:10355000B2FBF0F6B2FBF0F0B0FBF1F06FF0180246
:10356000504306EB800003EB0010B0FBF1F0216844
:1035700000F00F002844886070BD00000038014052
:103580002DE9F041984617460E460446069D27E071
:10359000681C25D02DB1FDF79FFFA0EB0800A842C5
:1035A0001ED920680C3050E8001F21F4D07140E88B
:1035B0000012002AF5D12068143050E8001F21F0D5
:1035C000010140E80012002AF5D1202084F84100D2
:1035D00084F84200002084F840000320BDE8F08118
:1035E0002068006836EA000004D00020B842CFD03E
:1035F0000020F3E70120F9E7FEE700000FB4054BD8
:1036000010B503A9044A029800F0FCF810BC5DF85C
:1036100014FB00003D3F0008B401002037B51446FC
:103620000846064B6A46214600F0ECF80446694617
:10363000002000F07EFC20463EBD0000333F000825
:103640000907090E002804DB00F1E02080F80014CF
:10365000704700F00F0000F1E02080F8141D704763
:1036600002E008C8121F08C1002AFAD1704770474B
:10367000002001E001C1121F002AFBD170470000A9
:103680002DE9FF5F82B00021DDE90430020DDDF895
:1036900040B0034318D044F61050A2F2FF32424328
:1036A0001514119801281FD0A5EB0B00401C5FEAF0
:1036B000000A4FF000064E4FDFF83891B0465046F2
:1036C00015D5CAF1000413E0119801244AA301287A
:1036D00001D16FEA0B010298119AC0E90031C0E9EB
:1036E000024206B0BDE8F09FCBF10000DFE70446E0
:1036F0000021404A491842EB0450CDE9001012E085
:10370000E00707D032463B4640464946FCF7A6FD57
:103710008046894632463B4610461946FCF79EFDD8
:1037200006460F466410002CEAD1DDE90401DDE90C
:103730000023BAF1000F06DAFCF790FD42464B4633
:10374000FCF78CFD05E0FCF7D0FF42464B46FCF74A
:10375000CCFF04460E460022284BFDF74DF803D857
:103760004FF0FF30014607E00022254B204631464E
:10377000FCF714FFFDF728F8102409E0002C0ADB01
:103780000A220023FCF745FE039B30321A55641EC3
:1037900050EA0102F2D1641C039AC4F111031444EB
:1037A000119A012A03D0012208430DD10AE00843EF
:1037B00004D000204FF0110B119072E7A3EB0B0522
:1037C0006D1E0DE05B4504DD4FF0000205F10105C3
:1037D00004E003DA4FF00002A5F10105002AECD065
:1037E00002981199C0E90231C0E9004579E700006B
:1037F000000014400000F03F300000000000F043E3
:103800000000E03F2DE9FF4F95B09B4689460646F4
:1038100000250FE2252877D100242746F84A012108
:10382000059400E0044316F8013F203B01FA03F041
:103830001042F7D130782A2811D06FF02F0330785A
:10384000A0F13002092A16D8059A44F0020402EBCE
:10385000820203EB42021044761C0590EFE759F810
:10386000042B0592002A03DA504244F400540590D8
:1038700044F00204761C30782E2816D116F8010F79
:1038800044F004042A280DD06FF02F023078A0F104
:103890003003092B09D807EB870302EB4303C71852
:1038A000761CF3E759F8047B761C30786C280FD02F
:1038B00006DC4C2817D068280DD06A2814D104E003
:1038C000742810D07A280FD10DE044F400140AE0D7
:1038D00044F4801401E044F440147278824202D12E
:1038E00004F58014761C761C307866280BD013DC27
:1038F000582877D009DC002875D04528F6D046280E
:10390000F4D047281AD19DE118E0632835D0642807
:1039100079D0652812D195E1702873D008DC67282A
:10392000F1D069286FD06E280DD06F2806D1B5E090
:1039300073282CD0752875D0782874D05A461799DA
:1039400090476D1C75E1C4F30250022809D003288A
:103950000DD0D9F8001004280DD00D6009F104092C
:1039600067E1D9F80010EA17C1E90052F6E7D9F883
:1039700000100D80F2E70D70F0E719F8041B8DF8C8
:10398000001000208DF80100EA46012003E059F8FC
:1039900004AB4FF0FF3061074FF0000102D40DE09F
:1039A00008F101018846B9420FDA8045F8DB1AF8C0
:1039B00008100029F4D108E008F10101884681428D
:1039C000FADB1AF808100029F6D105985B46A0EB3F
:1039D000080721463846179A00F094FA284400EB6D
:1039E000080507E04DE029E10DE01AF8010B5A4601
:1039F00017999047B8F10108F7D25B46214638463F
:103A0000179A13E142E00A220092C4F302524FF0E7
:103A1000000A022A08D059F804CB032A4FEAEC71B5
:103A20000AD00DE029E02AE009F1070121F00702A0
:103A3000F2E802C1914609E00FFA8CFC4FEAEC7102
:103A4000042A03D14FFA8CFC4FEAEC71002907DA03
:103A50000A460021DCF1000C61EB02012D2202E09C
:103A6000220504D52B228DF80420012203E0E20771
:103A700001D02022F7E7904659E00A2102E0102207
:103A80000DE010214FF0000A00910BE010224FF0E2
:103A9000000A44F004040827009203E008224FF0D3
:103AA000000A0092C4F30252022A05D059F804CB4E
:103AB0000021032A08D009E009F1070121F00702DB
:103AC000F2E802C1914605E01FFA8CFC042A01D1FC
:103AD0000CF0FF0C4FF00008220728D5702806D004
:103AE000009B83F0100353EA0A0305D00EE0402246
:103AF0008DF80420012208E05CEA010206D03022A1
:103B00008DF804208DF8050002229046009B83F07A
:103B1000080353EA0A030AD15CEA010201D16207F1
:103B200005D530228DF804204FF001087F1E58285B
:103B300004D034A003900EA802900DE036A0F9E75F
:103B400053466046009AFCF764FC84460398825C06
:103B50000298401E029002705CEA0100F0D10298C7
:103B600006A9081A00F1200A600702D524F480345F
:103B700000E00127574502DDA7EB0A0000E0002026
:103B800000EB0A01009005984144401A0590E003BB
:103B900006D45B462146179A059800F0B3F9054410
:103BA000002706E001A85A46C05D179990476D1C92
:103BB0007F1C4745F6DBE0030CD55B462146179A90
:103BC000059800F09FF9054404E030205A46179903
:103BD00090476D1C0099481E00900029F5DC08E014
:103BE000029802995A460078491C02911799904709
:103BF0006D1CBAF10001AAF1010AF1DC65E10000D7
:103C000009280100303132333435363738396162B2
:103C10006364656600000000303132333435363776
:103C200038394142434445460000000000F058F94D
:103C30000544761C307800287FF4ECAD19B0284696
:103C4000BDE8F08F620700D4062709F1070222F0D1
:103C5000070CFCE80223E14603F000485FEA080C89
:103C600002D00FF2702C0DE05FEA045C02D50FF277
:103C7000682C07E05FEAC47C02D00FF2602C01E000
:103C8000AFF2700C4FF0FF3823F00043CDF850C076
:103C900065280CD006DC452809D046281DD04728C9
:103CA0003DD13DE0662818D067287ED138E000215C
:103CB000112F01DB112000E0781CCDE9000106A9DD
:103CC0000EA8FFF7DDFCDDE90F010E9A039100213C
:103CD000009207F1010A04914DE04FF00040009777
:103CE000CDE9011006A90EA8FFF7CAFCDDE90F0215
:103CF00003920E9B11990022DDF80CA00093049210
:103D000011B9791C00EB010AB7EB0A0004D4C0F129
:103D1000FF3007F1010A0490AAEB0700019044E08C
:103D2000012F00DA01270021112F01DD112000E011
:103D30003846CDE9000106A90EA8FFF7A1FCDDE990
:103D40000F010E9A0391002104910092BA462107B7
:103D50000CD40399514500DA8A46BAF1010F05DD0A
:103D6000009AAAF10101515C302908D0B84202DA68
:103D700010F1040F06DA0121CDE9011015E0AAF1D6
:103D80000101E9E7002805DC049901440491AAEB4C
:103D9000000102E0411C514500DD8A460499401AA9
:103DA000401C01904FF000400290200704D401987D
:103DB000504501DBCDF8048000208DF84F000298BB
:103DC0000DF14F07B0F1004F25D02B200E90029837
:103DD0004FF0020800280CDA404202902D200E908D
:103DE00007E00A210298FCF7FEFA3031029007F84A
:103DF000011DB8F10001A8F10108F2DC02980028C9
:103E0000EFD1791E0E980870307800F0200040F055
:103E1000450007F8020D12A8C01B00F1070814980E
:103E2000007800B1012000EB0A01019801EBE0717C
:103E300005984144401A401E0590E00306D45B46B5
:103E40002146179A059800F05DF80544149800780B
:103E500018B15A46179990476D1CE00324D55B466C
:103E60002146179A059800F04DF805441CE0049887
:103E7000002807DBDDE90301884203DD0098405C90
:103E8000179901E0179930205A469047049805F198
:103E90000105401C04900198401E019004D12E2081
:103EA0005A46179990476D1CBAF10001AAF1010A10
:103EB000DDDC05E017F8010B5A46179990476D1C99
:103EC000B8F10001A8F10108F4DC5B462146179A1D
:103ED0000598ABE62D0000002B000000200000003C
:103EE0002DE9F041044600251E461746880404D4F7
:103EF00005E039462020B0476D1C641EF9D52846E0
:103F0000BDE8F0812DE9F041044600251E469046AB
:103F1000C80301D5302700E02027880404D505E038
:103F200041463846B0476D1C641EF9D52846BDE8A9
:103F3000F0810A68531C0B601070704713B54FF680
:103F4000FF73012269460248FEF760FC00981CBD21
:103F5000105300201CB5FDF757FCFFF712F9FEF7D0
:103F60004FFEFEF737FEFEF78FFFFEF7DDFEFEF792
:103F7000BBFEFEF7FDFDFEF753FFFEF7C7FF002176
:103F80002348FEF763FB00212148FEF789F804214E
:103F90001F48FEF75BFB04211D48FEF781F808214E
:103FA0001B48FEF753FB08211948FEF779F818481B
:103FB000FEF72CF91748FCF795FD4FF400621649FF
:103FC0001448FCF755FF1548FEF720F9154C144826
:103FD0004FF07E5560600020FFF70CF8002112A220
:103FE0000846FFF727F86068FCF7CEF9CDE9000135
:103FF0000FA200210120FFF71DF8FFF73DF8294629
:104000006068FCF7D3F860606420FDF751F9E2E7DF
:1040100080520020B8510020B8010020C852002072
:104020006D051C43000000204855494855490000D3
:10403000252E32660000000008B5074A01B1402174
:10404000117050700A2000900223034A782103481F
:10405000FDF70CFB08BD0000AC0100202C52002035
:10406000010202030405060708090A0B0C0D0E0FD6
:104070001010010202030405060708090A0B0C0DC3
:104080000E0F1010000000000000000001020304E9
:1040900006070809000000000102030400000000F8
:1040A0000000000000000000000000003F40000091
:1040B0000000000000003000400030004000000020
:1040C00009000BC03D000BC03D00090018C0244092
:1040D0007FE0224031800000180024C01B000D80CA
:1040E0003240018003801C4027401C800740004074
:1040F0001000600000000000000000000000000050
:1041000000001F80204040200000402020401F80F1
:1041100000000000090006001F80060009000000E2
:10412000040004003F800400040000000010006050
:10413000000000000000000004000400040004006F
:10414000040000000000004000000000000000002B
:10415000002001C006003800400000001F80204001
:10416000204020401F800000000010403FC0004061
:104170000000000018C021402240244018400000E8
:1041800010802040244024401B80000002000D00CD
:1041900011003FC0014000003C80244024402440E6
:1041A000238000001F80244024403440038000000E
:1041B0003000200027C03800200000001B80244071
:1041C000244024401B8000001C0022C022402240CA
:1041D0001F800000000000000840000000000000F8
:1041E0000000000004600000000000000000040067
:1041F0000A00110020804040090009000900090060
:104200000900000000004040208011000A00040066
:104210001800200023402400180000001F802040C8
:10422000274029401F400000004007C039000F0010
:1042300001C0004020403FC0244024401B800000BB
:104240001F802040204020403080000020403FC0A0
:10425000204020401F80000020403FC024402E40CE
:1042600030C0000020403FC024402E00300000003D
:104270000F001080204022403380020020403FC0C9
:10428000040004003FC02040204020403FC02040A8
:10429000204000000060202020203FC0200020009F
:1042A00020403FC024400B0030C0204020403FC091
:1042B00020400040004000C03FC03C0003C03C0024
:1042C0003FC0000020403FC00C4023003FC0200002
:1042D0001F802040204020401F80000020403FC021
:1042E00024402400180000001F802140214020E0CD
:1042F0001FA0000020403FC02440260019C00040FD
:1043000018C024402440224031800000300020406A
:104310003FC020403000000020003F8000400040AF
:104320003F80200020003E0001C007003800200030
:10433000380007C03C0007C038000000204039C0EA
:10434000060039C0204000002000384007C0384037
:1043500020000000304021C02640384020C000002E
:10436000000000007FE040204020000000007000BE
:104370000C000380004000000000402040207FE04F
:1043800000000000000020004000200000000000AD
:1043900000100010001000100010001000000000BD
:1043A00040000000000000000000028005400540C1
:1043B00003C0004020003FC00440044003800000D0
:1043C0000000038004400440064000000000038019
:1043D000044024403FC000400000038005400540E9
:1043E00003400000000004401FC02440244020007F
:1043F000000002E0055005500650042020403FC058
:104400000440040003C000400000044027C00040F6
:104410000000000000100010041027E00000000061
:1044200020403FC00140070004C00440204020401D
:104430003FC000400040000007C0040007C0040067
:1044400003C00000044007C00440040003C0004053
:10445000000003800440044003800000041007F0C3
:104460000450044003800000000003800440045016
:1044700007F00010044007C00240040004000000E0
:10448000000006400540054004C000000000040094
:104490001F800440004000000400078000400440EA
:1044A00007C000400400070004C0018006000400AB
:1044B000060001C0070001C006000000044006C05D
:1044C000010006C0044000000410071004E0018051
:1044D000060004000000044005C00640044000003F
:1044E0000000000004007BE040200000000000000D
:1044F0000000FFF000000000000040207BE004000E
:10450000000000004000800040002000200040002B
:104510003045000800000020B80100008E080008A7
:10452000B0460008B8010020205A0000703600088C
:10453000B2C81864490EBA0E2A0F9B0F0B107B10DD
:10454000EA105811C61133129E1209137213D913AF
:104550004014A51408156915C81526168216DB1611
:1045600032178717D91729187718C1180A194F1940
:104570009119D1190E1A471A7E1AB11AE11A0E1B97
:10458000381B5E1B811BA01BBD1BD51BEA1BFC1B24
:104590000A1C151C1C1C20021A1C0A1C0A1CFC16D6
:1045A0001AD51E1AA0261A5E2E1C0E1BE13A1A7E80
:1045B000421C0E1AD14E1E4F190A19C15E1C291831
:1045C000D96A1C3217DB761C2616C8821808081513
:1045D000A5144014D996180C09139E123312C61153
:1045E0005811EAB210580B109B0F2A0FBA0E490E41
:1045F000D70D660DF60C850C150CA50B360BC80AED
:104600005A0AED0982091709AE084708E0077B0737
:104610001807B7065806FA059E054505EE049904E5
:104620004704F703A9035F031603D1028F024F0269
:104630001202D901A2016F013F011201E812C21258
:104640009F12801263124B123612241216120B5252
:10465000041A040A1A16121A361A1A63221A9F2A00
:1046600012E81A12361A6F3E1CD901124A1E8F0226
:10467000D102165A1EA903F703476A1CEE044576B9
:104680001808FA055806B706188A1808E0074708F8
:10469000AE08179E180CED095A0AC80A360BA50B6E
:1046A00015BA3008F60C660DD70D018210D324F42C
:0400000508000131BD
:00000001FF
