:020000040800F2
:10000000104A00200D020008AF3D000889370008A3
:10001000AD3D0008491800089D420008000000009E
:10002000000000000000000000000000993E0008F1
:10003000531A000800000000973E00089B3E00088D
:1000400027020008270200082702000827020008EC
:1000500027020008270200082702000827020008DC
:10006000270200082702000827020008CD18000810
:1000700027020008270200082702000827020008BC
:1000800027020008270200082702000827020008AC
:10009000270200082702000827020008270200089C
:1000A000270200081D3F0008270200082702000859
:1000B00027020008293F000827020008270200083D
:1000C000270200082702000827020008270200086C
:1000D000270200082702000827020008270200085C
:1000E000270200082702000827020008270200084C
:1000F000270200082702000827020008270200083C
:10010000270200082702000827020008270200082B
:10011000270200082702000827020008270200081B
:10012000270200082702000827020008270200080B
:1001300000F002F800F05AF80AA090E8000C82449F
:100140008344AAF10107DA4501D100F04FF8AFF27C
:10015000090EBAE80F0013F0010F18BFFB1A43F0A5
:100160000103184760830000808300000A444FF0B9
:10017000000C10F8013B13F0070408BF10F8014B06
:100180001D1108BF10F8015B641E05D010F8016B4B
:10019000641E01F8016BF9D113F0080F1EBF10F8AF
:1001A000014BAD1C0C1B09D16D1E58BF01F801CBD2
:1001B000FAD505E014F8016B01F8016B6D1EF9D555
:1001C0009142D6D37047000000230024002500266A
:1001D000103A28BF78C1FBD8520728BF30C148BFAA
:1001E0000B6070471FB51FBD10B510BD00F06CF857
:1001F0001146FFF7F7FF04F0AFF800F08AF803B4F8
:10020000FFF7F2FF03BC00F08DF8000009488047BB
:1002100009480047FEE7FEE7FEE7FEE7FEE7FEE7E8
:10022000FEE7FEE7FEE7FEE704480549054A064B00
:1002300070470000193F00083101000810440020F9
:10024000104A002010460020104600204FF0000207
:1002500000B5134694469646203922BFA0E80C50BC
:10026000A0E80C50B1F12001BFF4F7AF090728BF97
:10027000A0E80C5048BF0CC05DF804EB890028BF13
:1002800040F8042B08BF704748BF20F8022B11F03C
:10029000804F18BF00F8012B7047704770477047B8
:1002A00010B500F009F8006810BD10B5044600F064
:1002B00003F8046010BD000000487047AC43002004
:1002C00000487047AC4300207546FFF7F9FFAE4683
:1002D00005006946534620F00700854618B020B552
:1002E000FFF7A2FFBDE820404FF000064FF00007E7
:1002F0004FF000084FF0000B21F00701AC46ACE8CE
:10030000C009ACE8C009ACE8C009ACE8C0098D463A
:10031000704710B50446AFF300802046BDE810409A
:10032000FFF76DBF01491820ABBEFEE726000200B3
:1003300070470000B0B5E1B14FF0000C02EB4C0487
:1003400032F81C300CF1020C64888C4523F0030356
:1003500024F0030450F803E00559C55040F804E0C8
:1003600003440444D3F804E065685D60C4F804E025
:10037000E4D3B0BD2DE9F047B0F800A0984691460F
:100380000C460746012A0ED1BAF1000F42D0261DB5
:10039000554600BF31684FF0004005F051F846F86F
:1003A000080B013DF6D1BAF1FF0F0CDDBAF5806FF5
:1003B00013DBBAF5805F27D0BAF5006F14D0BAF519
:1003C000806F1CD026E0BAF13F0F12DCBAF1100F9B
:1003D00015D0BAF1200F07D01CE0BAF5807F03D00A
:1003E000BAF5007F10D015E03846214600F084F9B8
:1003F00010E0BAF1400F07D0BAF1800F0AD13846A9
:10040000214600F037F805E07A682046514601237E
:1004100000F034FDB8F1000F04D0BA68B989204665
:10042000FFF788FFB9F1010F22D1504604F03AFEE0
:1004300001464FF07E5004F01FFDBAF1000F08BFD7
:10044000BDE8F087064600BFD4E90017304604F047
:1004500071FE20603046394604F06CFE01464FF0D4
:10046000004004F0EDFF60600834BAF1010AEBD1FE
:10047000BDE8F0872DE9F04F9BB00288059101EBB4
:1004800082011491019040680021B1EBD20F0490D9
:100490004FEA5200029000F01D81D008029A05999F
:1004A0004FF0000A404201EB82010391149901EBE5
:1004B000820113911290059D55F80A000A90149A32
:1004C00052F80A101446099104F062FC139B05EBE4
:1004D0000A0703EB0A0153F80AB04A68119108921F
:1004E0008A68C9681A921791DDF80C9009EB0A0620
:1004F00059F80A8071681591B1681691F1681891E0
:1005000004EB0A01CDF82CB0CDF8308019914A687F
:100510008C68C96845F80A007868BD6807920E942F
:1005200010910690F8680D950F9004F031FCF8607A
:100530002846214604F02CFC079C069DB8602846FE
:10054000214604F025FC78604046594604F020FC22
:1005500049F80A00DDE9171004F01AFCF06016985B
:100560001A9904F015FCDDF82080B060159841461A
:1005700004F00EFC7060DDE9091004F061FF07462D
:100580002846214604F05CFF049E0446384656F88F
:100590000A90494604F0CEFD06EB0A0B05462046BC
:1005A000DBF80460314604F0C5FD0146284604F03E
:1005B000EFFB149941F80A002046494604F0BAFDC1
:1005C00004463846314604F0B5FD0146204604F0A5
:1005D00037FF19994860DDE90B0104F031FF1599E7
:1005E0000446404604F02CFF05462046314604F000
:1005F000A1FD07462846494604F09CFD01463846C1
:1006000004F01EFF139941F80A002846314604F011
:1006100091FD05462046494604F08CFD294604F02C
:10062000B7FBDDF84490C9F80400DDE90D0104F0E2
:1006300007FF0646DDE90F0104F002FFDBE9028B4C
:100640000746414604F076FD04463046594604F01C
:1006500071FD0146204604F0F3FE199D4146E86015
:10066000304604F067FD04463846594604F062FD02
:100670000146204604F08CFBA8601A98169904F0F5
:10068000DFFE0446DDE9170104F0DAFE59460646AE
:1006900004F050FD07462046414604F04BFD394624
:1006A00004F076FBC9F80C00204659464F4604F08A
:1006B00041FD04463046414604F03CFD01462046DB
:1006C00004F0BEFEC9F8080012980AF1100A0130C1
:1006D0007FF4F0AE029C0598049A0223214600F0B4
:1006E000CDFB019821460223426814981BB0BDE857
:1006F000F04F00F0C3BB00002DE9F04FB3B08346CC
:1007000000880C4662684FEA500A2D90206801EB81
:100710008A0858F82A102E912C902B9204F038FB5E
:1007200054F82A103290309104F032FB08EB8A051D
:1007300055F82A102F9104F02BFB05EB8A01D5F810
:100740000490D8F8047005914E68DBF80410CDF8D9
:1007500010B0206006914946DDF8ACB0584604F070
:1007600017FB3946319004F013FB314604F010FBBF
:1007700060602C982E9904F063FE39462E9004F0A8
:1007800007FB314604F05CFE44F82A00584649460F
:10079000239404F055FEDDF8C0900446494604F069
:1007A0004FFEDDF8BCB0594604F0F2FAC8F8040078
:1007B0003298494604F044FE594604F041FECDF813
:1007C0000C8048F82A003946319804F039FE314649
:1007D00004F036FE68602E98394604F031FE31464A
:1007E00004F0D6FA45F82A0020464946029504F05E
:1007F000CFFA594604F024FE0599002700234FEA5A
:100800008A0548606FF0030000EB8A012B916FF0BE
:10081000070101EB8A0230926FF001022D9E3193A5
:100820004FEACA0302EB9602A7EB52022E9200EBAC
:10083000CA022A9201EBCA02329201EB0A122F92EB
:1008400000EB0A1229920AEB4A0201EB820100EB4B
:100850008200970028912790B008002101902D91E7
:1008600000212C9187E100BFCDE91565DDF88C9062
:100870002A9809EB00060C962B9809EB000A27989A
:1008800009EB000112910968299809EB000507F1AD
:1008900018001E95139002F110000F9004F108004B
:1008A00014970790DAF800000A9010910D9204F066
:1008B0006FFA31681190269104F06AFA296825913F
:1008C00004F066FA2F9F59F807200B922F97329E5B
:1008D00059F8062024923296289959F80110099166
:1008E000309D59F80530CAF8000018460893309535
:1008F00004F04EFA59F806100E9004F049FA59F82F
:10090000071004F045FA49F805000798209DD0F833
:1009100000A02846514604F00DFCE468229F0646DC
:100920003846214604F006FC0146304604F030FA11
:10093000C8F800003846514604F0FCFB064628463D
:10094000214604F0F7FB0146304604F079FDCBF870
:100950000000DDE9080104F073FD209005460A98C7
:10096000109904F06DFD22900646DDE9251004F093
:1009700067FD01461090284604F00AFADDF89080E1
:1009800005463046414604F05BFDDDF82CB0594683
:1009900004F0FEF92146064604F0CCFB0746284643
:1009A000514604F0C7FB0146384604F049FD0C9956
:1009B00008602846214604F0BDFB044630465146F7
:1009C00004F0B8FB214604F0E3F932991F9F49F87F
:1009D00001000F98D0F800A03846514604F0AAFB59
:1009E00005460D98219C46692046314604F0A2FB3D
:1009F0000146284604F0CCF9189908602046514673
:100A000004F098FB05463846314604F093FB014656
:100A1000284604F015FD179908600E98414604F029
:100A20000FFD594604F00CFD05461198269904F077
:100A300007FD259904F004FD5146074604F07AFBB2
:100A400001464FF0004004F0FBFC044628463146C6
:100A500004F070FB0146204604F0F2FC1299086095
:100A60002846514604F066FB04463846314604F0F9
:100A700061FB214604F0E4FCDDF8A0A0159C49F8D8
:100A80000A001398D0F800802046414604F052FB3B
:100A900006461498169FC5693846294604F04AFB55
:100AA0000146304604F074F9199908603846414609
:100AB00004F040FB06462046294604F03BFB014675
:100AC000304604F0BDFC1A9908601098209904F093
:100AD000B7FC24990646584604F0B2FC229904F06B
:100AE000AFFC2946074604F025FB04463046414644
:100AF00004F020FB0146204604F0A2FC1E99086089
:100B00003046294604F016FB04463846414604F0B8
:100B100011FB214604F03CF92F9949F801002B986C
:100B200008382B903098083830902E9801302E904D
:100B30002A9808382A903298083832905046AAF1FC
:100B4000080028902798083827900846A1F1080047
:100B50002F902998083829903198083031902D9895
:100B600010302D902C9818302C901B9F1D9B1C9D95
:100B7000083708330835239C319904EB010AE6183D
:100B8000DAF80800DAF80C9022901D93159656F8C2
:100B9000081F209104F0FCF804EB050826901C9532
:100BA000CDF8508058F8081F259104F0F1F81B97F4
:100BB0002744169757F8081F249104F0E9F819976D
:100BC00057F8041FC3465BF8045F1E91189656F849
:100BD000044FCAF8080048462146179604F0D8F892
:100BE000DBF80010219004F0D3F839681A9704F06C
:100BF000CFF8CAF80C002298209904F021FC29466D
:100C00000646AA4604F0C4F81E9D294604F018FCC6
:100C100020904846214604F013FC259F044639469F
:100C200004F00EFCDDF89090494604F0B1F82290F3
:100C30003946269804F004FC494604F001FC1F9054
:100C40005146219804F0FCFB294604F0F9FB219061
:100C50003046514604F0F4FB294604F099F8064664
:100C60002046394604F094F8494604F0E9FB05466D
:100C700006982C9947182D994218319944182E98A6
:100C800000287FF4F1ADD4E90294924632944946AB
:100C9000229804F04FFADDF880B08046214658468D
:100CA00004F048FA0146404604F0CAFBDDF85080E3
:100CB0004946C8F80C00584604F03CFA044622980D
:100CC000329904F037FA0146204604F061F8C8F87A
:100CD0000800DAE9048ADDF884B05846414604F099
:100CE00029FA1F9C81465146204604F023FA01460A
:100CF000484604F0A5FBDDF854904146C9F80C00C5
:100D0000204604F017FA80465846514604F012FA7D
:100D10000146404604F03CF8C9F808002846D7E9E7
:100D20000648214604F006FA07463046414604F0DC
:100D300001FA0146384604F083FB169F2146F8600D
:100D4000304604F0F7F904462846414604F0F2F92B
:100D50000146204604F01CF8019DB8602398069ACD
:100D60000423294600F08AF8049C039829460423AA
:100D7000626800F083F8626802982946042300F054
:100D80007DF8626805982946042333B0BDE8F04F2A
:100D900000F074B82DE9F04381B00546002090467C
:100DA0000C46B0EB920F4CD04FEA9800C0F100090E
:100DB000D5E90007014604F0BDF906463846394634
:100DC00004F0B8F90146304603F0E2FF03F05CFBA3
:100DD0002060D5E90206014604F0ACF9074630462A
:100DE000314604F0A7F90146384603F0D1FF03F07D
:100DF0004BFB6060D5E90406014604F09BF9074609
:100E00003046314604F096F90146384603F0C0FFFB
:100E100003F03AFBA060D5E90606014604F08AF922
:100E200007463046314604F085F90146384603F05E
:100E3000AFFF03F029FBE0601034203519F1010900
:100E4000B6D118F0030016D0474200BFD5E900061E
:100E5000014604F06FF980463046314604F06AF9E5
:100E60000146404603F094FF03F00EFB44F8040BE8
:100E700008350137EAD101B0BDE8F0832DE9F04F24
:100E8000C3B00C460392CDE901031891E208DDF8E6
:100E900004B0E600D5000592A5EBD4002095C00073
:100EA000429010011D905001199002EB420002EB9C
:100EB0008202C300070100201C93D300CDE91A640D
:100EC000CDE91E734190DDF86490DDE91C785BF894
:100ED00005005BF803103590369103F059FFDDF8FB
:100EE00008A104462F905BF807005BF80A103490C5
:100EF000339103F04DFF01462D90204603F048FF4B
:100F000006465BF80910DBF800003891379003F0D3
:100F10003FFF1E9904462B905BF808005BF8011018
:100F20003D903C9103F034FF01462A90204603F0A7
:100F30002FFF3146044603F02BFFCBF8000020467C
:100F4000314604F07DFA4BF8090020985844426875
:100F50003E901F985844319241684090104630911D
:100F600003F016FF0BEB0A01044626900BEB07007B
:100F70003F9040683B9149682E902C9103F008FF08
:100F800082462046514603F003FF0BEB0904074657
:100F9000DBF804000BEB08066168279639903A915C
:100FA00003F0F6FE80461E98726858442992416804
:100FB00028901046329103F0EBFE0646404631463B
:100FC00003F0E6FE3946814603F0E2FECBF804006A
:100FD0004846394604F034FA60602698514604F0D9
:100FE0002FFA0746DDE92A1004F02AFA39460446AA
:100FF00003F0CEFE1D994BF801002046394604F05F
:101000001FFA1E994BF801002F982D9904F018FA39
:1010100004464046314604F013FA2146054604F0E2
:101020000FFA279948602046294603F0B1FE289917
:101030004860DDE9350104F003FA36900446DDE945
:10104000331004F0FDF901463590204604F0F8F91C
:1010500040F2F341C3F6357104F06CF80446DDE963
:10106000301004F0EDF9054634902E982C9904F0D8
:10107000E7F981462846494603F08AFE40F2F341EB
:10108000C3F6357104F056F80546DDE9370104F082
:10109000D7F92146064603F07BFE07462998329988
:1010A00004F0CEF92946804603F072FE82463846A7
:1010B000514603F06DFE20994BF80100384640F28E
:1010C000F3475146C3F6357704F0BAF942994BF825
:1010D00001003046214604F0B3F904464046294653
:1010E00004F0AEF905462046294603F051FE1F994B
:1010F0004BF801002046294604F0A2F91C994BF850
:101100000100DDE9351003F043FE394604F012F822
:1011100080463498494604F093F9394604F00AF8B9
:101120008146DDE93C1004F08BF94146064603F0A8
:101130002FFE0746DDE9390104F082F949460446ED
:1011400003F026FE3946054604F07AF93E994860D8
:101150003846294603F01CFE3B994860304641461C
:1011600004F06EF905462046494604F069F929461F
:10117000044604F065F9409948602846214603F08A
:1011800007FEDDE91F35DDE91A643F9A18995060C2
:101190004198B34420448842FFF494AE402CC0F000
:1011A000AD820298DDF804C000244FF0010B80B23C
:1011B00004900598C0EBC0004FEAC008CDF8248029
:1011C0000498039EE146CDF81CB0CDF81890044475
:1011D00056F83400C4EBC40E04EB840C620104EB3B
:1011E00044010894179056F83E00169056F83C00BB
:1011F0001590B0580432B258149056F8310011923C
:1012000013902001021D3758B058E20004321297A3
:101210004F461090B0580A010F90B0580E904FEA08
:10122000CE00043030580D90101D30580C904FEA0D
:10123000CC00043030580B90C800043030580A906D
:10124000FA187819CDF800B14297419080689168FA
:1012500091463E923590369103F09AFD04462A90CD
:1012600042981C9900EB010B4298DBF80820CDF85E
:10127000FCB000EB080ADAF8081010463392CDF8FB
:10128000F4A0349103F084FD01462B90204603F036
:101290007FFD074623904298199908448168219060
:1012A0004298826842983891D0F80C801046379264
:1012B000CDF8E88003F06CFD054629901D98429911
:1012C0000C1842981E99A26827944618B1681046D7
:1012D0003C922C963B9103F05BFD014628902846FA
:1012E00003F056FD3946229003F052FD4299886082
:1012F0004198D9F80C10C0682F91309003F048FD48
:101300000546DBF80C00DAF80C102E902D9103F056
:101310003FFD014626902846AA4603F039FDDDF838
:10132000849005464046D9F80C10399103F030FD01
:10133000F16807462590E0683290319103F028FD6E
:1013400001462490384603F023FD2946074603F062
:101350001FFD4299C860DDE9220104F071F80446DE
:101360003846294604F06CF8149E834659463046A8
:1013700003F0E0FE119D07462146284603F0DAFE01
:101380000146384604F05CF8C9F80C0030462146A6
:101390004F4603F0CFFE04462846594603F0CAFEE6
:1013A0000146204603F0F4FCC9F80800DDE92A01F3
:1013B00004F046F8269905462B90504604F040F874
:1013C0008146DDE9281004F03BF84946804603F0E9
:1013D000DFFC0446DDE9241004F032F82946824699
:1013E00004F02EF8129F06463146384603F0A2FE5E
:1013F000DDF840B005462146584603F09BFE014605
:10140000284604F01DF8279D2146E860384603F081
:1014100091FE04465846314603F08CFE214603F007
:10142000B7FCA8604046494604F00AF804462B98E9
:10143000514603F0ADFC0E9F80464146384603F00E
:1014400079FE0C9D06462146284603F073FE0146B0
:10145000304603F0F5FF2C9E2146F060384603F03D
:1014600069FE04462846414603F064FE214603F027
:101470008FFCB060DDE9350103F0E2FF8046DDE975
:10148000330103F0DDFF83464046594603F0D8FFA1
:1014900040F2F34AC3F6357A514603F04BFE3690DC
:1014A0000446DDE92F1003F0CBFF0646DDE92D10E1
:1014B00003F0C6FF07463046394603F069FC514643
:1014C00003F038FE35900546DDE9370103F0B8FF3B
:1014D0002146389003F05CFC30900446DDE9311081
:1014E00003F0AEFF2946379003F052FC01463290DC
:1014F000204603F04DFC81464046594603F048FC27
:10150000514603F017FE044634903046394603F046
:1015100097FF514603F00EFE33900546DDE93B1080
:1015200003F08EFF21463C9003F032FC0646DDE9D5
:10153000391003F085FF29463B9003F029FC314622
:10154000074603F07DFF179D82465146284603F06B
:10155000F1FDDDF83CB004464946584603F0EAFD8B
:101560000146204603F06CFFDDF804814946C8F8C7
:101570000C00284603F0DEFD04465846514603F0B1
:10158000D9FD0146204603F003FCC8F80800309856
:10159000329903F055FF04463046394603F0F8FB14
:1015A000169D80464146284603F0C4FD0D9E074621
:1015B0002146304603F0BEFD0146384603F040FFA9
:1015C0003D9F2146F860284603F0B4FD04463046AE
:1015D000414603F0AFFD0146204603F0D9FBB86059
:1015E0003898369903F02CFF044641903798359986
:1015F00003F026FF01463D90204603F0C9FB074655
:101600003C98349903F01CFF82463B98339903F0D1
:1016100017FF5146834603F013FF159D06463146DA
:10162000284603F087FDDDF82C8004463946404605
:1016300003F080FD0146204603F002FFDDF8F8903C
:101640003946C9F80C00284603F074FD04464046AC
:10165000314603F06FFD0146204603F099FBC9F8BF
:10166000080041983D99DDF8248003F0E9FE044626
:101670005046594603F08CFB139F83465946384623
:1016800003F058FD0A9D06462146284603F052FD08
:101690000146304603F0D4FE3F9E2146F0603846B6
:1016A00003F048FD04462846594603F043FD014631
:1016B000204603F06DFBDDF800B1429FDDE91F35E8
:1016C0001B9AB0601A981899934407448B45FFF40D
:1016D000B7ADDDF81CB0DDF818C00598089C0BF11B
:1016E000010B0CF1080C8345FFF46AAD0298059CD0
:1016F0003F2A4FEAC00002903FF6C8AB43B0BDE8B6
:10170000F08F000070B5044600688168C943C907BE
:1017100017D1816821F00101816000F091FE05463A
:101720000AE000BF00F08CFE401B022804D92068AC
:101730008068C043C00706D020688068C043C007E7
:10174000F0D0002070BDA06A40F01000A062E06AF6
:1017500040F00100E062012070BD10B50146406A12
:10176000826A12F0500F05D0006A026BBDE810408B
:1017700008461047816A41F40071816201688968F6
:10178000C1F3424107290CD1017B51B9816A21F48F
:1017900080718162816AC90403D4816A41F00101C8
:1017A000816200F043FA10BD10B5406A816A41F0D1
:1017B00040018162C16A41F00401C16200F038FA5F
:1017C00010BD10B5406A00F032FA10BDF8B5002621
:1017D0000446009600688168C943C9072DD0816816
:1017E00041F001018160164816490068B0FBF1F034
:1017F00000E0401E00900028FBD100F021FE0546CD
:1018000016E000BF00F01CFE401B022810D9206823
:101810008068C043C0070BD0A06A40F01000A062EF
:10182000E06A40F00100E06284F824600120F8BD25
:1018300020688068C043C007E4D10020F8BD0000E4
:10184000D801002040420F00FEE710B50446D4E95D
:10185000000103F0F5FDE16803F06CFCE061616AF2
:10186000A06803F0CBFB07D1E169206903F062FCBB
:10187000A16A03F08DFA00E0A06A2062A062E2692A
:101880000146104603F084FA6062616903F01EFDB0
:1018900001D2606900E0606AA060A16903F016FCF3
:1018A00001D2A06900E0A068A06010BD0021016025
:1018B000416081604FF07E52C160C0E904128161D5
:1018C000C161016241628162C16270472DE9F05FCE
:1018D000474800F00DFB474C474F484D2078C00764
:1018E00015D04748006802F0D3FE4FF06632454BF2
:1018F00002F01EFF6FF00B0203F049FE02F0DAFD6A
:10190000396845F82100491C012039602070207891
:101910004FF48066401C207038683B4CDFF8EC9038
:10192000B0424AD300213A4A0846396055F820307F
:1019300042F8303002EBC003401C5960B042F5DB86
:101940000123002232493348FEF714FDB0463246E7
:1019500031492F48FFF71EFA2F4F6FF0090A514601
:10196000386803F042FE01266FF0080BC7F800004C
:1019700057F82600594603F038FE47F82600761C33
:101980004645F5DB5FF0000655F82600014603F0FA
:10199000D1FB03F0D1F9D4E9002302F0BDFD761CA0
:1019A0004645C4E90001EFDB524603F0F0FDC4E90F
:1019B000000102F043FDC4E90001D4E90001002266
:1019C000164B02F0B3FF03D8D9E90010C4E90010A8
:1019D000D4E90001124A134CC9E9000112682260DF
:1019E00002F068FD60602046BDE8F05FFFF72DBFA4
:1019F0003C420020C0010020A8010020DC010020A2
:101A00001000002066660A40B0010020B8010020E6
:101A1000DC110020B4640008DC3100200000244008
:101A200008000020DC41002030B590F8405001242F
:101A3000AC40C56B6C60046863604368102B03683E
:101A400003D099600068C26030BD9A600068C160D0
:101A500030BD704772B6FEE7F8B500250446009524
:101A600090F8240001280BD0012084F8240020469F
:101A7000FFF748FE2046FFF7A9FE060002D050E01F
:101A80000220F8BDA06A20F4885040F00200A06255
:101A9000022000F0FDFE25490968B1FBF0F040008E
:101AA00000E0401E00900028FBD12068816841F0D2
:101AB0000801816000F0C4FC074608E000F0C0FCAB
:101AC000C01B0A2803D920688068000715D4206845
:101AD00080680007F2D42068816841F004018160C9
:101AE00000F0AEFC074612E000F0AAFCC01B0A287A
:101AF0000DD920688068400709D5A06A20F002004F
:101B000040F01000A06284F824500120F8BD206845
:101B100080684007E8D4A06A20F0020040F001008D
:101B2000A06284F824503046F8BD0000D80100209F
:101B3000F8B50024009490F824202546012A12D0FC
:101B4000012280F824204A681F23072A0DD2066844
:101B5000776B521E02EB820293409F430B689340C7
:101B60001F43776319E00220F8BD06680D2A0AD2E8
:101B7000376BD21F02EB820293409F430B68934066
:101B80001F43376309E0F76A0D3A02EB8202934084
:101B90009F430B6893401F43F7620A680723066858
:101BA0000A2A0AD3F7680A3A02EB420293409F439B
:101BB0008B6893401F43F76008E0376902EB4202ED
:101BC00093409F438B6893401F4337610A68102AF4
:101BD00001D0112A20D1124B02689A4217D1936882
:101BE0001B0219D4936843F4000393600968102919
:101BF00012D10C490C4A0968B1FBF2F101EB8101E9
:101C0000490000E0491E00910029FBD104E0816AEF
:101C100041F020018162012480F824502046F8BD63
:101C200000240140D801002040420F007047704757
:101C3000704700002DE9F04104004FF000057FD00F
:101C4000A06A002628B9E66284F82460204600F0E5
:101C500081F82046FFF756FDA16AC90600D420B1DD
:101C6000A06A40F01000A0626AE0A16A21F48851E5
:101C700041F00201A162334923688B42E16904D13A
:101C8000B1F5402F01D14FF40021277B4FF4807C28
:101C900041EA470261680A43A168614508D0012909
:101CA00006D0002194F814E0BEF1010F02D00AE042
:101CB0006146F7E7C7B1A76A47F02007A762E76A5E
:101CC00047F00107E7625F6827F469470F435F60E9
:101CD000236899681C4F394011439960A168614598
:101CE0000BD0012909D00CE0DFF860E0A7690EEB0A
:101CF00047370F4347F40061E5E7218A0D05A5F555
:101D000080152168CB6A23F470032B43CB622168D2
:101D100089680F4B1940914208D1E662A16A21F00F
:101D2000020141F00101A162BDE8F081A06A20F04A
:101D3000020040F01000A062E06A40F00100E062A2
:101D40000120F1E7003C0140FDF7E1FF00E0FFFF6B
:101D5000FE0E1FFF70B586B0002506460095019562
:101D60000295039500681A4988422ED1194988695D
:101D700040F400708861886900F4007004908869FC
:101D800040F0040088618869694600F0040004900E
:101D900060200090032001900F4800F043FA104C9F
:101DA0000E48C4E900058020C4E90250800020618B
:101DB000800060612020C4E90605204600F0BCF9DF
:101DC00008B1FFF747FE3462666206B070BD0000DE
:101DD00000240140001002400008014008000240B9
:101DE0003C4200202DE9F047894604463B49006803
:101DF0003B4F0E1D9046884201D0B84207D1306853
:101E000010F4702F03D001252846BDE8F08794F820
:101E1000240001280CD0012084F824002046FFF77C
:101E2000D5FC05004FF0000004D084F82400EBE757
:101E30000220EAE7A16A40F60162914341F4807111
:101E4000A1622168B94218D1326812F4702F14D0FF
:101E5000A16A41F48011A1623168490505D5A16AE2
:101E600021F4005141F48051A162A16AC9040AD54C
:101E7000E16A21F00601E16206E0A26A22F4801222
:101E8000A2624968E9E7E06284F82400216A154803
:101E90008862216A1448C862216A1448086321686C
:101EA0006FF0020008602068816841F480718160F1
:101EB000216843464A464C31206A00F07BF920688D
:101EC0008168C1F342410729816803D041F4801140
:101ED000816099E741F4A001FAE700000024014085
:101EE000002801405B170008C3170008A917000865
:101EF0002DE9F05FC16B0A6801680B68046C4FF054
:101F0000040808FA04F8844D844E854FDFF814C2A3
:101F1000DFF81492DFF814A2DFF814B2DFF814E24D
:101F200018EA020F65D05FEA437862D50A68920624
:101F300003D40A6822F004020A60DFF8F0814FF44B
:101F40008062016808F1140813011402414524D984
:101F5000A9420DD0B1420FD0B9421AD0614515D077
:101F6000494515D0514501D1120312E0594501D11F
:101F700004220EE0714501D140220AE06D4D143576
:101F8000A94206D06B4A2832914201D11A4600E09C
:101F900022466749091F0A6029E0A94213D0B142CD
:101FA00015D0B94220D061451BD049451BD05145C1
:101FB00002D14FF4800217E0414502D14FF0806218
:101FC00012E0594501D104220EE0714501D14022B1
:101FD0000AE0584D1435A94206D0564A283291429B
:101FE00001D11A4600E022464B4908394A60C16ACD
:101FF00071E04FF0020808FA04F818EA020F70D0F6
:102000005FEA83786DD50A68920606D40A6822F0E2
:102010000A020A60012180F82110DFF810814FF4D4
:102020000072016808F1140813011402414524D913
:10203000A9420DD0B1420FD0B9421AD0614515D096
:10204000494515D0514501D1120312E0594501D13E
:1020500002220EE0714501D120220AE0354D1435EF
:10206000A94206D0334A2832914201D11A4600E0F3
:1020700022462F49091F0A6029E0A94213D0B14224
:1020800015D0B94220D061451BD049451BD05145E0
:1020900002D14FF4001217E0414502D14FF0007217
:1020A00012E0594501D102220EE0714501D12022F2
:1020B0000AE0204D1435A94206D01E4A283291422A
:1020C00001D11A4600E02246134908394A6000212E
:1020D00080F82010816A00291CD0BDE8F05F084715
:1020E000FFE70825A540154214D01A0712D50A6843
:1020F00022F00E020A6090F84020C36B012101FA21
:1021000002F25A60816380F82110002180F82010CB
:10211000016BE0E7BDE8F09F080002401C000240B0
:102120003000024044000240580002406C0002406F
:10213000080402401C04024030B560B11A4B02682A
:1021400014219A4209D2194B1344B3FBF1F18900CF
:10215000016417490AE0012030BD134B5B42134470
:10216000B3FBF1F1890001640F490839C163022111
:1021700080F82110136843F6F0718B43F0E90114E5
:102180002143D0E902452C4321430469214344699A
:1021900021438469214319431160002141630122D5
:1021A00042770177084630BD08040240F8FFFDBFC2
:1021B0000000024070B5044690F820000025012878
:1021C0000CD0012084F8200094F821600020012E1A
:1021D00006D084F820000225284670BD022070BD7C
:1021E000022684F82160A0632068066826F00106B4
:1021F00006602046FFF718FCE06A002820680168A6
:1022000002D041F00E0106E021F0040101602068D7
:10221000016841F00A0101602068016841F0010194
:102220000160D9E72DE9F84FDFF8C8910024A9F142
:10223000040B23460F2709F1040AABF1040ED1E089
:102240000125A54006EA0502AA4276D1DFF8A8C119
:102250004E68A6EB0C0866452BD00DDC032E34D05F
:1022600005DC36B3012E19D0022E2FD11BE0112E22
:1022700016D0122E2AD119E0B8F5881F19D006DC25
:10228000B8F5803F15D0B8F5801F1FD111E0B8F523
:10229000001F0ED0B8F5041F18D10AE0CB6815E076
:1022A000CB681B1D12E0CB6808330FE0CB680C3302
:1022B0000CE08B682BB1012B4FF0080303D0456174
:1022C00004E0042302E0056100E00023FF2A01D8B6
:1022D000064601E000F104064FEA840501D9A5F1A4
:1022E0002005D6F8008007FA05FC28EA0C0803FA56
:1022F00005F548EA0508C6F800804D68ED0070D580
:102300003E4DAE6946F00106AE61AD6924F00306AC
:1023100005F0010500953A4D06EB050CDCF8085078
:10232000A607360F07FA06F825EA0805DFF8D48075
:10233000404503D14FF0000825E052E0DFF8C880A7
:10234000404502D14FF001081DE0DFF8C080404554
:1023500002D14FF0020816E0DFF8B480404502D108
:102360004FF003080FE0DFF8AC80404502D14FF09A
:10237000040808E0DFF8A080404502D14FF00508CE
:1023800001E04FF0060808FA06F848EA0508CCF81C
:1023900008804D68D9F80060ED024D4601D516431E
:1023A00000E096432E604D68DAF80060AD025546B5
:1023B00001D5164300E096432E604D68DBF80060BF
:1023C000AD035D4601D5164300E096432E604D688F
:1023D000DEF80060ED03754601D5164300E0964334
:1023E0002E60641C0A681646E2407FF429AFBDE8FF
:1023F000F88F000008040140000011100010024096
:102400000000014000080140000C014000100140A4
:102410000014014000180140001C01408068084081
:1024200000D001207047C26821EA02030A4043EA53
:102430000241016170470AB1016170470904FBE77D
:102440000148806870470000CC01002070B504008E
:1024500025D094F83D00002520B984F83C50204652
:1024600000F04EF9242084F83D002068016821F036
:10247000010101602068016841F4004101602068A9
:10248000016821F40041016000F06AFB4D4A616877
:10249000914201D84C4900E04C49884201D20120C8
:1024A00070BD4B492368B0FBF1F15E6826F03F0632
:1024B0000E435E606368934206D94FF496735943A6
:1024C0004FF47A73B1FBF3F12368491C1E6A26F0BE
:1024D0003F06314319626168914210D84900401E9D
:1024E000B0FBF1F2521CC2F30B02042A01D2042009
:1024F00022E0B0FBF1F0401CC0F30B001CE0A2682E
:10250000F2B301EBC10303EB0116431EB3FBF6F379
:102510005B1C43F480431B0549D092B301EBC1021D
:1025200002EB0111401EB0FBF1F0401CC0F30B00A8
:1025300040F4804040F400402168CA694CF6FF73C3
:102540009A431043C861D4E9071001432068026828
:1025500022F0C00211430160D4E903010143206865
:10256000826848F2FF339A4311438160D4E9050140
:1025700008432168CA6822F0FF021043C86001E0E6
:102580000EE016E02068016841F001010160256459
:10259000202084F83D00256384F83E50002070BD63
:1025A00001EB4106431EB3FBF6F35B1CB3E70120CE
:1025B000C2E701EB4101401EB0FBF1F0401CC0F34B
:1025C0000B00B7E7A086010080841E0000093D00D3
:1025D00040420F002DE9F84F1F4690468A460446B8
:1025E000DDF82890FFF72CFF054694F83D002028E1
:1025F0007FD11923012240492046009501F056F968
:10260000002876D194F83C00012872D0012084F88B
:102610003C0020680168C90703D1016841F001014D
:1026200001602068016821F400610160212084F8C4
:102630003D00102084F83E0000262664C4F8248063
:102640006785608D20852D48E0622B464A465146BD
:10265000204601F0B1F890B9206841698069009086
:1026600036E02A464946204601F0C6F950B1206CB2
:10267000042804D12068016841F400710160012040
:10268000BDE8F88F606A216800780861606A401CC4
:102690006062618D491E6185218D491E89B2218547
:1026A00022685369DB435B070BD451B1007810619A
:1026B000606A401C6062608D401E6085208D401EF7
:1026C00020852A464946204601F0C4F80028CED18C
:1026D000208D0028C5D154F83D0B016841F40071EC
:1026E0000160202004F81E09E67766770020C7E71E
:1026F000FFE70220C4E70000020010000000FFFF17
:1027000010B586B0002100910191029103910068FB
:10271000104988421BD1104CA06940F00800A0610C
:10272000A069694600F0080004904FF440600090F2
:1027300012200190032003900848FFF773FDE06921
:1027400040F48000E061E06900F48000049006B08D
:1027500010BD00000058004000100240000C014075
:10276000024881680278114481607047CC010020E2
:10277000074810B5016841F010010160032000F026
:1027800075F80F2000F006F800F024F8002010BDC6
:102790000020024070B50D4D04464FF47A71287840
:1027A000B1FBF0F00A490968B1FBF0F000F0AEFBB4
:1027B00048B9102C07D200222146501E00F036F8EE
:1027C00000206C6070BD012070BD0000CC010020B5
:1027D000D80100200C4808B5816941F001018161F0
:1027E000816901F001010091C16941F08051C1612D
:1027F000C06900F0805000900448416821F0E06119
:1028000041F00071416008BD00100240000001402D
:10281000002809DB00F01F020121914040098000DF
:1028200000F1E020C0F8001170470000F0B40E4B3A
:102830001B680C46C3F30223C3F10705042D00D91E
:102840000425191D072901D2002300E0DB1E012603
:1028500006FA05F1491E214099409E40761E164019
:102860003143F0BC01F01BBD0CED00E0064900F067
:10287000070208684FF6FF03184040EA0220034AA7
:1028800010430860704700000CED00E00000FA05FE
:1028900010B501460020284C04292FD00BDC01295B
:1028A00030D0022929D100F06BF96168C1F3813180
:1028B000491C49001FE0082920D010291DD161685A
:1028C0002268D20119D51D48C1F38342C903805C37
:1028D0000AD56168194AC1F34041921E515C184AF9
:1028E000B2FBF1F1484301E01649484361684902EF
:1028F00003D440000321B0FBF1F010BDBDE810404F
:1029000000F04EB9226AC2F30121012903D19207D6
:1029100001D5C80310BD022905D1626A920702D50C
:1029200049F6404010BD0329FCD121688903F9D53F
:102930004FF2244010BD0000001002407A560008FB
:1029400000127A0000093D002DE9F84305460078A1
:10295000354CC00754D0E0690026C00008D4E069B7
:1029600040F08050E061E069012600F08050009066
:102970002E480168C90512D40168804641F480716F
:102980000160FFF75DFD074605E000BFFFF758FD5A
:10299000C01B642823D8D8F80000C005F6D5206AEB
:1029A00010F4407021D0A98801F4407181421CD0FC
:1029B000206A1F49012220F440700A6000220A6048
:1029C0002062C00711D0FFF73BFD074641F288386F
:1029D00008E000BFFFF734FDC11B414502D90320C9
:1029E000BDE8F883206A8007F4D5206A696820F47E
:1029F0004070084320621EB1E06920F08050E06121
:102A00002878800705D56068A96820F4404008430D
:102A100060602878C00605D56068696920F4800088
:102A2000084360600020DBE70010024000700040B7
:102A3000400442422DE9F0470F46050061D0434E65
:102A4000306800F00700B84209D2306820F0070073
:102A500038433060306800F00700B84251D1286830
:102A60003B4C810712D5400703D5606840F4E06015
:102A700060602878000703D5606840F460506060AB
:102A80006068A96820F0F000084360602878C007FB
:102A900028D06868012810D02168022810D0890742
:102AA00000292EDA616821F0030101436160FFF71C
:102AB000C7FC804641F288390DE021688903EFE7C1
:102AC0008901EDE7FFF7BCFCA0EB0801494502D9FD
:102AD0000320BDE8F0876068696800F00C00B0EB87
:102AE000810FEFD1306800F00700B8420BD9306891
:102AF00020F0070038433060306800F00700B8422B
:102B000001D00120E5E72878400705D56068E9682D
:102B100020F4E060084360602878000706D560680C
:102B2000296920F4605040EAC100606000F038F884
:102B30006168084AC1F30311515CC8400649086046
:102B400006480068FFF726FE0020C2E7002002408A
:102B5000001002408A560008D8010020D001002051
:102B60000448054900684968044AC1F30221515CE0
:102B7000C8407047D8010020001002409A56000853
:102B80000448054900684968044AC1F3C221515C00
:102B9000C8407047D8010020001002409A56000833
:102BA0000E4A51680E4801F00C03042B11D0082B7B
:102BB0000FD10C48C1F38343C903C05C0AD55168E7
:102BC000084AC1F34041921E515C054A5043B0FB94
:102BD000F1F070470449484370470000001002407C
:102BE00000127A006856000800093D002DE9F84FF0
:102BF000040070D02078C04DC00749D06868C0F389
:102C00008100012807D06868C0F38100022809D13B
:102C10006868C00306D52868800339D56068002835
:102C2000E7D035E06068B0F5803F0BD010B1B0F56B
:102C3000A02F11D0286820F480302860286820F464
:102C4000802002E0286840F480302860606890B1FD
:102C5000FFF7F6FB06460AE0286840F4802028606B
:102C6000F0E700BFFFF7ECFB801B642873D82868EF
:102C70008003F7D50CE0FFF7E3FB064605E000BF55
:102C8000FFF7DEFB801B6428F0D828688003F7D4A8
:102C900020789A4E80074FF001094FF0000839D58F
:102CA000686810F00C0F07D06868C0F38100022834
:102CB00009D16868C00306D42868800714D5206944
:102CC000012808D110E02069B0B1C6F80090FFF7E4
:102CD000B7FB074605E00AE1FFF7B2FBC01B02287D
:102CE000C4D828688007F7D52868616920F0F80003
:102CF00040EAC10028600DE0C6F80080FFF7A0FBA5
:102D0000074604E0FFF79CFBC01B022823D8286875
:102D10008007F7D4207800072CD57948A169D9B16C
:102D2000C0F80090FFF78CFB074604E0FFF788FB34
:102D3000C01B02280FD8686A8007F7D571484FF486
:102D4000FA510068B0FBF1F0009000BF0098411EFE
:102D50000091FAD20EE080E0C0F80080FFF770FB2F
:102D6000074604E0FFF76CFBC01B022875D8686AB1
:102D70008007F7D42078400760D5E8690027C000B5
:102D800008D4E86940F08050E861E869012700F064
:102D9000805000905C480168C90513D401688346DF
:102DA00041F480710160FFF74BFB824606E000BFF3
:102DB000FFF746FBA0EB0A0064284ED8DBF80000C2
:102DC000C005F5D5E06801280AD008B1052813D060
:102DD000286A20F001002862286A20F0040002E03E
:102DE000286A40F001002862E06841F2883B98B10F
:102DF000FFF726FB82460BE0286A40F004002862B9
:102E0000EEE700BFFFF71CFBA0EB0A0159455AD8BB
:102E1000286A8007F6D50CE0FFF712FB824605E032
:102E2000FFF70EFBA0EB0A0159454CD8286A800732
:102E3000F6D41FB1E86920F08050E861E06988B3FA
:102E40006968C1F38101022944D00228C6F8608074
:102E500004D0FFF7F5FA044638E034E0FFF7F0FA63
:102E6000074604E0FFF7ECFAC01B02282BD82868BD
:102E70008001F7D4206AB0F5803F05D16868A16869
:102E800020F4003008436860D4E908010843696809
:102E900021F4741108436860C6F86090FFF7D0FA17
:102EA000044606E025E000BFFFF7CAFA001B02282F
:102EB00009D828688001F7D51BE000BFFFF7C0FAEA
:102EC000001B022802D90320BDE8F88F2868800182
:102ED000F4D40EE00128F7D06868226A00F480314B
:102EE000914204D1616A00F47010884201D001203F
:102EF000EAE70020E8E7000000100240000042423C
:102F000080044242D80100200070004010B5401EED
:102F1000B0F1807F01D3012010BD4FF0E02460614B
:102F20000F21601701F0BBF90020A061072020618C
:102F3000002010BD7047704710B590F83C20012A62
:102F400022D0012280F83C20CA688C6822F44072AA
:102F500022434C6822F4806222430C6822F400620F
:102F600022430C6922F4805222434C6922F400521D
:102F70002243C969002322F480420A4301684A645B
:102F800080F83C30002010BD022010BD70B590F8D4
:102F90003C20012A2CD0012480F83C40022280F8F9
:102FA0003D2003685A689D6822F070060A68324323
:102FB0005A60104B02689A420ED00F4B9A420BD0C7
:102FC000B2F1804F08D00D4B9A4205D00C4B9A427B
:102FD00002D00C4B9A4204D1496825F08003194372
:102FE000916080F83D40002180F83C10084670BD9B
:102FF000022070BD002C014000340140000400405C
:1030000000080040000C004010B50446022249B1FF
:1030100004290ED0082913D094F84500012816D0B1
:10302000012010BD94F842000128F9D184F8422013
:103030000FE094F843000128F2D184F8432008E01F
:1030400094F844000128EBD184F8442001E084F88E
:1030500045200422206800F0C0FF2068416C41F444
:10306000004141640E49206888420ED00D498842D3
:103070000BD0B0F1804F08D00B49884205D00B49E6
:10308000884202D00A49884204D1816801F00701D0
:10309000062903D0016841F001010160002010BD44
:1030A000002C0140003401400004004000080040B2
:1030B000000C004010B5040003D094F83D0010B19E
:1030C00007E0012010BD002084F83C00204600F0FD
:1030D0001FF8022084F83D00211D206800F02AFF1F
:1030E000012084F8460084F83E0084F83F0084F80C
:1030F000400084F8410084F8420084F8430084F8DA
:10310000440084F8450084F83D00002010BD000014
:1031100008B5154A0168154891420ED1816941F4FC
:10312000006181618069002200F400600090114616
:103130001920FFF77BFB192010E00D4A914211D1B5
:10314000C16941F00201C161C069002200F00200C2
:10315000009002211D20FFF769FB1D20BDE80840FB
:10316000FFF756BB08BD0000002C014000100240D4
:103170000004004090F83D10012901D00120704763
:10318000022180F83D100168CA6842F00102CA605D
:1031900000680E4988420ED00D4988420BD0B0F12C
:1031A000804F08D00B49884205D00B49884202D095
:1031B0000A49884204D1816801F00701062903D039
:1031C000016841F00101016000207047002C0140BE
:1031D000003401400004004000080040000C0040A2
:1031E00070B5044690F83C000025012817D0012650
:1031F00084F83C60022084F83D002068826822F058
:10320000770222F47F4282600868502838D00DDCB3
:1032100020284FD005DC90B3102811D14AE00220BD
:1032200070BD302846D040280AD13BE060282FD01E
:1032300070280DD0B0F5805F03D0B0F5005F12D0DC
:10324000012584F83D60002084F83C00284670BDCC
:10325000CB68D1E90121206800F0CCFE20688168AC
:1032600041F0770109E0CB68D1E90121206800F045
:10327000C1FE2068816841F480418160E1E719E086
:10328000CA684968206800F089FF5021206806E07C
:10329000CA684968206800F092FF6021206800F049
:1032A000B3FECEE7CA684968206800F077FF402186
:1032B0002068F4E7226801461046F0E7704770B5D1
:1032C0000446006801694FF00005C943890715D419
:1032D000C168C943890711D4E91E01610120207723
:1032E000206880698007204602D0FFF7E7FF04E0EE
:1032F00000F0CAF8204600F05CF9257720680169E3
:10330000C943490717D4C168C943490713D46FF0AB
:1033100004010161022020772068806910F4407F59
:10332000204602D0FFF7CAFF04E000F0ADF82046C7
:1033300000F03FF9257720680169C943090716D4D1
:10334000C168C943090712D46FF008010161042064
:1033500020772068C0698007204602D0FFF7AEFFC3
:1033600004E000F091F8204600F023F9257720686A
:103370000169C943C90617D4C168C943C90613D432
:103380006FF010010161082020772068C06910F4F7
:10339000407F204602D0FFF791FF04E000F074F870
:1033A000204600F006F9257720680169C943C9075E
:1033B00008D1C168C943C90704D1891E01612046EB
:1033C00000F052F920680169C943090609D4C168AF
:1033D000C943090605D46FF0800101612046FFF75B
:1033E000A9FD20680169C943490609D4C168C943D8
:1033F000490605D46FF040010161204600F058F9FC
:1034000020680169C94389060BD4C168C94389068C
:1034100007D46FF0200101612046BDE87040FFF73E
:103420008ABD70BD00B585B0002100910191029167
:1034300003910068104988421BD11048816941F00E
:10344000400181618069694600F0400004904FF4BA
:103450007C5000900220019003900948FEF7E2FEA4
:103460000848416821F0C00141F0E06141F0C0012D
:10347000416005B000BD0000002C0140001002407A
:103480000018014000000140704770B5044690F8F4
:103490003C0000260D4601280FD0012084F83C0096
:1034A0006AB1042A1DD0082A2FD00C2A3FD0012649
:1034B000002084F83C00304670BD022070BD2068BA
:1034C00000F0AAFD2068816941F00801816120684F
:1034D000816921F004018161206881692A691143B1
:1034E00011E0206800F0C8FD2068816941F40061A6
:1034F00081612068816921F480618161206881692E
:103500002A6941EA02218161D2E7206800F0EAFDE0
:103510002068C16941F00801C1612068C16921F0DA
:103520000401C1612068C1692A69114311E0206862
:1035300000F00CFE2068C16941F40061C16120689F
:10354000C16921F48061C1612068C1692A6941EAC9
:103550000221C161ACE710B5040003D094F83D002E
:1035600010B107E0012010BD002084F83C00204687
:1035700000F01EF8022084F83D00211D206800F0B4
:10358000D9FC012084F8460084F83E0084F83F000E
:1035900084F8400084F8410084F8420084F8430035
:1035A00084F8440084F8450084F83D00002010BDF4
:1035B0007047704710B50446022249B104290ED065
:1035C000082913D094F84100012816D0012010BD1D
:1035D00094F83E000128F9D184F83E200FE094F8D9
:1035E0003F000128F2D184F83F2008E094F8400021
:1035F0000128EBD184F8402001E084F84120012229
:10360000206800F0DDFC13492068134A884201D08D
:10361000904203D1436C43F40043436420688842E2
:103620000DD090420BD0B0F1804F08D00B498842AA
:1036300005D00B49884202D00A49884204D18168EA
:1036400001F00701062903D0016841F00101016082
:10365000002010BD002C0140003401400004004057
:1036600000080040000C004070B500680D49884219
:1036700017D10D48A0F11804E56830F8150001F0E5
:1036800011FD0A49896801F055FD01F0EBFC05497F
:10369000343108606D1CE5602068854201D100204E
:1036A000E06070BD002C014018000020DC410020CB
:1036B000704770B5040004D094F84100002510B1A3
:1036C00006E0012070BD84F84050204600F024F848
:1036D000242084F841002068C16821F40051C160B1
:1036E000204600F07FFD2068016921F490410161CE
:1036F0002068416921F02A0141612068C16841F4D4
:103700000051C1606564202084F8410084F84200C3
:103710006563002070BD000030B585B000240094C2
:1037200001940294039400681449884224D11448F7
:10373000816941F480418161816901F48041049192
:10374000816941F00401816180690E4D00F004003F
:1037500004904FF400700090022001900320039029
:1037600069462846FEF75EFD2815CDE90004694646
:1037700028460294FEF756FD05B030BD00380140E2
:103780000010024000080140FEE701684A69D24388
:1037900052050FD46FF480624A61002140F8301F57
:1037A000202242738173026942F0040202610173B4
:1037B0000120704700207047F8B50446C06A1E46D5
:1037C0000D461746082807D0012805D010F5803F80
:1037D00002D0206B122804D12068016841F4807166
:1037E0000160134600224FF001112046009600F0C0
:1037F0005DF840B120680068C00502D54FF4007044
:1038000020640320F8BD2069B0F5804F0ED006205B
:10381000216800EAD51040F0F000086133463A46CE
:103820000B49204600F08AF878B902E005F0FE0066
:1038300000E0E8B221680861054933463A46891F2D
:10384000204600F07BF80028DCD00120F8BD000005
:103850000800010070B516460D4604461EE02046DD
:10386000FFF793FF08B1012070BD681C16D0FEF76A
:10387000E7FD801BA84200D885B920684069C04395
:1038800040070BD5002044F8300F20216173A0734E
:10389000216941F0200121612073E4E7206840693B
:1038A000C0434007DBD4002070BD00002DE9F04785
:1038B000984617460D460446C1F30746DDF82090AA
:1038C0002AE000BFB8F1FF3F26D0FEF7B9FDA0EB1C
:1038D0000901414502D8B8F1000F1DD12068012E21
:1038E00016D0806925EA00000004000C12D00020E8
:1038F000B84211D1002044F8300F20216173A07329
:10390000216941F02001216120730120BDE8F08789
:103910004069E7E70120EBE72068012E0AD08069C3
:1039200025EA00000004000C06D00020B842C9D0EF
:103930000020EBE74069F3E70120F7E72DE9F047C6
:10394000984616460D4604464FF000094FF0200AEF
:10395000C1F3074723E020684069C043400515D400
:103960002068016841F40071016021686FF4806093
:103970004861C4F8309084F83DA084F83E90216CF2
:1039800041F00401216484F83C9021E0701C06D0D1
:10399000FEF756FDA0EB0800B04203D816B1012F88
:1039A0001FD021E02068012F15D0806925EA000092
:1039B0000004000C18D000BF44F8309F84F80DA01C
:1039C00084F80E90216941F02001216184F80C9067
:1039D0000120BDE8F087406925EA00000004000CE2
:1039E000EAD12068406901E02068806925EA00008A
:1039F0000004000CAFD1ECE770B516460D46044646
:103A00001EE02046FFF7C1FE08B1012070BD681C12
:103A100016D0FEF715FD801BA84200D885B9206896
:103A20004069C04300060BD5002044F8300F202128
:103A30006173A073216941F0200121612073E4E7E3
:103A400020684069C0430006DBD4002070BD000040
:103A50003EB5002416480094019414490294016074
:103A6000891581600473047502250561C9024460EB
:103A7000C161FEF7DFF808B1FDF7ECFF052000900B
:103A80000120CDE9010469460948FEF751F808B163
:103A9000FDF7E0FF0620CDE9000569460448FEF782
:103AA00047F8002801D0FDF7D5FF3EBD00240140B6
:103AB0000C420020094808B5416941F0010141610B
:103AC0004069002200F00100009001210B20FEF768
:103AD000ADFEBDE808400B20FEF79ABE0010024084
:103AE0002DE9F04786B000243748009401940294F1
:103AF0000394816941F040018161816901F04001D5
:103B00000491816941F010018161816901F0100126
:103B10000491816941F004018161816901F004012E
:103B20000491816941F0080181618069DFF89C801E
:103B300000F008000490002220214046FEF77BFCA4
:103B4000DFF88C90012211464846FEF774FCDFF83E
:103B500084A04FF48077002239465046FEF76BFC74
:103B6000002220214846FEF766FC0820CDE900042B
:103B7000694640460294FEF755FB102001258DE86A
:103B8000310069464046FEF74DFB20200226CDE974
:103B90000005CDE9024669464046FEF743FB212079
:103BA000CDE90005CDE9024669464846FEF73AFBF5
:103BB00000970396CDE9015469465046FEF732FB63
:103BC00006B0BDE8F0870000001002400018014078
:103BD000000C0140000801400D4810B50B49016080
:103BE0000C49416000214FF480428160C0E903121A
:103BF00041618161C1610162FEF728FC002803D0A8
:103C0000BDE81040FDF726BF10BD00000058004081
:103C100080420020801A060010B596B000240F9450
:103C200010941194129413941C2168461494FCF778
:103C30000DFB202107A8FCF709FB33483149C0E9F7
:103C4000001441F61F41C0E9024180210461C0E92E
:103C50000541FFF72FFA08B1FDF7FCFE4FF4805045
:103C60000F900FA92848FFF7BBFA08B1FDF7F2FE45
:103C70002548FFF770FC08B1FDF7ECFE2020CDE9E8
:103C8000130413A92048FFF781F908B1FDF7E2FEFC
:103C9000602000904FF49660CDE9010403940494F1
:103CA00005940022694618480694FFF7EEFB08B118
:103CB000FDF7D0FE0422694613480194FFF7E5FBA7
:103CC00008B1FDF7C7FE082269460F48FFF7DDFB84
:103CD00008B1FDF7BFFE079478200894CDE90940AC
:103CE0004FF40050CDE90B4007A907480E94FFF7A9
:103CF00023F908B1FDF7AEFE0348FFF793FB16B0BA
:103D000010BD0000002C0140D442002010B586B048
:103D100000241748009401940294039404941349D6
:103D20000594C0E900144FF4E151C0E9024180213B
:103D300004618161FFF7BEF908B1FDF78BFE4FF416
:103D40008050009069460A48FFF74AFA08B1FDF72B
:103D500081FE2020CDE9040404A90548FFF716F9E7
:103D6000002801D0FDF776FE06B010BD000400402B
:103D70001C4300200C4810B50A4901604FF4E131A2
:103D80004160002181600C22C160C0E904128161A0
:103D9000C161FFF78EFC002803D0BDE81040FDF79D
:103DA00059BE10BD0038014064430020FEE7FEE725
:103DB00010B50021AE2000F02DFB0021202000F0E6
:103DC00029FB0021102000F025FB0021B02000F08D
:103DD00021FB0021C82000F01DFB0021084600F057
:103DE00019FB0021102000F015FB0021402000F0FD
:103DF00011FB0021812000F00DFB0021FF2000F0CD
:103E000009FB0021A12000F005FB0021A62000F005
:103E100001FB0021A82000F0FDFA00213F2000F066
:103E2000F9FA0021A42000F0F5FA0021D32000F0D7
:103E3000F1FA0021084600F0EDFA0021D52000F04B
:103E4000E9FA0021F02000F0E5FA0021D92000F085
:103E5000E1FA0021222000F0DDFA0021DA2000F052
:103E6000D9FA0021122000F0D5FA0021DB2000F061
:103E7000D1FA0021202000F0CDFA00218D2000F0A1
:103E8000C9FA0021142000F0C5FA0021BDE8104055
:103E9000AF2000F0BFBA70477047FEF761BC30B585
:103EA00095B028216846FCF7D1F914210AA8FCF73F
:103EB000CDF918210FA8FCF7C9F901210804CDE9B3
:103EC00000100025029502240491CDE907404FF42B
:103ED000E01009906846FEF789FE08B172B6FEE769
:103EE0000AA90F2081E831004FF48060CDE90D056B
:103EF00002210AA8FEF79EFD08B172B6FEE74FF454
:103F0000004011900F940FA8FEF71EFD002801D06D
:103F100072B6FEE715B030BD704700000148FFF7EC
:103F2000CEB90000D44200200148FFF7C8B9000014
:103F30001C430020F0B502681C4B1D4D1D4E1E4F4A
:103F40001E4C4FF0804C984209D0A04207D06045EB
:103F500005D0A84203D0B04201D0B84204D122F02B
:103F6000700E4A6842EA0E02984209D0A04207D079
:103F7000604505D0A84203D0B04201D0B84203D179
:103F800022F44075CA682A434D6922F080022A4310
:103F900002608A68C2620A688262984201D0A042C6
:103FA00001D10969016301214161F0BD002C01408B
:103FB0000004004000080040000C004000340140B4
:103FC00010B501F01F030121046A99408C4304627B
:103FD000016A9A401143016210BD10B501F01F0340
:103FE0000421046A99408C430462016A9A40114397
:103FF000016210BD10B5846842EA032224F47F44B4
:104000000A432243826010BD826822F070020A4394
:1040100042F0070181607047F0B5036A026A22F03E
:104020000102026242688469124E24F073050C6832
:104030002C4323F002058B682B430D4DA84201D081
:10404000B04205D123F00807CB683B4323F00403BB
:10405000A84201D0B04205D14D6922F44072154307
:104060008A692A4342608461496841630362F0BD02
:10407000002C014000340140F0B5026A036A23F0CD
:1040800010030362436884690D6824F4E64444EA3B
:1040900005248D6822F0200242EA05120F4D104ED1
:1040A000A84201D0B04206D1CF6822F0800242EA95
:1040B000071222F04002A84201D0B04207D14D6958
:1040C00023F4406343EA85038D6943EA8503436033
:1040D0008461496881630262F0BD0000002C0140E8
:1040E00000340140F0B5026A036A23F4807303626E
:1040F0004368C46922F4007224F073050C68124E00
:104100002C438D6842EA05220E4DA84201D0B042F0
:1041100006D1CF6822F4006242EA072222F48062CC
:10412000A84201D0B04207D14D6923F4405343EA7D
:1041300005138D6943EA05134360C4614968C1638F
:104140000262F0BD002C01400034014030B5046A29
:10415000026A22F4805202624268C3690D6823F445
:10416000E64343EA05238D6824F4005444EA053409
:10417000084DA84202D0084DA84204D14D6922F44E
:10418000804242EA85124260C36149680164046268
:1041900030BD0000002C01400034014010B5036A1E
:1041A000046A24F001040462846924F0F00444EAFF
:1041B000021423F00A020A438461026210BD10B5A2
:1041C000036A046A24F010040462846923F0A003E3
:1041D00024F4704444EA023243EA0111826101622C
:1041E00010BD000070B5044600680169E26821F462
:1041F0004051114301612169A06808436169084386
:104200002168CA6841F20C639A430243CA6020687D
:104210004169A26921F44071114341611E4920683E
:10422000884202D1FEF7ACFC01E0FEF799FC00EBFE
:10423000C00101EB0012606864218000B2FBF0F362
:10424000B3FBF1F36FF018067343B2FBF0F5B2FB6A
:10425000F0F605EB8305322303EB0515B5FBF1F50D
:10426000B6FBF1F605F0F00505EB0615B2FBF0F62E
:10427000B2FBF0F0B0FBF1F06FF01802504306EB28
:10428000800003EB0010B0FBF1F0216800F00F009C
:104290002844886070BD000000380140FEE709072F
:1042A000090E002804DB00F1E02080F800147047BC
:1042B00000F00F0000F1E02080F8141D70470000AE
:1042C00070B5204D08212846FEF7A8F840F2E736E1
:1042D00090B93446641EA4B2FCD208212846FEF7E9
:1042E0009DF848B920211848FEF79DF80821284676
:1042F000FEF794F80028F9D010212846FEF78EF832
:1043000000281DD1761EB6B2FCD210212846FEF739
:1043100085F8002814D10D4CA06800F00DFD0C4A62
:104320000C4B00F0F9F800F0C5F8A06020212846F9
:10433000FEF779F810212846FEF770F80028F9D02A
:1043400070BD000000180140000C0140000000207A
:10435000FCA9F1D24D62503FFEF70AFAFFF79FFD2C
:10436000FFF7BEFBFFF7A6FBFFF704FDFFF754FCCA
:10437000FFF732FCFFF76CFBFFF7C8FCFFF718FDF7
:1043800000211E48FFF716F900211C48FEF73CFEED
:1043900004211A48FFF70EF904211848FEF734FEED
:1043A00008211648FFF706F908211448FEF72CFEED
:1043B0001248FEF7DFFE1248FDF74EFB02221149BC
:1043C0000F48FDF70FFD1048FEF7D4FE0D4C0F48C7
:1043D000103C60600E48FDF769FA0D484FF07C51C3
:1043E0004FF07E55C1600021C0F81010FFF768FF44
:1043F0002946606800F0CCFC6060F7E7D4420020FA
:104400000C420020100000201C4300206D051C43BE
:10441000DC41002008B5074A01B1402111705070FD
:104420000A2000900223034A78210348FEF7D2F8BD
:1044300008BD0000C4010020804200202DE9F041A9
:1044400006460F4600F0A8FA041E0D4618BF0120CC
:10445000284320F00040C0F17F6000F1E040C00F31
:104460000ED0301C18BF0120384320F00040C0F1AE
:104470007F6000F1E040C00F04BF0120FBF715FF93
:1044800020462946BDE8F08170B5054600F050FF92
:10449000044620F00040C0F1FF40C00F08D025F0D6
:1044A0000040C0F1FF40C00F04BF0120FBF7FDFE3C
:1044B000204670BD21F00042A2F16052B2F5801F8B
:1044C00001F0004328BFD2F17F6C0BD95FEA001CDA
:1044D00043EAC20242EB507018BF704728BF20F079
:1044E00001007047B2F5801FBCBF184670474FEA05
:1044F000410C1CF5001F02D2084600F0E2BE70B568
:1045000000F0C0F900000089FFF7F6BF4FF000404F
:10451000A0F580007047000010B591EA030F48BF76
:1045200083F0004300F12683841A71EB030C05D25B
:10453000121943EB0C03001B61EB0C01DFF824E1C3
:104540004FEA1154A4EB135C1EEA430F18BF9EEA16
:10455000445F73D023EA0E03DCF1200E21EA0451FC
:1045600043F4801332D322FA0CFE10EB0E0023FA30
:104570000CFE41EB0E01CCF1200E03FA0EFE10EB07
:104580000E0051F10001B1F5801FCCF1200E32D2A6
:1045900001EB045112FA0EF2BDE8104058BF70470B
:1045A000401C38BF5FEA420218BF7047002814BFA2
:1045B00020F0010041F100014FEA410313F5001F13
:1045C00038BF7047A1F1C04100F0AAB9012A43EBFE
:1045D0000302ACF1200CDCF11F0E32BF4FF0000ED5
:1045E00023FA0CF310EB030041EB0451B4EB115F21
:1045F000D0D0A1EB045101F5801149085FEA3000E9
:1046000001EB04510ED350F1000038BF12FA0EFE38
:1046100008D1BDE81040C9E7401C38BF5FEA42023C
:10462000CAD1C3E7BDE810404FEA410313F5001FAC
:1046300038BF7047A1F1C04100F072B99EEA445FF3
:1046400008D011EA5E0FBDE8104004BF01F0004140
:1046500000207047BDE8104070B500F013F900BFAE
:1046600064FBBE3E0000E0FF02494FF0000000F096
:104670005CBF00BF0000F87F491058BFC1F1404146
:104680005B1058BFC3F140438B42EFF3008070478B
:10469000B0FA80F310FA03F10AD0C3F11D0303F559
:1046A00080634FEA41504FEA035202EBD121704739
:1046B0004FF000007047000051EA030C17D41CF5BE
:1046C000801F58BFBCF5801F00F10680994218BFBB
:1046D000704708BF9042704707D711F5801F58BF39
:1046E00013F5801F19D499427047894270471CF511
:1046F000801F08D5BCF5801FF7D58B4218BF7047C7
:1047000008BF824270474FF4001C1CEB410F38BFBA
:104710001CEB430F01D28B42704770B500F0B2F82A
:10472000922449004FF000514FF08053FFF7A4BF8F
:10473000DFF848C170B51CEA111E1EBF1CEA131534
:104740009EEA0C0F95EA0C0F00F06F8081EA0304DB
:1047500023EA4C134EEAD47E21EA4C1141F4801135
:1047600043F48013AE44A1FB024CA0FB0365AEF101
:104770007F7E361955EB0C05A1FB034C4CF1000371
:10478000A0FB021C16EB0C06654153F10003094225
:1047900018BF46F0010613F4007F0BD14FEA033136
:1047A0004FEA0530340341EA155140EA16506FF0E4
:1047B00003020AE04FEAC3214FEAC520F40241EAAE
:1047C000555140EA56506FF0020202EB2E4201EBC7
:1047D000025585EACE710AD05FEA440C18BF24F076
:1047E000004450F1000041F1000120EAD47040F291
:1047F000FE7C624500D270BDA84214BF4FF08044D9
:104800004FF04044002E08BF0024BEF1806FA8BFC7
:10481000A1F1C041BDE8704080F282804FF00000FD
:1048200001F1C04101F0004170479EEA0C0F0CEA13
:10483000131518BF95EA0C0F06D04FF0000081EA5F
:10484000030E0EF0004170BD00F01CF88900013E1F
:1048500000F007B800F009B84FEA430C5FEA5C5C6F
:1048600008D081EA030100F05BB84FEA410C5FEA2F
:104870005C5CF6D14FF00000014970470000FF0773
:104880000000F87F0EF1020E2EF0030E5EF8046BAE
:10489000364205D4012A43EB030515F5001F12D853
:1048A000012841EB010C1CF5001F0CD80ED14FEA7A
:1048B000D17C15F5001F0CEB4C0C0CF1020C08BF61
:1048C0004CEBD37C04E04FF0080C01E04FEAD37CC2
:1048D0000CEB4C0526FA05F606F00706B6F1040CBB
:1048E00006D20EEB860CBDE870404CF0010C604720
:1048F000DFE80CF0090B02024FF000414FF000001E
:10490000A1F5002170BD19461046012851EB0104A4
:1049100018BFD4F5001484BF002001F0004170BD21
:104920000808A0F500114FEA3101704753EA010C65
:1049300017D41CF5801F58BFBCF5801F00F10680FE
:104940008B4218BF704708BF8242704707D713F5E4
:10495000801F58BF11F5801F19D48B4270479B42AE
:1049600070471CF5801F08D5BCF5801FF7D599420C
:1049700018BF704708BF904270474FF4001C1CEBF3
:10498000430F38BF1CEB410F01D2994270470FB45F
:104990000CBC03BCFFF7C1BE2DE9F04101F5801C42
:1049A000BCF5001FC0F2C3804FEA115C21EA0C5134
:1049B0000CF1FD0C41F480115FEA5C0C0CF5C07C3D
:1049C00001D3400049413DA4890241EA9051870248
:1049D0008E0E0A0CA45D04FB04F602FB06F6C6F17B
:1049E0004046A4FB0662F60D46EA422606FB06F4A4
:1049F000A4FB01235242C3F1404338BF5B1EA6FB18
:104A000002420024E6FB0324D20B42EA4446A6FB02
:104A10000623A1FB02E2A3FB07E4A4184FF0000267
:104A200052F10002E3FB01426442C2F1404E38BF42
:104A3000AEF1010EA6FB04234FF00002E6FB0E329E
:104A4000A2FB03464FF00004B61954F10004E2FB48
:104A50000264A1FB06E6A4FB07E816EB08064FF08C
:104A6000000858F10008E4FB01687642C8F140589C
:104A700038BFA8F10108A2FB06E4A3FB08E52D1945
:104A80004FF0000454F10004E2FB0854A1FB05E6DA
:104A9000A7FB04E818EB06084FF0000656F10006E5
:104AA000E1FB048618F1200556F10006A809A8F1DB
:104AB0001B08B10908F03F08B8F10A0F40EA866008
:104AC0001CD901EB0C51BDE8F08100BFFCF5EEE80C
:104AD000E2DDD8D3CFCBC7C3C0BDB9B6B4B1AEAC9D
:104AE000A9A7A5A3A19F9D9B9A9896959392908F15
:104AF0008D8C8B898887868584838281A0FB006862
:104B000000FB01F208EB4208B8EB872807D5341800
:104B100058EB0104D5D5401C51F10001D1E7341AFE
:104B200078EB0104CDD4401E71F10001C9E75FEAC2
:104B30004C0C5FEA9C5C0DD105D34FF0000001F0F6
:104B40000041BDE8F081BDE8F04170B5FFF79AFE85
:104B50006DDBFFBEBDE8F0414FF00000004970473B
:104B60000000F87F10B591EA030F48BF83F00043BF
:104B70003FF5DAAC841A71EB030C07D212198CF0F2
:104B8000004C43EB0C03001B61EB0C01DFF8A4E1CC
:104B90004FEA1154A4EB135C1EEA430F18BF9EEAC0
:104BA000445F00F0B08023EA6E03524221EA0451D0
:104BB000C3EB6E0338BF5B1EDCF1200E25D322FA57
:104BC0000CFE10EB0E0043FA0CFE41EB0E01CCF193
:104BD000200E03FA0EFE10EB0E0051F10001CCF195
:104BE000200E29D412FA0EF201EB0451BDE8104058
:104BF00058BF7047401C1CBFB2F1004F70470028DF
:104C00000CBF491C20F00100704712EB020E43EB71
:104C1000030218BF4FF0010E4EEA4202ACF1200C25
:104C2000DCF11E0E54D943FA0CFE10EB0E0051F1CC
:104C3000FF31CCF11E0ED5D50EF1010E12FA0EFE8B
:104C4000404141EB010101EB445C5FEA5C5C10D93F
:104C500010EBDE7001EB045138BFBEF1004FBDE830
:104C6000104018BF704700280CBF491C20F00100FD
:104C7000704730D24FEAD42C11F5001124F40064AF
:104C80001BD0B1FA81F20B3AA41AA41ED2F1200370
:104C9000914030FA03F31943904001EBCC71002CA2
:104CA00001EB0451BDE81040A8BF704701F1C041BD
:104CB0004FF0000001F000417047B0FA80F310FAA5
:104CC00003F100D110BDE41A173C4805C90AE4E716
:104CD00001EB045110BD491001EB0451BDE8104037
:104CE0004FEA300002E04FF0000170474A0008BF71
:104CF0000042F8D0B2F5001F28BF704701F0004114
:104D00004FF0000070479EEA445F07D011EA5E0F43
:104D1000BDE8104004BF002100207047BDE81040EE
:104D200070B5FFF7AFFD00BF40DFF63E83F00041F6
:104D3000104670470000E0FF43004FEAD30C4FEAF3
:104D40003C0C43401FBF40070CF1605113F0FE4F75
:104D500070471CF0006F03D100200CF00041704739
:104D60000CF0004343EA507010B540EACC0000F06C
:104D700062FA00BF000000924FEA0001FFF7D0BDC9
:104D80004FF000414FF00000A1F5002170470000F6
:104D900090EA010F48BF81F0004100F15883421AA8
:104DA0003CBF801A89184FEAD0524FF07F4C1CEA62
:104DB000410FA2EBD15318BF9CEA026F00F03B8079
:104DC0004FF0004C4CEA00204CEA012121FA03FC90
:104DD00010EB0C0C1ED202F1FF325FEA1C2040EBFC
:104DE000C25038BF70471CF07F0F4FEA400C18BF0D
:104DF000BCF17F4F38BF7047C3F12003994008BF13
:104E000020F00100BCF17F4F38BF7047A0F1C040D7
:104E100000F057BA4FEA3C00000A40EBC25028BFEE
:104E20001CF0FF0F4FEA400CE6D018BFBCF17F4FDB
:104E300038BF7047EAE79CEA026F05D010EA5C0FC2
:104E400008BF00F00040704710B500F0F4F900BF53
:104E500064FBBE3E014800F068BB00BF0000C07F9D
:104E6000401058BFC0F14040491058BFC1F1404107
:104E70008142EFF3008070474FF47F0C1CEAD012A0
:104E80001EBF1CEAD11392EA0C0F93EA0C0F00F03C
:104E9000858090EA010F48BF42F4807240F4000C14
:104EA00041F400002CF07F4120F07F4000B58142AA
:104EB000A2EB03020FF2081CACEB504EC0F1000055
:104EC0009EF800E04FEA4E0E00FB0EFC38BF490092
:104ED0004FEA2C1C02F5FA020CFB0EF34FEACE1E31
:104EE0004FEA112C4FEAC1210EEB635E42EB2242E6
:104EF0000EFB0CFC4FEA1C5300FB03114FEA112C74
:104F00004FEA01310EFB0CFC4FEADC4C00FB0C11AC
:104F1000C14228BF09184CEB03335DF804EB10EBDA
:104F2000410143EBC250B2F57C0F38BF704729D521
:104F300012F0F00F1CBF00F1C04000F000407047BD
:104F4000008182838485868788898B8C8D8E8F9162
:104F50009293959697999A9C9D9FA0A2A3A5A7A886
:104F6000AAACAEB0B2B3B5B7B9BCBEC0C2C5C7C9B2
:104F7000CCCED1D4D7D9DCDFE2E6E9ECF0F3F7FA16
:104F8000FE0000004FEA400C0CF1807CBCF17E4F2B
:104F900028BF7047B0F1C04000F093B990EA010F0C
:104FA0000CEAD11348BF42F48072624538BF6345B2
:104FB00007D213F47F0F16D080EA010000F0004002
:104FC000704710B500F037F9097EFC3E00F005B8D7
:104FD00080EA010000F00040704780EA010000F024
:104FE000004000F06EB912F47F0F04BF0248704712
:104FF00080EA010000F065B90000C07F50EA010CB2
:1050000000F113801CF5000F58BFBCF5000F01D450
:105010008842704707D710F5000F58BF11F5000FF1
:1050200015D488427047894270471CF5000F04D59B
:10503000BCF5000FF7D5814270474FF0807C1CEB28
:10504000400F38BF1CEB410F01D28142704710B5B1
:1050500000F0F1F8922449004FF000504FF08051D9
:10506000FFF7FEBEC10DD1F19E0206DB4FEA002321
:1050700043F0004323FA02F07047004207D54FEA9D
:105080004001B1F1FE4F02D24FF00000704710B561
:1050900000F0D1F849922480002070476FEA200088
:1050A00070470000B0FA80F310FA03F2C3F19D03D9
:1050B0000AD0D90501EB1220530638BF704700F122
:1050C000010008BF20F001007047000050EA010C09
:1050D00000F113801CF5000F58BFBCF5000F01D480
:1050E0008842704707D710F5000F58BF11F5000F21
:1050F00015D488427047894270471CF5000F04D5CB
:10510000BCF5000FF7D5814270474FF0807C1CEB57
:10511000400F38BF1CEB410F01D28142704710B5E0
:1051200000F089F8922449004FF000504FF0805170
:10513000FFF796BE4FF47F0C1CEAD0121EBF1CEA8C
:10514000D11392EA0C0F93EA0C0F00F0478090EA1B
:10515000010F48BF42F480724FF0004C4CEA00202F
:105160004CEA012102EB0302A0FB0113A2F50002AD
:10517000002918BF43F001035B0028BF4FEA330347
:1051800042EB22425FEA132C4CEBC2502EBFBCEB29
:10519000436FB2F57C0F70474FEA036CBCF1004FD0
:1051A00008BF20F00100B2F57C0F38BF70470BD567
:1051B00082F0FF0212F5803FC8BF704700F1C04087
:1051C000D8BF00F00040704700F5000C5FEA4C0CBF
:1051D00048BF7047B0F1C04000F073B890EA010FCB
:1051E0000CEAD11348BF42F48072624538BF634570
:1051F00004D280EA010000F00040704710B500F0D2
:105200001AF800BF8900013E00F007B800F009B8A5
:105210005FEA410C5FEA1C6C08D080EA010000F0F4
:1052200050B85FEA400C5FEA1C6CF6D14FF00040CA
:10523000A0F5800070470EF1020E2EF0030E5EF80E
:10524000044B244204D44FEA4102B2F17F4F11D8FB
:105250004FEA4003B3F17F4F0CD80ED14FEAD07C18
:10526000B2F17F4F0CEB4C0C0CF1020C08BF4CEB75
:10527000D17C04E04FF0080C01E04FEAD17C0CEB4C
:105280004C0324FA03F404F00704B4F1040C06D22E
:105290000EEB840CBDE810404CF0010C6047DFE8D9
:1052A0000CF0070802024FF00040A0F5800010BD8E
:1052B0000846420018BFD2F1807288BF00F000405B
:1052C00010BDFF2141EAD050C005704751EA000CE3
:1052D00000F113801CF5000F58BFBCF5000F01D47E
:1052E0008142704707D711F5000F58BF10F5000F26
:1052F00015D481427047894270471CF5000F04D5D0
:10530000BCF5000FF7D5884270474FF0807C1CEB4E
:10531000410F38BF1CEB400F01D28842704780EA32
:10532000010081EA000180EA0100FFF7F8BE0000F9
:105330004FEAD051002988BFD1F1FF0240F27580B9
:1053400001F17D014FEA002070B5490840F00040AE
:1053500038BF40080EA2430E040CD25C02FB02F3DD
:1053600004FB03F3C3F14043A3FB0254ED0D45EAF4
:10537000442202FB02F3A0FB03546D42C4F14044FB
:1053800038BF641EA2FB05350023E2FB0453EA0B81
:1053900042EA4342A0FB023212F14004A2F121038F
:1053A000E40903F07F031F2B32D904EBC15070BD19
:1053B000FEFAF7F3F0ECE9E6E4E1DEDCD9D7D4D28B
:1053C000D0CECCCAC8C6C4C2C1BFBDBCBAB9B7B6BC
:1053D000B4B3B2B0AFAEACABAAA9A8A7A6A4A3A21F
:1053E000A1A09F9E9E9D9C9B9A9998979796959415
:1053F0009393929190908F8E8E8D8C8C8B8A8A89CC
:105400008988878786868584848383828281818058
:1054100004FB04F6B6EB004603D5E64248BF641C25
:10542000C3E7A64258BF641CBFE711F0FF0F02D1CB
:1054300000F00040704710B5FFF7FDFE7FDBFFBEB8
:1054400090EA010F48BF81F000413FF5A8AC421A35
:1054500004D882F00042A0EB020011444FEAD0527F
:105460004FF07F4C1CEA410FA2EBD15318BF9CEACE
:10547000026F4AD04FF0004C4CEA00204CEA012168
:1054800021FA03FCB0EB0C0C0FD412F0FE0F36D057
:105490005FEA4C001DD5001240EBC25038BF704788
:1054A0001CF03F0F18BF70470BE0A2F101025FEA4A
:1054B0001C2040EBC25038BF70471CF07F0F18BF54
:1054C0007047C3F12003994014BF401E20F0010033
:1054D000704780084FEA122308BF7047B0FA80FC7B
:1054E000A2EB0C02CCF1280C60FA0CF093EA122F1C
:1054F00004BF00EBC25070474FEAC3707047130AF5
:105500005FEADC1008BF7047F6E79CEA026F04D040
:1055100010EA5C0F08BF0020704710B5FFF78BFE44
:1055200040DFF63E81F0004070470CF00F03092B7E
:1055300008BF082000F07F800A2B0BD0082B18BF73
:10554000704708BF1CF0400F0AD04FF000004FF02A
:10555000000170471CF0400F18BF4FF0004070472B
:105560001CF0100F08D020F0704300F07F4242EA98
:10557000D3014FEA4370704700F0604021F07F4252
:1055800042EA000201F07F4040EA727070474FF03B
:10559000FF0C4CF4E06C1CEA11531CBF9CEA030C9A
:1055A0009445C2BFDA4201EB02517047002B0DD087
:1055B000BCF1000F0FD0002A01F00041A4BF41F060
:1055C000E04141F07F614FF00000704701F0004181
:1055D0004FF00000704750EA01334FF09B0C18BFAA
:1055E0004CF0806C7FF440A870474FF0FF0212EA45
:1055F000D0521CBF92F0FF038B42C2BFD14200EBDE
:10560000C1507047002A0AD0002B0BD0002900F0AF
:105610000040A4BF40F0FE4040F40000704700F09E
:105620000040704743024FF00B0C18BF4CF0806CE9
:105630007FF410AC70471CF4801F11D01CF4E02FD5
:1056400003D06FEACC31490070474FF04050EFF380
:10565000008222F0704242EA000282F30088704722
:105660004FF0000070470102020304050607080915
:105670000A0B0C0D0E0F10100102020304050607A1
:1056800008090A0B0C0D0E0F10100000000000009E
:1056900000000102030406070809000000000102DF
:1056A000030408000010100000021800001220007F
:1056B00000042800001430000006380000164000E6
:1056C0000008480000185000000A5800001A600046
:1056D000000C6800001C7000000E7800001E8000A6
:1056E0000008880040109000400298004012A0007E
:1056F0004004A8004014B0004006B8004016C000A6
:105700004008C8004018D000400AD800401AE00005
:10571000400CE800401CF000400EF800401E000164
:105720000008080180101001800218018012200179
:105730008004280180143001800638018016400161
:105740008008480180185001800A5801801A6001C1
:10575000800C6801801C7001800E7801801E800121
:1057600040088801C0109001C0029801C012A00139
:10577000C004A801C014B001C006B801C016C00121
:10578000C008C801C018D001C00AD801C01AE00181
:10579000C00CE801C01CF001C00EF801C01E0002E0
:1057A0000008080200111002000318020013200272
:1057B00000052802001530020007380200174002D9
:1057C0000009480200195002000B5802001B600239
:1057D000000D6802001D7002000F7802001F800299
:1057E0008008880240119002400398024013A002F2
:1057F0004005A8024015B0024007B8024017C00299
:105800004009C8024019D002400BD802401BE002F8
:10581000400DE802401DF002400FF802401F000357
:10582000400808038011100380031803801320032D
:105830008005280380153003800738038017400354
:105840008009480380195003800B5803801B6003B4
:10585000800D6803801D7003800F7803801F800314
:10586000C0088803C0119003C0039803C013A003AD
:10587000C005A803C015B003C007B803C017C00314
:10588000C009C803C019D003C00BD803C01BE00374
:10589000C00DE803C01DF003C00FF803C01F0004D3
:1058A0000010080408101004001118040812200445
:1058B00008102804081430040806380408164004A8
:1058C0000808480408185004080A5804081A600414
:1058D000080C6804081C7004080E7804081E800474
:1058E0000018880448109004001998044812A00475
:1058F0000818A8044814B0044806B8044816C004A0
:105900004808C8044818D004480AD804481AE004D3
:10591000480CE804481CF004480EF804481E000532
:105920004010080588101005401118058812200540
:105930004810280588143005880638058816400563
:105940008808480588185005880A5805881A60058F
:10595000880C6805881C7005880E7805881E8005EF
:1059600040188805C810900540199805C812A00570
:105970004818A805C814B005C806B805C816C0055B
:10598000C808C805C818D005C80AD805C81AE0054F
:10599000C80CE805C81CF005C80EF805C81E0006AE
:1059A000801008060811100680111806081320063A
:1059B000881028060815300608073806081740061C
:1059C0000809480608195006080B5806081B600607
:1059D000080D6806081D7006080F7806081F800667
:1059E0008018880648119006801998064813A0066A
:1059F0008818A8064815B0064807B8064817C00614
:105A00004809C8064819D006480BD806481BE006C6
:105A1000480DE806481DF006480FF806481F000725
:105A2000C010080788111007C01118078813200735
:105A3000C8102807881530078807380788174007D7
:105A40008809480788195007880B5807881B600782
:105A5000880D6807881D7007880F7807881F8007E2
:105A6000C0188807C8119007C0199807C813A00765
:105A7000C818A807C815B007C807B807C817C007CF
:105A8000C809C807C819D007C80BD807C81BE00742
:105A9000C80DE807C81DF007C80FF807C81F080899
:105AA00010101008400818081012200800112808CB
:105AB00010143008801138081016480810185008C3
:105AC000100A5808101A6008100C6808101C70089A
:105AD000100E7808101E8008000A880850109008E0
